:100000000C942A000C9447000C9447000C94470071
:100010000C9447000C9447000C944F0D0C94820DE7
:100020000C94F60D0C946A0E0C9447000C94470047
:100030000C9447000C9447000C9447000C94470024
:100040000C9447000C9447000C9447000C94470014
:100050000C94470011241FBECFE5D8E0DEBFCDBF12
:1000600011E0A8E6B1E001C01D92A838B107E1F7A0
:1000700011E0A0E6B0E0E6E0FFE102C005900D92DD
:10008000A836B107D9F70E94E90E0C94810F0C94A1
:100090000000EF92FF920F931F937B018C0120E0F1
:1000A00030E040E05FE40E94C50388238CF0C80183
:1000B000B70120E030E040E05FE40E94C1010E940F
:1000C000F5039B01AC01205030404040504806C031
:1000D000C801B7010E94F5039B01AC01B901CA0137
:1000E0001F910F91FF90EF900895A0E0B0E0EBE733
:1000F000F0E00C944A0FDC012B01FA019C91923044
:1001000008F439C1EB018881823008F433C194309E
:1001100069F4843009F02FC111969C91119789815F
:10012000981709F428C1A0E6B0E025C1843009F48D
:1001300021C18230A9F4923009F01DC19A01AD01AC
:1001400088E0EA010990AE01E90109929E0181501F
:10015000C1F7E201898111969C918923818308C1AD
:10016000923009F407C112962D903C901397EB0141
:100170008A819B811496AD90BD90CD90DC901797AD
:10018000EC80FD800E811F819101281B390BB90184
:1001900037FF04C066277727621B730B6032710537
:1001A0000CF061C0121613066CF537014801062EDB
:1001B00004C096948794779467940A94D2F721E0C8
:1001C00030E040E050E004C0220F331F441F551FB1
:1001D0006A95D2F721503040404050402E213F21B7
:1001E00040235123211531054105510521F021E01E
:1001F00030E040E050E079018A01E628F72808293C
:1002000019293CC0232BD1F1260E371E350146019A
:10021000062E04C096948794779467940A94D2F734
:1002200021E030E040E050E004C0220F331F441FC3
:10023000551F6A95D2F721503040404050402A2146
:100240003B214C215D21211531054105510521F04E
:1002500021E030E040E050E059016A01A628B728CB
:10026000C828D9280BC0821593052CF01C01AA249C
:10027000BB24650103C0EE24FF24870111969C91E5
:10028000D20111968C91981709F445C0992339F041
:10029000A80197012A193B094C095D0906C0A6016E
:1002A00095012E193F09400B510B57FD08C01182D3
:1002B0003382228224833583468357831DC081E0A5
:1002C00081833382228288279927DC01821B930B4A
:1002D000A40BB50B84839583A683B7830DC0220F2F
:1002E000331F441F551F24833583468357838281E0
:1002F000938101979383828324813581468157813D
:10030000DA01C9010197A109B1098F5F9F4FAF4F72
:10031000BF4328F30BC0918333822282EA0CFB1C7B
:100320000C1D1D1DE482F5820683178383E0808304
:10033000248135814681578157FF1AC0C901AA27F8
:1003400097FDA095BA2F81709070A070B0705695EF
:10035000479537952795822B932BA42BB52B848318
:100360009583A683B7838281938101969383828349
:10037000DF0101C0D201CD01CDB7DEB7E2E10C94BF
:10038000660FA0E2B0E0E7ECF1E00C94560F698351
:100390007A838B839C832D833E834F835887E9E048
:1003A000EE2EF12CEC0EFD1ECE010196B7010E943F
:1003B000E6058E010F5E1F4FCE010596B8010E9423
:1003C000E6058A8991E089278A8BC701B801AE01C9
:1003D000475E5F4F0E9475000E941105A096E6E0FF
:1003E0000C94720FA0E2B0E0E8EFF1E00C94560F2D
:1003F00069837A838B839C832D833E834F835887C5
:10040000F9E0EF2EF12CEC0EFD1ECE010196B701A6
:100410000E94E6058E010F5E1F4FCE010596B801C2
:100420000E94E605C701B801AE01475E5F4F0E941A
:1004300075000E941105A096E6E00C94720FA0E2F0
:10044000B0E0E5E2F2E00C944A0F69837A838B8393
:100450009C832D833E834F835887CE010196BE0136
:10046000675F7F4F0E94E605CE010596BE016F5E75
:100470007F4F0E94E6059985923088F08989823005
:10048000C8F0943019F4823051F404C0843029F457
:10049000923081F480E690E0C6C0923049F420E0CA
:1004A0009A858A89981321E02A87CE010996BBC0D4
:1004B000823049F420E09A858A89981321E02A8BBA
:1004C000CE014196B0C02D843E844F8458886D88FB
:1004D0007E888F88988CEE24FF248701AA24BB2471
:1004E000650140E050E060E070E0E0E0F0E0C10174
:1004F00081709070892BE9F0E60CF71C081D191D1E
:100500009A01AB012A0D3B1D4C1D5D1D80E090E062
:10051000A0E0B0E0E614F7040805190520F481E036
:1005200090E0A0E0B0E0BA01A901480F591F6A1F8E
:100530007B1FAA0CBB1CCC1CDD1C97FE08C081E0F5
:1005400090E0A0E0B0E0A82AB92ACA2ADB2A3196B6
:10055000E032F10549F0660C771C881C991C569412
:10056000479437942794C3CFFA85EA892B893C892D
:100570008B859C85280F391F2E5F3F4F17C0CA01FE
:1005800081709070892B61F016950795F794E79428
:1005900080E090E0A0E0B0E8E82AF92A0A2B1B2BC3
:1005A00076956795579547952F5F3F4F77FDE7CF36
:1005B0000CC0440F551F661F771F17FD4160EE0CDE
:1005C000FF1C001F111F21503040403090E05907A0
:1005D00090E0690790E4790760F32B8F3C8FDB0193
:1005E000CA018F779070A070B07080349105A1051A
:1005F000B10561F447FD0AC0E114F10401051105DC
:1006000029F0405C5F4F6F4F7F4F40781A8EFE1786
:1006100011F081E08A8F4D8F5E8F6F8F78A383E01A
:10062000898FCE0149960E941105A096E2E10C94B3
:10063000660FA8E1B0E0EFE1F3E00C94520F69839C
:100640007A838B839C832D833E834F835887B9E0C5
:10065000EB2EF12CEC0EFD1ECE010196B7010E948F
:10066000E6058E010F5E1F4FCE010596B8010E9470
:10067000E6052985223008F47EC03989323010F42D
:10068000B8017CC08A859A8989278A87243011F02D
:10069000223031F4231709F06EC060E670E06EC0BE
:1006A000343039F41D861E861F86188A1C861B86E8
:1006B00004C0323021F484E08987B7015FC02B8504
:1006C0003C858B899C89281B390B3C872B87ED84C3
:1006D000FE840F851889AD88BE88CF88D88CEA142F
:1006E000FB040C051D0540F4EE0CFF1C001F111F40
:1006F000215030403C872B8720E030E040E050E044
:1007000080E090E0A0E0B0E460E070E0EA14FB0478
:100710000C051D0540F0282B392B4A2B5B2BEA18C2
:10072000FB080C091D09B695A79597958795EE0CC2
:10073000FF1C001F111F6F5F7F4F6F31710531F775
:10074000DA01C9018F779070A070B0708034910584
:10075000A105B10561F427FD0AC0E114F10401050A
:10076000110529F0205C3F4F4F4F5F4F20782D87B8
:100770003E874F87588BBE01675F7F4FCB010E943A
:1007800011056896EAE00C946E0FA8E1B0E0EBEC7E
:10079000F3E00C94560F69837A838B839C832D83BB
:1007A0003E834F83588789E0E82EF12CEC0EFD1E26
:1007B000CE010196B7010E94E6058E010F5E1F4F24
:1007C000CE010596B8010E94E6058985823040F089
:1007D0008989823028F0C701B8010E945E0601C0F5
:1007E0008FEF6896E6E00C94720FACE0B0E0EBEFB0
:1007F000F3E00C945A0F69837A838B839C83CE0138
:100800000196BE016B5F7F4F0E94E6058D818230AD
:1008100061F1823050F1843021F48E81882351F1CE
:100820002EC02F81388537FD20C06E812F313105D4
:100830001CF06623F9F023C08EE190E0821B930B3D
:1008400029853A854B855C8504C056954795379533
:1008500027958A95D2F76623B1F05095409530954B
:1008600021953F4F4F4F5F4F0EC020E030E040E0FA
:1008700050E009C02FEF3FEF4FEF5FE704C020E0EB
:1008800030E040E050E8B901CA012C96E2E00C9457
:10089000760FA8E0B0E0EFE4F4E00C94520F7B0197
:1008A0008C01611571058105910519F482E0898338
:1008B00060C083E089838EE1C82ED12CDC82CB829C
:1008C000ED82FE820F831887C801B7010E94C2041F
:1008D000FC013197F7FF3BC0222733272E1B3F0B2C
:1008E00057016801022E04C0D694C794B794A79408
:1008F0000A94D2F740E050E060E070E081E090E0E0
:10090000A0E0B0E004C0880F991FAA1FBB1F2A9562
:10091000D2F70197A109B1098E219F21A023B1230C
:100920000097A105B10521F041E050E060E070E0E2
:100930004A295B296C297D294D835E836F837887E3
:100940008EE190E08E1B9F0B9C838B8312C03097AF
:1009500081F00E2E04C0EE0CFF1C001F111F0A9424
:10096000D2F7ED82FE820F831887CE1ADF0ADC826F
:10097000CB821A82CE0101960E9411052896EAE0E8
:100980000C946E0FEF92FF920F931F937B018C01DB
:1009900080E0E81680E0F80681E0080780E01807AC
:1009A00088F48FEFE816F1040105110531F028F005
:1009B00088E090E0A0E0B0E017C080E090E0A0E028
:1009C000B0E012C080E0E81680E0F80680E008079A
:1009D00081E0180728F088E190E0A0E0B0E004C0D2
:1009E00080E190E0A0E0B0E020E230E040E050E0C4
:1009F000281B390B4A0B5B0B04C016950795F7941F
:100A0000E7948A95D2F7F701E859FF4F8081281BB8
:100A1000310941095109C9011F910F91FF90EF90D0
:100A20000895DF92EF92FF920F931F93FC01E480F1
:100A3000F58006811781D1808081823048F480E082
:100A400090E0A0E1B0E0E82AF92A0A2B1B2BA5C010
:100A5000843009F49FC0823021F4EE24FF24870102
:100A600005C0E114F1040105110519F4E0E0F0E01E
:100A700096C0628173819FEF623879070CF05BC08A
:100A800022E83FEF261B370B2A3131052CF020E0FE
:100A900030E040E050E02AC0B801A701022E04C0B7
:100AA00076956795579547950A94D2F781E090E03F
:100AB000A0E0B0E004C0880F991FAA1FBB1F2A95B1
:100AC000D2F70197A109B1098E219F21A023B1235B
:100AD0000097A105B10521F081E090E0A0E0B0E031
:100AE0009A01AB01282B392B4A2B5B2BDA01C90168
:100AF0008F779070A070B07080349105A105B1051A
:100B000039F427FF09C0205C3F4F4F4F5F4F04C0AF
:100B1000215C3F4F4F4F5F4FE0E0F0E02030A0E01E
:100B20003A07A0E04A07A0E45A0710F0E1E0F0E03D
:100B300079018A0127C06038710564F5FB01E1582D
:100B4000FF4FD801C7018F779070A070B0708034CC
:100B50009105A105B10539F4E7FE0DC080E490E0F0
:100B6000A0E0B0E004C08FE390E0A0E0B0E0E80EC9
:100B7000F91E0A1F1B1F17FF05C016950795F7944E
:100B8000E794319687E016950795F794E7948A9550
:100B9000D1F705C0EE24FF248701EFEFF0E06E2FC0
:100BA000679566276795902F9F77D794DD24D79414
:100BB0008E2F8695492F462B582F5D29B701CA01E4
:100BC0001F910F91FF90EF90DF900895FC01DB01E2
:100BD000408151812281622F6F7770E0221F22278E
:100BE000221F9381892F880F822B282F30E0991F95
:100BF0009927991F11969C93119721153105A9F5F5
:100C0000411551056105710511F482E037C082E894
:100C10009FEF13969C938E9312979A01AB0167E016
:100C2000220F331F441F551F6A95D1F783E08C9321
:100C30000DC0220F331F441F551F12968D919C919A
:100C40001397019713969C938E931297203080E010
:100C5000380780E0480780E4580758F314962D932E
:100C60003D934D935C93179708952F3F310579F489
:100C7000411551056105710519F484E08C930895BF
:100C800064FF03C081E08C9312C01C9210C02F57E8
:100C9000304013963C932E93129783E08C9387E019
:100CA000440F551F661F771F8A95D1F770641496FD
:100CB0004D935D936D937C93179708951F93DC017B
:100CC000FB019C91923008F447C08081823008F487
:100CD00043C0943051F411961C91843099F5818170
:100CE000682F70E0611B71093FC0843021F09230A1
:100CF00031F48230B9F18181882389F12DC01196B8
:100D00001C9111978230F1F081811817D9F4129655
:100D10002D913C911397828193818217930794F0D0
:100D200028173907BCF014968D919D910D90BC91B8
:100D3000A02D2481358146815781281739074A071C
:100D40005B0718F4112341F00AC082179307A40728
:100D5000B50740F4112319F061E070E005C06FEFB2
:100D60007FEF02C060E070E0CB011F910895DF9338
:100D7000CF93CDB7DEB727970FB6F894DEBF0FBE7F
:100D8000CDBF89836A834B838B81813009F06FC02B
:100D90008981282F30E03F832E838E819F8181308F
:100DA000910549F12E813F81223031052CF48E814D
:100DB0009F81009761F0D2C02E813F8122303105A2
:100DC00071F18E819F8183309105E9F1C7C0AAE35B
:100DD000B0E0EAE3F0E08081482F8A81282F30E0FC
:100DE00081E090E0022E02C0880F991F0A94E2F77A
:100DF000842B8C93B3C0A7E3B0E0E7E3F0E08081FD
:100E0000482F8A81282F30E081E090E0022E02C036
:100E1000880F991F0A94E2F7842B8C939FC0A4E358
:100E2000B0E0E4E3F0E08081482F8A81282F30E0B1
:100E300081E090E0022E02C0880F991F0A94E2F729
:100E4000842B8C938BC0A1E3B0E0E1E3F0E08081E0
:100E5000482F8A81282F30E081E090E0022E02C0E6
:100E6000880F991F0A94E2F7842B8C9377C08B81AB
:100E7000882309F073C08981282F30E03D832C83BB
:100E80008C819D818130910559F12C813D812230E9
:100E900031052CF48C819D81009769F05FC02C8115
:100EA0003D812230310589F18C819D81833091050E
:100EB00009F440C053C0AAE3B0E0EAE3F0E0808167
:100EC000482F8A81282F30E081E090E0022E02C076
:100ED000880F991F0A94E2F7809584238C933EC073
:100EE000A7E3B0E0E7E3F0E08081482F8A81282F74
:100EF00030E081E090E0022E02C0880F991F0A9432
:100F0000E2F7809584238C9329C0A4E3B0E0E4E366
:100F1000F0E08081482F8A81282F30E081E090E046
:100F2000022E02C0880F991F0A94E2F7809584234D
:100F30008C9314C0A1E3B0E0E1E3F0E08081482F9E
:100F40008A81282F30E081E090E0022E02C0880FD5
:100F5000991F0A94E2F7809584238C9327960FB605
:100F6000F894DEBF0FBECDBFCF91DF910895DF9320
:100F7000CF93CDB7DEB727970FB6F894DEBF0FBE7D
:100F8000CDBF89836A834B838B81813009F06FC029
:100F90008981282F30E03F832E838E819F8181308D
:100FA000910549F12E813F81223031052CF48E814B
:100FB0009F81009761F0D2C02E813F8122303105A0
:100FC00071F18E819F8183309105E9F1C7C0ABE358
:100FD000B0E0EBE3F0E08081482F8A81282F30E0F9
:100FE00081E090E0022E02C0880F991F0A94E2F778
:100FF000842B8C93B3C0A8E3B0E0E8E3F0E08081F9
:10100000482F8A81282F30E081E090E0022E02C034
:10101000880F991F0A94E2F7842B8C939FC0A5E355
:10102000B0E0E5E3F0E08081482F8A81282F30E0AE
:1010300081E090E0022E02C0880F991F0A94E2F727
:10104000842B8C938BC0A2E3B0E0E2E3F0E08081DC
:10105000482F8A81282F30E081E090E0022E02C0E4
:10106000880F991F0A94E2F7842B8C9377C08B81A9
:10107000882309F073C08981282F30E03D832C83B9
:101080008C819D818130910559F12C813D812230E7
:1010900031052CF48C819D81009769F05FC02C8113
:1010A0003D812230310589F18C819D81833091050C
:1010B00009F440C053C0ABE3B0E0EBE3F0E0808163
:1010C000482F8A81282F30E081E090E0022E02C074
:1010D000880F991F0A94E2F7809584238C933EC071
:1010E000A8E3B0E0E8E3F0E08081482F8A81282F70
:1010F00030E081E090E0022E02C0880F991F0A9430
:10110000E2F7809584238C9329C0A5E3B0E0E5E362
:10111000F0E08081482F8A81282F30E081E090E044
:10112000022E02C0880F991F0A94E2F7809584234B
:101130008C9314C0A2E3B0E0E2E3F0E08081482F9A
:101140008A81282F30E081E090E0022E02C0880FD3
:10115000991F0A94E2F7809584238C9327960FB603
:10116000F894DEBF0FBECDBFCF91DF910895DF931E
:10117000CF9300D000D0CDB7DEB789836A83898151
:10118000282F30E03C832B838B819C81813091051B
:10119000D1F02B813C81223031052CF48B819C8154
:1011A000009761F01EC02B813C812230310581F017
:1011B0008B819C818330910581F013C0EAE3F0E0DC
:1011C0008A8180830EC0E7E3F0E08A81808309C0D2
:1011D000E4E3F0E08A81808304C0E1E3F0E08A8107
:1011E00080830F900F900F900F90CF91DF91089513
:1011F000DF93CF9300D00F92CDB7DEB7898389817B
:10120000282F30E03B832A838A819B81813091059E
:10121000C9F02A813B81223031052CF48A819B81DF
:10122000009761F01AC02A813B812230310571F0AC
:101230008A819B818330910569F00FC0EAE3F0E079
:1012400010820BC0E7E3F0E0108207C0E4E3F0E0B7
:10125000108203C0E1E3F0E010820F900F900F9036
:10126000CF91DF910895DF93CF9300D00F92CDB748
:10127000DEB789838981282F30E03B832A838A81E6
:101280009B8181309105D1F02A813B81223031054B
:101290002CF48A819B81009761F01EC02A813B81DA
:1012A0002230310581F08A819B818330910581F064
:1012B00013C0EAE3F0E08FEF80830EC0E7E3F0E0D5
:1012C0008FEF808309C0E4E3F0E08FEF808304C0F8
:1012D000E1E3F0E08FEF80830F900F900F90CF91BC
:1012E000DF910895DF93CF9300D000D0CDB7DEB764
:1012F00089836A838981282F30E03C832B838B810B
:101300009C8181309105D1F02B813C8122303105C7
:101310002CF48B819C81009761F01EC02B813C8155
:101320002230310581F08B819C818330910581F0E1
:1013300013C0EBE3F0E08A8180830EC0E8E3F0E0C5
:101340008A81808309C0E5E3F0E08A81808304C05C
:10135000E2E3F0E08A8180830F900F900F900F906E
:10136000CF91DF910895DF93CF9300D00F92CDB747
:10137000DEB789838981282F30E03B832A838A81E5
:101380009B8181309105C9F02A813B812230310552
:101390002CF48A819B81009761F01AC02A813B81DD
:1013A0002230310571F08A819B818330910569F08B
:1013B0000FC0EBE3F0E010820BC0E8E3F0E0108236
:1013C00007C0E5E3F0E0108203C0E2E3F0E0108242
:1013D0000F900F900F90CF91DF910895DF93CF93EF
:1013E00000D00F92CDB7DEB789838981282F30E0F6
:1013F0003B832A838A819B8181309105D1F02A81A8
:101400003B81223031052CF48A819B81009761F069
:101410001EC02A813B812230310581F08A819B8167
:101420008330910581F013C0EBE3F0E08FEF808310
:101430000EC0E8E3F0E08FEF808309C0E5E3F0E061
:101440008FEF808304C0E2E3F0E08FEF80830F90A2
:101450000F900F90CF91DF910895DF93CF9300D03D
:1014600000D00F92CDB7DEB78A836B838A81282F95
:1014700030E03D832C834C815D814130510541F149
:101480008C819D818230910534F42C813D81211520
:10149000310561F052C04C815D814230510551F1FE
:1014A0008C819D8183309105B9F147C0E9E3F0E07B
:1014B0008081282F30E08B81882F90E0A90102C025
:1014C000559547958A95E2F7CA018170898335C0A1
:1014D000E6E3F0E08081282F30E08B81882F90E0D8
:1014E000A90102C0559547958A95E2F7CA01817016
:1014F000898323C0E3E3F0E08081282F30E08B81F3
:10150000882F90E0A90102C0559547958A95E2F78A
:10151000CA018170898311C0E0E3F0E08081282F47
:1015200030E08B81882F90E0A90102C05595479546
:101530008A95E2F7CA018170898389810F900F90A3
:101540000F900F900F90CF91DF910895DF93CF937D
:1015500000D000D0CDB7DEB789836A838981282F78
:1015600030E03C832B838B819C818130910549F154
:101570002B813C81223031052CF48B819C8100979A
:1015800061F05AC02B813C812230310571F18B8191
:101590009C8183309105E9F14FC0ABE3B0E0EBE310
:1015A000F0E08081482F8A81282F30E081E090E0B0
:1015B000022E02C0880F991F0A94E2F784278C93A9
:1015C0003BC0A8E3B0E0E8E3F0E08081482F8A81E7
:1015D000282F30E081E090E0022E02C0880F991F92
:1015E0000A94E2F784278C9327C0A5E3B0E0E5E3F3
:1015F000F0E08081482F8A81282F30E081E090E060
:10160000022E02C0880F991F0A94E2F784278C9358
:1016100013C0A2E3B0E0E2E3F0E08081482F8A81CA
:10162000282F30E081E090E0022E02C0880F991F41
:101630000A94E2F784278C930F900F900F900F90ED
:10164000CF91DF910895DF93CF93CDB7DEB7AFE5AC
:10165000B0E0EFE5F0E0808180688C93CF91DF917E
:101660000895DF93CF93CDB7DEB7AFE5B0E0EFE5F8
:10167000F0E080818F778C93CF91DF910895DF9395
:10168000CF93CDB7DEB7AEE4B0E0EEE4F0E080811A
:101690008E7F8C93AEE4B0E0EEE4F0E08081826077
:1016A0008C93AEE4B0E0EEE4F0E080818B7F8C932D
:1016B00088E090E0A0E0B0E0809380019093810109
:1016C000A0938201B0938301AFE4B0E0EFE4F0E0D7
:1016D00080818F7B8C93AFE4B0E0EFE4F0E0808119
:1016E0008F778C93AFE4B0E0EFE4F0E080818E7F01
:1016F0008C93AFE4B0E0EFE4F0E080818D7F8C93D9
:10170000AEE4B0E0EEE4F0E08081877F8C93AEE45D
:10171000B0E0EEE4F0E080818F7E8C93A9E5B0E04C
:10172000E9E5F0E0808184608C93CF91DF910895AA
:10173000DF93CF93CDB7DEB7A9E5B0E0E9E5F0E000
:10174000808180628C93CF91DF910895DF93CF9356
:1017500000D00F92CDB7DEB789838981282F30E082
:101760003B832A838A819B81009731F02A813B81C8
:101770002130310549F00FC0AEE4B0E0EEE4F0E016
:10178000808180648C9307C0AEE4B0E0EEE4F0E0CA
:1017900080818F7B8C930F900F900F90CF91DF9172
:1017A0000895DF93CF9300D0CDB7DEB79A838983B6
:1017B000EAE4F0E089819A81918380830F900F9011
:1017C000CF91DF910895DF93CF9300D0CDB7DEB7EF
:1017D0009A838983E6E4F0E089819A81918380830A
:1017E0000F900F90CF91DF910895DF93CF93CDB7F6
:1017F000DEB7E6E4F0E080819181CF91DF9108953A
:10180000DF93CF9300D0CDB7DEB79A838983ECE422
:10181000F0E089819A81918380830F900F90CF911E
:10182000DF910895EF92FF920F931F93DF93CF9371
:10183000CDB7DEB768970FB6F894DEBF0FBECDBF49
:101840006D8B7E8B8F8B988F8FEF9FEFA0E0B0E03A
:10185000898B9A8BAB8BBC8B20918001309181015D
:10186000409182015091830180E092E1AAE7B0E0CB
:10187000BC01CD010E94280FDA01C9018D879E8726
:10188000AF87B88B80E492E4AFE0B0E02D853E8571
:101890004F855889BC01CD010E94280FDA01C9018A
:1018A000BC01CD010E944904DC01CB0189879A87E4
:1018B000AB87BC8769897A898B899C890E94490496
:1018C000DC01CB01BC01CD0129853A854B855C85C6
:1018D0000E941F02DC01CB01BC01CD010E94490026
:1018E000DC01CB018D839E83AF83B8878D899E8970
:1018F000AF89B88D28EE33E040E050E0BC01CD0167
:101900000E94090FDC01CB012D813E814F8158855A
:10191000BC01CD010E94280FDA01C90180937C012E
:1019200090937D01A0937E01B0937F018D899E8964
:10193000AF89B88D28EE33E040E050E0BC01CD0126
:101940000E94090FDC01CB012D813E814F8158851A
:10195000BC01CD010E94280FDC01CB01BC01CD01EF
:101960000E9449047B018C016D817E818F81988565
:101970000E9449049B01AC01C801B7010E941903F0
:10198000DC01CB0189839A83AB83BC8360E070E088
:1019900080E89FE329813A814B815C810E94C101EB
:1019A000DC01CB017C018D0169897A898B899C8955
:1019B0000E9449049B01AC01C801B7010E941F02AB
:1019C000DC01CB01BC01CD010E944900DC01CB014F
:1019D0008093840190938501A0938601B093870141
:1019E0008091840190918501A0918601B091870139
:1019F0000E94000C68960FB6F894DEBF0FBECDBFF4
:101A0000CF91DF911F910F91FF90EF900895DF9399
:101A1000CF9300D0CDB7DEB79A83898389819A812D
:101A200090936F0180936E010F900F90CF91DF9193
:101A30000895DF93CF9300D0CDB7DEB79A83898323
:101A400089819A8190936B0180936A010F900F9026
:101A5000CF91DF910895DF93CF9300D0CDB7DEB75C
:101A60009A83898389819A8190936D0180936C0117
:101A70000F900F90CF91DF910895DF93CF9300D017
:101A8000CDB7DEB79A83898389819A819093690162
:101A9000809368010F900F90CF91DF9108951F926E
:101AA0000F920FB60F9211242F933F934F935F9392
:101AB0006F937F938F939F93AF93BF93EF93FF9316
:101AC000DF93CF93CDB7DEB780916E0190916F0118
:101AD000009729F0E0916E01F0916F010995CF9187
:101AE000DF91FF91EF91BF91AF919F918F917F9186
:101AF0006F915F914F913F912F910F900FBE0F907B
:101B00001F9018951F920F920FB60F9211242F93CA
:101B10003F934F935F936F937F938F939F93AF9375
:101B2000BF93EF93FF93DF93CF93CDB7DEB7809151
:101B30007C0190917D01A0917E01B0917F019C017B
:101B4000AD012F5F3F4F4F4F5F4F809170019091DC
:101B50007101A0917201B0917301281739074A07EA
:101B60005B07F1F480916A0190916B01009729F075
:101B7000E0916A01F0916B01099510927001109249
:101B80007101109272011092730180918401909101
:101B90008501A0918601B09187010E94000C13C0BD
:101BA0008091700190917101A0917201B0917301C7
:101BB0000196A11DB11D8093700190937101A093B6
:101BC0007201B0937301CF91DF91FF91EF91BF91BB
:101BD000AF919F918F917F916F915F914F913F91C5
:101BE0002F910F900FBE0F901F9018951F920F927C
:101BF0000FB60F9211242F933F934F935F936F93E0
:101C00007F938F939F93AF93BF93EF93FF93DF9354
:101C1000CF93CDB7DEB780917C0190917D01A091EB
:101C20007E01B0917F019C01AD012F5F3F4F4F4F6F
:101C30005F4F8091740190917501A0917601B091F0
:101C40007701281739074A075B07F1F480916C0187
:101C500090916D01009729F0E0916C01F0916D0178
:101C600009951092740110927501109276011092EC
:101C700077018091840190918501A0918601B091B6
:101C800087010E94000C13C080917401909175012E
:101C9000A0917601B09177010196A11DB11D8093AD
:101CA000740190937501A0937601B0937701CF9161
:101CB000DF91FF91EF91BF91AF919F918F917F91B4
:101CC0006F915F914F913F912F910F900FBE0F90A9
:101CD0001F9018951F920F920FB60F9211242F93F9
:101CE0003F934F935F936F937F938F939F93AF93A4
:101CF000BF93EF93FF93DF93CF93CDB7DEB7809180
:101D00007C0190917D01A0917E01B0917F019C01A9
:101D1000AD012F5F3F4F4F4F5F4F80917801909102
:101D20007901A0917A01B0917B01281739074A0700
:101D30005B07F1F48091680190916901009729F0A7
:101D4000E0916801F0916901099510927801109273
:101D5000790110927A0110927B0180918401909117
:101D60008501A0918601B09187010E94000C13C0EB
:101D70008091780190917901A0917A01B0917B01D5
:101D80000196A11DB11D8093780190937901A093D4
:101D90007A01B0937B01CF91DF91FF91EF91BF91D9
:101DA000AF919F918F917F916F915F914F913F91F3
:101DB0002F910F900FBE0F901F901895DF93CF9328
:101DC000CDB7DEB780E060E00E94A60ACF91DF9138
:101DD0000895DF93CF93CDB7DEB70E94230B0E9407
:101DE0003F0B83E065E041E00E94B70680E060E0E1
:101DF00041E00E94B70680E060E041E00E94B70742
:101E000080E29EE40E94E30B87EE93E00E94D10BF8
:101E1000FFCF629FD001739FF001829FE00DF11D03
:101E2000649FE00DF11D929FF00D839FF00D749F54
:101E3000F00D659FF00D9927729FB00DE11DF91F00
:101E4000639FB00DE11DF91FBD01CF01112408955D
:101E5000A1E21A2EAA1BBB1BFD010DC0AA1FBB1FAE
:101E6000EE1FFF1FA217B307E407F50720F0A21B20
:101E7000B30BE40BF50B661F771F881F991F1A948D
:101E800069F760957095809590959B01AC01BD01B7
:101E9000CF0108952F923F924F925F926F927F925F
:101EA0008F929F92AF92BF92CF92DF92EF92FF926A
:101EB0000F931F93CF93DF93CDB7DEB7CA1BDB0B16
:101EC0000FB6F894DEBF0FBECDBF09942A883988BB
:101ED00048885F846E847D848C849B84AA84B984C2
:101EE000C884DF80EE80FD800C811B81AA81B981CE
:101EF000CE0FD11D0FB6F894DEBF0FBECDBFED01E2
:061F00000895F894FFCFE4
:101F060000000000000000000001020203030303BA
:101F16000404040404040404050505050505050573
:101F26000505050505050505060606060606060653
:101F3600060606060606060606060606060606063B
:101F46000606060606060606070707070707070723
:101F5600070707070707070707070707070707070B
:101F660007070707070707070707070707070707FB
:101F760007070707070707070707070707070707EB
:101F860007070707070707070808080808080808D3
:101F960008080808080808080808080808080808BB
:101FA60008080808080808080808080808080808AB
:101FB600080808080808080808080808080808089B
:101FC600080808080808080808080808080808088B
:101FD600080808080808080808080808080808087B
:101FE600080808080808080808080808080808086B
:101FF600080808080808080808080808080808085B
:08200600080808080808080892
:00000001FF
