:100000000C942A000C9447000C9447000C94470071
:100010000C9447000C9447000C94D2130C940514D4
:100020000C9479140C94ED140C94DA100C944E1179
:100030000C9447000C9447000C9447000C94470024
:100040000C9447000C9447000C9447000C94470014
:100050000C94470011241FBECFE5D8E0DEBFCDBF12
:1000600011E0A0E6B0E0E8EAFFE202C005900D92E0
:10007000A639B107D9F711E0A6E9B1E001C01D9298
:10008000A23CB107E1F70E9461150C94D2170C94C1
:100090000000EF92FF920F931F937B018C0120E0F1
:1000A00030E040E05FE40E94F50388238CF0C80153
:1000B000B70120E030E040E05FE40E94C1010E940F
:1000C00055049B01AC01205030404040504806C0D0
:1000D000C801B7010E9455049B01AC01B901CA01D6
:1000E0001F910F91FF90EF900895A0E0B0E0EBE733
:1000F000F0E00C942217DC012B01FA019C91923064
:1001000008F439C1EB018881823008F433C194309E
:1001100069F4843009F02FC111969C91119789815F
:10012000981709F428C1AEE8B0E025C1843009F47D
:1001300021C18230A9F4923009F01DC19A01AD01AC
:1001400088E0EA010990AE01E90109929E0181501F
:10015000C1F7E201898111969C918923818308C1AD
:10016000923009F407C112962D903C901397EB0141
:100170008A819B811496AD90BD90CD90DC901797AD
:10018000EC80FD800E811F819101281B390BB90184
:1001900037FF04C066277727621B730B6032710537
:1001A0000CF061C0121613066CF537014801062EDB
:1001B00004C096948794779467940A94D2F721E0C8
:1001C00030E040E050E004C0220F331F441F551FB1
:1001D0006A95D2F721503040404050402E213F21B7
:1001E00040235123211531054105510521F021E01E
:1001F00030E040E050E079018A01E628F72808293C
:1002000019293CC0232BD1F1260E371E350146019A
:10021000062E04C096948794779467940A94D2F734
:1002200021E030E040E050E004C0220F331F441FC3
:10023000551F6A95D2F721503040404050402A2146
:100240003B214C215D21211531054105510521F04E
:1002500021E030E040E050E059016A01A628B728CB
:10026000C828D9280BC0821593052CF01C01AA249C
:10027000BB24650103C0EE24FF24870111969C91E5
:10028000D20111968C91981709F445C0992339F041
:10029000A80197012A193B094C095D0906C0A6016E
:1002A00095012E193F09400B510B57FD08C01182D3
:1002B0003382228224833583468357831DC081E0A5
:1002C00081833382228288279927DC01821B930B4A
:1002D000A40BB50B84839583A683B7830DC0220F2F
:1002E000331F441F551F24833583468357838281E0
:1002F000938101979383828324813581468157813D
:10030000DA01C9010197A109B1098F5F9F4FAF4F72
:10031000BF4328F30BC0918333822282EA0CFB1C7B
:100320000C1D1D1DE482F5820683178383E0808304
:10033000248135814681578157FF1AC0C901AA27F8
:1003400097FDA095BA2F81709070A070B0705695EF
:10035000479537952795822B932BA42BB52B848318
:100360009583A683B7838281938101969383828349
:10037000DF0101C0D201CD01CDB7DEB7E2E10C94BF
:100380003E17A0E2B0E0E7ECF1E00C942E17698391
:100390007A838B839C832D833E834F835887E9E048
:1003A000EE2EF12CEC0EFD1ECE010196B7010E943F
:1003B00046068E010F5E1F4FCE010596B8010E94C2
:1003C00046068A8991E089278A8BC701B801AE0168
:1003D000475E5F4F0E9475000E947105A096E6E09F
:1003E0000C944A17A0E2B0E0E8EFF1E00C942E176D
:1003F00069837A838B839C832D833E834F835887C5
:10040000F9E0EF2EF12CEC0EFD1ECE010196B701A6
:100410000E9446068E010F5E1F4FCE010596B80161
:100420000E944606C701B801AE01475E5F4F0E94B9
:1004300075000E947105A096E6E00C944A17A0E2B0
:10044000B0E0E5E2F2E00C94221769837A838B83B3
:100450009C832D833E834F835887CE010196BE0136
:10046000675F7F4F0E944606CE010596BE016F5E14
:100470007F4F0E9446069985923088F089898230A4
:10048000C8F0943019F4823051F404C0843029F457
:10049000923081F48EE890E0C6C0923049F420E0BA
:1004A0009A858A89981321E02A87CE010996BBC0D4
:1004B000823049F420E09A858A89981321E02A8BBA
:1004C000CE014196B0C02D843E844F8458886D88FB
:1004D0007E888F88988CEE24FF248701AA24BB2471
:1004E000650140E050E060E070E0E0E0F0E0C10174
:1004F00081709070892BE9F0E60CF71C081D191D1E
:100500009A01AB012A0D3B1D4C1D5D1D80E090E062
:10051000A0E0B0E0E614F7040805190520F481E036
:1005200090E0A0E0B0E0BA01A901480F591F6A1F8E
:100530007B1FAA0CBB1CCC1CDD1C97FE08C081E0F5
:1005400090E0A0E0B0E0A82AB92ACA2ADB2A3196B6
:10055000E032F10549F0660C771C881C991C569412
:10056000479437942794C3CFFA85EA892B893C892D
:100570008B859C85280F391F2E5F3F4F17C0CA01FE
:1005800081709070892B61F016950795F794E79428
:1005900080E090E0A0E0B0E8E82AF92A0A2B1B2BC3
:1005A00076956795579547952F5F3F4F77FDE7CF36
:1005B0000CC0440F551F661F771F17FD4160EE0CDE
:1005C000FF1C001F111F21503040403090E05907A0
:1005D00090E0690790E4790760F32B8F3C8FDB0193
:1005E000CA018F779070A070B07080349105A1051A
:1005F000B10561F447FD0AC0E114F10401051105DC
:1006000029F0405C5F4F6F4F7F4F40781A8EFE1786
:1006100011F081E08A8F4D8F5E8F6F8F78A383E01A
:10062000898FCE0149960E947105A096E2E10C9453
:100630003E17A8E1B0E0EFE1F3E00C942A176983DC
:100640007A838B839C832D833E834F835887B9E0C5
:10065000EB2EF12CEC0EFD1ECE010196B7010E948F
:1006600046068E010F5E1F4FCE010596B8010E940F
:1006700046062985223008F47EC03989323010F4CC
:10068000B8017CC08A859A8989278A87243011F02D
:10069000223031F4231709F06EC06EE870E06EC0AE
:1006A000343039F41D861E861F86188A1C861B86E8
:1006B00004C0323021F484E08987B7015FC02B8504
:1006C0003C858B899C89281B390B3C872B87ED84C3
:1006D000FE840F851889AD88BE88CF88D88CEA142F
:1006E000FB040C051D0540F4EE0CFF1C001F111F40
:1006F000215030403C872B8720E030E040E050E044
:1007000080E090E0A0E0B0E460E070E0EA14FB0478
:100710000C051D0540F0282B392B4A2B5B2BEA18C2
:10072000FB080C091D09B695A79597958795EE0CC2
:10073000FF1C001F111F6F5F7F4F6F31710531F775
:10074000DA01C9018F779070A070B0708034910584
:10075000A105B10561F427FD0AC0E114F10401050A
:10076000110529F0205C3F4F4F4F5F4F20782D87B8
:100770003E874F87588BBE01675F7F4FCB010E943A
:1007800071056896EAE00C944617A8E1B0E0EBEC3E
:10079000F3E00C942E1769837A838B839C832D83DB
:1007A0003E834F83588789E0E82EF12CEC0EFD1E26
:1007B000CE010196B7010E9446068E010F5E1F4FC3
:1007C000CE010596B8010E9446068985823040F028
:1007D0008989823028F0C701B8010E94BE0601C095
:1007E0008FEF6896E6E00C944A17A8E1B0E0EBEFD3
:1007F000F3E00C942E1769837A838B839C832D837B
:100800003E834F83588789E0E82EF12CEC0EFD1EC5
:10081000CE010196B7010E9446068E010F5E1F4F62
:10082000CE010596B8010E9446068985823040F0C7
:100830008989823028F0C701B8010E94BE0601C034
:100840008FEF6896E6E00C944A17A8E1B0E0EBE27F
:10085000F4E00C942E1769837A838B839C832D8319
:100860003E834F83588789E0E82EF12CEC0EFD1E65
:10087000CE010196B7010E9446068E010F5E1F4F02
:10088000CE010596B8010E9446068985823040F067
:100890008989823028F0C701B8010E94BE0601C0D4
:1008A00081E06896E6E00C944A17ACE0B0E0EBE536
:1008B000F4E00C94321769837A838B839C83CE0196
:1008C0000196BE016B5F7F4F0E9446068D8182308C
:1008D00061F1823050F1843021F48E81882351F10E
:1008E0002EC02F81388537FD20C06E812F31310514
:1008F0001CF06623F9F023C08EE190E0821B930B7D
:1009000029853A854B855C8504C056954795379572
:1009100027958A95D2F76623B1F05095409530958A
:1009200021953F4F4F4F5F4F0EC020E030E040E039
:1009300050E009C02FEF3FEF4FEF5FE704C020E02A
:1009400030E040E050E8B901CA012C96E2E00C9496
:100950004E17A8E0B0E0EFEAF4E00C942A177B0110
:100960008C01611571058105910519F482E0898377
:1009700060C083E089838EE1C82ED12CDC82CB82DB
:10098000ED82FE820F831887C801B7010E942205FD
:10099000FC013197F7FF3BC0222733272E1B3F0B6B
:1009A00057016801022E04C0D694C794B794A79447
:1009B0000A94D2F740E050E060E070E081E090E01F
:1009C000A0E0B0E004C0880F991FAA1FBB1F2A95A2
:1009D000D2F70197A109B1098E219F21A023B1234C
:1009E0000097A105B10521F041E050E060E070E022
:1009F0004A295B296C297D294D835E836F83788723
:100A00008EE190E08E1B9F0B9C838B8312C03097EE
:100A100081F00E2E04C0EE0CFF1C001F111F0A9463
:100A2000D2F7ED82FE820F831887CE1ADF0ADC82AE
:100A3000CB821A82CE0101960E9471052896EAE0C7
:100A40000C944617EF92FF920F931F937B018C013A
:100A500080E0E81680E0F80681E0080780E01807EB
:100A600088F48FEFE816F1040105110531F028F044
:100A700088E090E0A0E0B0E017C080E090E0A0E067
:100A8000B0E012C080E0E81680E0F80680E00807D9
:100A900081E0180728F088E190E0A0E0B0E004C011
:100AA00080E190E0A0E0B0E020E230E040E050E003
:100AB000281B390B4A0B5B0B04C016950795F7945E
:100AC000E7948A95D2F7F701EA56FF4F8081281BF9
:100AD000310941095109C9011F910F91FF90EF9010
:100AE0000895DF92EF92FF920F931F93FC01E48031
:100AF000F58006811781D1808081823048F480E0C2
:100B000090E0A0E1B0E0E82AF92A0A2B1B2BA5C04F
:100B1000843009F49FC0823021F4EE24FF24870141
:100B200005C0E114F1040105110519F4E0E0F0E05D
:100B300096C0628173819FEF623879070CF05BC0C9
:100B400022E83FEF261B370B2A3131052CF020E03D
:100B500030E040E050E02AC0B801A701022E04C0F6
:100B600076956795579547950A94D2F781E090E07E
:100B7000A0E0B0E004C0880F991FAA1FBB1F2A95F0
:100B8000D2F70197A109B1098E219F21A023B1239A
:100B90000097A105B10521F081E090E0A0E0B0E070
:100BA0009A01AB01282B392B4A2B5B2BDA01C901A7
:100BB0008F779070A070B07080349105A105B10559
:100BC00039F427FF09C0205C3F4F4F4F5F4F04C0EF
:100BD000215C3F4F4F4F5F4FE0E0F0E02030A0E05E
:100BE0003A07A0E04A07A0E45A0710F0E1E0F0E07D
:100BF00079018A0127C06038710564F5FB01E1586D
:100C0000FF4FD801C7018F779070A070B07080340B
:100C10009105A105B10539F4E7FE0DC080E490E02F
:100C2000A0E0B0E004C08FE390E0A0E0B0E0E80E08
:100C3000F91E0A1F1B1F17FF05C016950795F7948D
:100C4000E794319687E016950795F794E7948A958F
:100C5000D1F705C0EE24FF248701EFEFF0E06E2FFF
:100C6000679566276795902F9F77D794DD24D79453
:100C70008E2F8695492F462B582F5D29B701CA0123
:100C80001F910F91FF90EF90DF900895FC01DB0121
:100C9000408151812281622F6F7770E0221F2227CD
:100CA000221F9381892F880F822B282F30E0991FD4
:100CB0009927991F11969C93119721153105A9F534
:100CC000411551056105710511F482E037C082E8D4
:100CD0009FEF13969C938E9312979A01AB0167E056
:100CE000220F331F441F551F6A95D1F783E08C9361
:100CF0000DC0220F331F441F551F12968D919C91DA
:100D00001397019713969C938E931297203080E04F
:100D1000380780E0480780E4580758F314962D936D
:100D20003D934D935C93179708952F3F310579F4C8
:100D3000411551056105710519F484E08C930895FE
:100D400064FF03C081E08C9312C01C9210C02F5727
:100D5000304013963C932E93129783E08C9387E058
:100D6000440F551F661F771F8A95D1F7706414963C
:100D70004D935D936D937C93179708951F93DC01BA
:100D8000FB019C91923008F447C08081823008F4C6
:100D900043C0943051F411961C91843099F58181AF
:100DA000682F70E0611B71093FC0843021F09230E0
:100DB00031F48230B9F18181882389F12DC01196F7
:100DC0001C9111978230F1F081811817D9F4129695
:100DD0002D913C911397828193818217930794F010
:100DE00028173907BCF014968D919D910D90BC91F8
:100DF000A02D2481358146815781281739074A075C
:100E00005B0718F4112341F00AC082179307A40767
:100E1000B50740F4112319F061E070E005C06FEFF1
:100E20007FEF02C060E070E0CB011F910895DF9377
:100E3000CF93CDB7DEB727970FB6F894DEBF0FBEBE
:100E4000CDBF89836A834B838B81813009F06FC06A
:100E50008981282F30E03F832E838E819F818130CE
:100E6000910549F12E813F81223031052CF48E818C
:100E70009F81009761F0D2C02E813F8122303105E1
:100E800071F18E819F8183309105E9F1C7C0AAE39A
:100E9000B0E0EAE3F0E08081482F8A81282F30E03B
:100EA00081E090E0022E02C0880F991F0A94E2F7B9
:100EB000842B8C93B3C0A7E3B0E0E7E3F0E080813C
:100EC000482F8A81282F30E081E090E0022E02C076
:100ED000880F991F0A94E2F7842B8C939FC0A4E398
:100EE000B0E0E4E3F0E08081482F8A81282F30E0F1
:100EF00081E090E0022E02C0880F991F0A94E2F769
:100F0000842B8C938BC0A1E3B0E0E1E3F0E080811F
:100F1000482F8A81282F30E081E090E0022E02C025
:100F2000880F991F0A94E2F7842B8C9377C08B81EA
:100F3000882309F073C08981282F30E03D832C83FA
:100F40008C819D818130910559F12C813D81223028
:100F500031052CF48C819D81009769F05FC02C8154
:100F60003D812230310589F18C819D81833091054D
:100F700009F440C053C0AAE3B0E0EAE3F0E08081A6
:100F8000482F8A81282F30E081E090E0022E02C0B5
:100F9000880F991F0A94E2F7809584238C933EC0B2
:100FA000A7E3B0E0E7E3F0E08081482F8A81282FB3
:100FB00030E081E090E0022E02C0880F991F0A9471
:100FC000E2F7809584238C9329C0A4E3B0E0E4E3A6
:100FD000F0E08081482F8A81282F30E081E090E086
:100FE000022E02C0880F991F0A94E2F7809584238D
:100FF0008C9314C0A1E3B0E0E1E3F0E08081482FDE
:101000008A81282F30E081E090E0022E02C0880F14
:10101000991F0A94E2F7809584238C9327960FB644
:10102000F894DEBF0FBECDBFCF91DF910895DF935F
:10103000CF93CDB7DEB727970FB6F894DEBF0FBEBC
:10104000CDBF89836A834B838B81813009F06FC068
:101050008981282F30E03F832E838E819F818130CC
:10106000910549F12E813F81223031052CF48E818A
:101070009F81009761F0D2C02E813F8122303105DF
:1010800071F18E819F8183309105E9F1C7C0ABE397
:10109000B0E0EBE3F0E08081482F8A81282F30E038
:1010A00081E090E0022E02C0880F991F0A94E2F7B7
:1010B000842B8C93B3C0A8E3B0E0E8E3F0E0808138
:1010C000482F8A81282F30E081E090E0022E02C074
:1010D000880F991F0A94E2F7842B8C939FC0A5E395
:1010E000B0E0E5E3F0E08081482F8A81282F30E0EE
:1010F00081E090E0022E02C0880F991F0A94E2F767
:10110000842B8C938BC0A2E3B0E0E2E3F0E080811B
:10111000482F8A81282F30E081E090E0022E02C023
:10112000880F991F0A94E2F7842B8C9377C08B81E8
:10113000882309F073C08981282F30E03D832C83F8
:101140008C819D818130910559F12C813D81223026
:1011500031052CF48C819D81009769F05FC02C8152
:101160003D812230310589F18C819D81833091054B
:1011700009F440C053C0ABE3B0E0EBE3F0E08081A2
:10118000482F8A81282F30E081E090E0022E02C0B3
:10119000880F991F0A94E2F7809584238C933EC0B0
:1011A000A8E3B0E0E8E3F0E08081482F8A81282FAF
:1011B00030E081E090E0022E02C0880F991F0A946F
:1011C000E2F7809584238C9329C0A5E3B0E0E5E3A2
:1011D000F0E08081482F8A81282F30E081E090E084
:1011E000022E02C0880F991F0A94E2F7809584238B
:1011F0008C9314C0A2E3B0E0E2E3F0E08081482FDA
:101200008A81282F30E081E090E0022E02C0880F12
:10121000991F0A94E2F7809584238C9327960FB642
:10122000F894DEBF0FBECDBFCF91DF910895DF935D
:10123000CF9300D000D0CDB7DEB789836A83898190
:10124000282F30E03C832B838B819C81813091055A
:10125000D1F02B813C81223031052CF48B819C8193
:10126000009761F01EC02B813C812230310581F056
:101270008B819C818330910581F013C0EAE3F0E01B
:101280008A8180830EC0E7E3F0E08A81808309C011
:10129000E4E3F0E08A81808304C0E1E3F0E08A8146
:1012A00080830F900F900F900F90CF91DF91089552
:1012B000DF93CF9300D00F92CDB7DEB789838981BA
:1012C000282F30E03B832A838A819B8181309105DE
:1012D000C9F02A813B81223031052CF48A819B811F
:1012E000009761F01AC02A813B812230310571F0EC
:1012F0008A819B818330910569F00FC0EAE3F0E0B9
:1013000010820BC0E7E3F0E0108207C0E4E3F0E0F6
:10131000108203C0E1E3F0E010820F900F900F9075
:10132000CF91DF910895DF93CF9300D00F92CDB787
:10133000DEB789838981282F30E03B832A838A8125
:101340009B8181309105D1F02A813B81223031058A
:101350002CF48A819B81009761F01EC02A813B8119
:101360002230310581F08A819B818330910581F0A3
:1013700013C0EAE3F0E08FEF80830EC0E7E3F0E014
:101380008FEF808309C0E4E3F0E08FEF808304C037
:10139000E1E3F0E08FEF80830F900F900F90CF91FB
:1013A000DF910895DF93CF9300D000D0CDB7DEB7A3
:1013B00089836A838981282F30E03C832B838B814A
:1013C0009C8181309105D1F02B813C812230310507
:1013D0002CF48B819C81009761F01EC02B813C8195
:1013E0002230310581F08B819C818330910581F021
:1013F00013C0EBE3F0E08A8180830EC0E8E3F0E005
:101400008A81808309C0E5E3F0E08A81808304C09B
:10141000E2E3F0E08A8180830F900F900F900F90AD
:10142000CF91DF910895DF93CF9300D00F92CDB786
:10143000DEB789838981282F30E03B832A838A8124
:101440009B8181309105C9F02A813B812230310591
:101450002CF48A819B81009761F01AC02A813B811C
:101460002230310571F08A819B818330910569F0CA
:101470000FC0EBE3F0E010820BC0E8E3F0E0108275
:1014800007C0E5E3F0E0108203C0E2E3F0E0108281
:101490000F900F900F90CF91DF910895DF93CF932E
:1014A00000D00F92CDB7DEB789838981282F30E035
:1014B0003B832A838A819B8181309105D1F02A81E7
:1014C0003B81223031052CF48A819B81009761F0A9
:1014D0001EC02A813B812230310581F08A819B81A7
:1014E0008330910581F013C0EBE3F0E08FEF808350
:1014F0000EC0E8E3F0E08FEF808309C0E5E3F0E0A1
:101500008FEF808304C0E2E3F0E08FEF80830F90E1
:101510000F900F90CF91DF910895DF93CF9300D07C
:1015200000D00F92CDB7DEB78A836B838A81282FD4
:1015300030E03D832C834C815D814130510541F188
:101540008C819D818230910534F42C813D8121155F
:10155000310561F052C04C815D814230510551F13D
:101560008C819D8183309105B9F147C0E9E3F0E0BA
:101570008081282F30E08B81882F90E0A90102C064
:10158000559547958A95E2F7CA018170898335C0E0
:10159000E6E3F0E08081282F30E08B81882F90E017
:1015A000A90102C0559547958A95E2F7CA01817055
:1015B000898323C0E3E3F0E08081282F30E08B8132
:1015C000882F90E0A90102C0559547958A95E2F7CA
:1015D000CA018170898311C0E0E3F0E08081282F87
:1015E00030E08B81882F90E0A90102C05595479586
:1015F0008A95E2F7CA018170898389810F900F90E3
:101600000F900F900F90CF91DF910895DF93CF93BC
:1016100000D000D0CDB7DEB789836A838981282FB7
:1016200030E03C832B838B819C818130910549F193
:101630002B813C81223031052CF48B819C810097D9
:1016400061F05AC02B813C812230310571F18B81D0
:101650009C8183309105E9F14FC0ABE3B0E0EBE34F
:10166000F0E08081482F8A81282F30E081E090E0EF
:10167000022E02C0880F991F0A94E2F784278C93E8
:101680003BC0A8E3B0E0E8E3F0E08081482F8A8126
:10169000282F30E081E090E0022E02C0880F991FD1
:1016A0000A94E2F784278C9327C0A5E3B0E0E5E332
:1016B000F0E08081482F8A81282F30E081E090E09F
:1016C000022E02C0880F991F0A94E2F784278C9398
:1016D00013C0A2E3B0E0E2E3F0E08081482F8A810A
:1016E000282F30E081E090E0022E02C0880F991F81
:1016F0000A94E2F784278C930F900F900F900F902D
:10170000CF91DF910895DF93CF93CDB7DEB7AFE5EB
:10171000B0E0EFE5F0E0808180688C93CF91DF91BD
:101720000895DF93CF93CDB7DEB7AFE5B0E0EFE537
:10173000F0E080818F778C93CF91DF910895DF93D4
:10174000CF93CDB7DEB7AA970FB6F894DEBF0FBE22
:10175000CDBF80E00E94930981E060E041E00E94FB
:10176000170781E061E041E00E94170781E062E035
:1017700041E00E94170780E090E0A0EFB1E48FA362
:1017800098A7A9A7BAA76FA178A589A59AA520E0CF
:1017900030E04AEF54E40E941F02DC01CB018BA32E
:1017A0009CA3ADA3BEA36BA17CA18DA19EA120E0B3
:1017B00030E040E85FE30E94250488232CF481E0B8
:1017C00090E09AA389A33FC06BA17CA18DA19EA1AB
:1017D00020E03FEF4FE757E40E94C50318164CF591
:1017E0006FA178A589A59AA520E030E040E251E4F8
:1017F0000E941F02DC01CB01BC01CD010E94490007
:10180000DC01CB019AA389A30FC088EC90E098A3D8
:101810008F8F8F8D98A10197F1F798A38F8F89A152
:101820009AA101979AA389A389A19AA1009769F720
:1018300014C06BA17CA18DA19EA10E944900DC0176
:10184000CB019AA389A389A19AA19E8F8D8F8D8D9B
:101850009E8D0197F1F79E8F8D8F88E30E94230D57
:1018600080E090E0A0E0B0E4898F9A8FAB8FBC8FCE
:10187000698D7A8D8B8D9C8D20E030E04AEF54E4A9
:101880000E941F02DC01CB018D8B9E8BAF8BB88F2A
:101890006D897E898F89988D20E030E040E85FE394
:1018A0000E94250488232CF481E090E09C8B8B8B94
:1018B0003FC06D897E898F89988D20E03FEF4FE78B
:1018C00057E40E94C50318164CF5698D7A8D8B8DEF
:1018D0009C8D20E030E040E251E40E941F02DC01D8
:1018E000CB01BC01CD010E944900DC01CB019C8BE6
:1018F0008B8B0FC088EC90E09A8B898B89899A89B1
:101900000197F1F79A8B898B8B899C8901979C8B26
:101910008B8B8B899C89009769F714C06D897E89B0
:101920008F89988D0E944900DC01CB019C8B8B8BA9
:101930008B899C89988B8F878F8598890197F1F780
:10194000988B8F878CE00E94230D80E090E0A0E0D0
:10195000B0E48B879C87AD87BE876B857C858D8542
:101960009E8520E030E04AEF54E40E941F02DC0133
:10197000CB018F839887A987BA876F8178858985FE
:101980009A8520E030E040E85FE30E942504882348
:101990002CF481E090E09E838D833FC06F81788539
:1019A00089859A8520E03FEF4FE757E40E94C50301
:1019B00018164CF56B857C858D859E8520E030E082
:1019C00040E251E40E941F02DC01CB01BC01CD01C9
:1019D0000E944900DC01CB019E838D830FC088ECFF
:1019E00090E09C838B838B819C810197F1F79C8392
:1019F0008B838D819E8101979E838D838D819E81B6
:101A0000009769F714C06F81788589859A850E944F
:101A10004900DC01CB019E838D838D819E819A8359
:101A2000898389819A810197F1F79A83898381E07B
:101A30000E94230DAA960FB6F894DEBF0FBECDBF4D
:101A4000CF91DF910895DF93CF93CDB7DEB72F9776
:101A50000FB6F894DEBF0FBECDBF8F8781E060E088
:101A600040E00E94170881E061E040E00E94170812
:101A700080E06F850E94D20981E062E041E00E942F
:101A8000170880E090E0A0E0B0E48B879C87AD87EA
:101A9000BE876B857C858D859E8520E030E04AEF92
:101AA00054E40E941F02DC01CB018F839887A98731
:101AB000BA876F81788589859A8520E030E040E893
:101AC0005FE30E94250488232CF481E090E09E834C
:101AD0008D833FC06F81788589859A8520E03FEFAF
:101AE0004FE757E40E94C50318164CF56B857C85BB
:101AF0008D859E8520E030E040E251E40E941F0287
:101B0000DC01CB01BC01CD010E944900DC01CB010D
:101B10009E838D830FC088EC90E09C838B838B81A8
:101B20009C810197F1F79C838B838D819E81019726
:101B30009E838D838D819E81009769F714C06F818C
:101B4000788589859A850E944900DC01CB019E83B6
:101B50008D838D819E819A83898389819A81019762
:101B6000F1F79A83898381E062E040E00E941708E0
:101B70002F960FB6F894DEBF0FBECDBFCF91DF9189
:101B80000895DF93CF93CDB7DEB72F970FB6F894B4
:101B9000DEBF0FBECDBF8F8781E060E041E00E94D5
:101BA000170881E061E040E00E94170880E06F853F
:101BB0000E94D20981E062E041E00E94170880E0C3
:101BC00090E0A0E0B0E48B879C87AD87BE876B85F3
:101BD0007C858D859E8520E030E04AEF54E40E94AC
:101BE0001F02DC01CB018F839887A987BA876F8199
:101BF000788589859A8520E030E040E85FE30E949F
:101C0000250488232CF481E090E09E838D833FC0DF
:101C10006F81788589859A8520E03FEF4FE757E40B
:101C20000E94C50318164CF56B857C858D859E85B5
:101C300020E030E040E251E40E941F02DC01CB01D1
:101C4000BC01CD010E944900DC01CB019E838D8344
:101C50000FC088EC90E09C838B838B819C810197E3
:101C6000F1F79C838B838D819E8101979E838D8369
:101C70008D819E81009769F714C06F817885898571
:101C80009A850E944900DC01CB019E838D838D8162
:101C90009E819A83898389819A810197F1F79A833A
:101CA000898381E062E040E00E9417082F960FB61A
:101CB000F894DEBF0FBECDBFCF91DF910895DF93C3
:101CC000CF9300D000D0CDB7DEB789836A838981F6
:101CD000282F30E03C832B838B819C81009731F04F
:101CE0002B813C812130310531F009C08A81805837
:101CF0000E94230D04C08A8180540E94230D0F90FE
:101D00000F900F900F90CF91DF910895DF93CF93B5
:101D100000D00F92CDB7DEB79B838A8319820EC0A5
:101D20008981282F30E08A819B81FC01E20FF31F1B
:101D300080810E94C10D89818F5F89838981282FCD
:101D400030E08A819B81FC01E20FF31F80818823B0
:101D500039F70F900F900F90CF91DF9108950F9367
:101D60001F93DF93CF93CDB7DEB760970FB6F8948C
:101D7000DEBF0FBECDBF6D877E878F87988B1A829F
:101D80008D859E85AF85B8890097A105B10589F538
:101D900080E30E94C10D4DC08A81082F10E08D851F
:101DA0009E85AF85B8892AE030E040E050E0BC0174
:101DB000CD010E940017DC01CB01282FCE01039634
:101DC000FC01E00FF11F20838D859E85AF85B889CA
:101DD0002AE030E040E050E0BC01CD010E94001755
:101DE000DA01C9018D879E87AF87B88B8A818F5FA3
:101DF0008A838D859E85AF85B8890097A105B10539
:101E000059F68A81898312C08981882F90E09C01CC
:101E100021503040CE010396FC01E20FF31F808178
:101E2000805D0E94C10D89818150898389818823C9
:101E300059F760960FB6F894DEBF0FBECDBFCF91B5
:101E4000DF911F910F910895DF93CF9300D000D0C1
:101E500000D0CDB7DEB79B838A836C834D832E83FE
:101E60008C81882F90E00896880F991F880F991F02
:101E7000880F991F0E94230D19820EC08981282F77
:101E800030E08A819B81FC01E20FF31F80810E9478
:101E9000C10D89818F5F89838981883078F38D8135
:101EA0006E810E945F0E8C810E94C10D26960FB636
:101EB000F894DEBF0FBECDBFCF91DF910895DF93C1
:101EC000CF93CDB7DEB781E00E94230DCF91DF9194
:101ED0000895DF93CF93CDB7DEB7A3E5B0E0E3E598
:101EE000F0E080818E7F8C93A3E5B0E0E3E5F0E045
:101EF000808182608C93A3E5B0E0E3E5F0E080812F
:101F00008B7F8C9388E090E0A0E0B0E08093BA01F2
:101F10009093BB01A093BC01B093BD01A3E5B0E0D9
:101F2000E3E5F0E080818F7E8C93A3E5B0E0E3E50C
:101F3000F0E0808180628C93A3E5B0E0E3E5F0E01F
:101F4000808188608C93A3E5B0E0E3E5F0E08081D8
:101F500080648C93CF91DF910895DF93CF930F929C
:101F6000CDB7DEB78983E2E5F0E0898180830F9009
:101F7000CF91DF910895DF93CF930F92CDB7DEB766
:101F80008983ECE5F0E0898180830F90CF91DF9128
:101F90000895EF92FF920F931F93DF93CF93CDB7E6
:101FA000DEB768970FB6F894DEBF0FBECDBF6D8B5E
:101FB0007E8B8F8B988F2091BA013091BB0140911D
:101FC000BC015091BD0180E092E1AAE7B0E0BC0104
:101FD000CD010E940017DA01C9018D879E87AF8766
:101FE000B88B80E492E4AFE0B0E02D853E854F856C
:101FF0005889BC01CD010E940017DA01C901BC015A
:10200000CD010E94A904DC01CB0189879A87AB87A7
:10201000BC8769897A898B899C890E94A904DC0123
:10202000CB01BC01CD0129853A854B855C850E9499
:102030001F02DC01CB01BC01CD010E944900DC0183
:10204000CB018D839E83AF83B8878D899E89AF89AD
:10205000B88D28EE33E040E050E0BC01CD010E9495
:10206000E116DC01CB012D813E814F815885BC01F9
:10207000CD010E940017DA01C9018093B601909347
:10208000B701A093B801B093B9018D899E89AF893A
:10209000B88D28EE33E040E050E0BC01CD010E9455
:1020A000E116DC01CB012D813E814F815885BC01B9
:1020B000CD010E940017DC01CB01BC01CD010E94C3
:1020C000A9047B018C016D817E818F8198850E949E
:1020D000A9049B01AC01C801B7010E941903DC01EE
:1020E000CB0189839A83AB83BC8360E070E080E896
:1020F0009FE329813A814B815C810E94C101DC010F
:10210000CB017C018D0169897A898B899C890E9428
:10211000A9049B01AC01C801B7010E941F02DC01A8
:10212000CB01BC01CD010E944900DC01CB018093B1
:10213000BE019093BF01A093C001B093C1018091F3
:10214000BE019091BF01A091C001B091C1010E9458
:10215000AD0F68960FB6F894DEBF0FBECDBFCF911E
:10216000DF911F910F91FF90EF900895DF93CF9330
:1021700000D0CDB7DEB79A83898389819A81909305
:102180009701809396010F900F90CF91DF91089562
:10219000DF93CF9300D0CDB7DEB79A83898389814F
:1021A0009A8190939901809398010F900F90CF910D
:1021B000DF9108951F920F920FB60F9211242F9363
:1021C0003F934F935F936F937F938F939F93AF93BF
:1021D000BF93EF93FF93DF93CF93CDB7DEB780919B
:1021E000B6019091B701A091B801B091B9019C01DD
:1021F000AD012F5F3F4F4F4F5F4F80919A019091FC
:102200009B01A0919C01B0919D01281739074A07B5
:102210005B07F1F48091980190919901009729F062
:10222000E0919801F0919901099510929A0110920C
:102230009B0110929C0110929D018091BE01909192
:10224000BF01A091C001B091C1010E94AD0F13C0A8
:1022500080919A0190919B01A0919C01B0919D0168
:102260000196A11DB11D80939A0190939B01A093AB
:102270009C01B0939D01CF91DF91FF91EF91BF91B0
:10228000AF919F918F917F916F915F914F913F910E
:102290002F910F900FBE0F901F9018951F920F92C5
:1022A0000FB60F9211242F933F934F935F936F9329
:1022B0007F938F939F93AF93BF93EF93FF93DF939E
:1022C000CF93CDB7DEB78091B6019091B701A091C1
:1022D000B801B091B9019C01AD012F5F3F4F4F4F45
:1022E0005F4F80919E0190919F01A091A001B091BC
:1022F000A101281739074A075B07F1F4809196017D
:1023000090919701009729F0E0919601F091970143
:10231000099510929E0110929F011092A0011092B7
:10232000A1018091BE019091BF01A091C001B09127
:10233000C1010E94AD0F13C080919E0190919F0139
:10234000A091A001B091A1010196A11DB11D8093A2
:102350009E0190939F01A093A001B093A101CF9102
:10236000DF91FF91EF91BF91AF919F918F917F91FD
:102370006F915F914F913F912F910F900FBE0F90F2
:102380001F901895DF93CF93CDB7DEB7AEE4B0E0E2
:10239000EEE4F0E080818E7F8C93AEE4B0E0EEE47A
:1023A000F0E0808182608C93AEE4B0E0EEE4F0E097
:1023B00080818B7F8C9388E090E0A0E0B0E08093F8
:1023C000BA019093BB01A093BC01B093BD01AFE4EF
:1023D000B0E0EFE4F0E080818F7B8C93AFE4B0E07D
:1023E000EFE4F0E080818F778C93AFE4B0E0EFE42E
:1023F000F0E080818E7F8C93AFE4B0E0EFE4F0E01A
:1024000080818D7F8C93AEE4B0E0EEE4F0E08081DB
:10241000877F8C93AEE4B0E0EEE4F0E080818F7EC5
:102420008C93A9E5B0E0E9E5F0E0808184608C93CD
:10243000CF91DF910895DF93CF93CDB7DEB7A9E5B4
:10244000B0E0E9E5F0E0808180628C93CF91DF918C
:102450000895DF93CF9300D00F92CDB7DEB7898375
:102460008981282F30E03B832A838A819B810097D2
:1024700031F02A813B812130310549F00FC0AEE4B3
:10248000B0E0EEE4F0E0808180648C9307C0AEE4BD
:10249000B0E0EEE4F0E080818F7B8C930F900F90A2
:1024A0000F90CF91DF910895DF93CF9300D0CDB7F8
:1024B000DEB79A838983EAE4F0E089819A81918387
:1024C00080830F900F90CF91DF910895DF93CF938A
:1024D00000D0CDB7DEB79A838983E6E4F0E0898146
:1024E0009A81918380830F900F90CF91DF9108950F
:1024F000DF93CF93CDB7DEB7E6E4F0E08081918142
:10250000CF91DF910895DF93CF9300D0CDB7DEB7A1
:102510009A838983ECE4F0E089819A8191838083B6
:102520000F900F90CF91DF910895EF92FF920F934C
:102530001F93DF93CF93CDB7DEB768970FB6F894AC
:10254000DEBF0FBECDBF6D8B7E8B8F8B988F8FEFD5
:102550009FEFA0E0B0E0898B9A8BAB8BBC8B209176
:10256000BA013091BB014091BC015091BD0180E0A6
:1025700092E1AAE7B0E0BC01CD010E940017DA01A8
:10258000C9018D879E87AF87B88B80E492E4AFE066
:10259000B0E02D853E854F855889BC01CD010E9454
:1025A0000017DA01C901BC01CD010E94A904DC01B8
:1025B000CB0189879A87AB87BC8769897A898B89A0
:1025C0009C890E94A904DC01CB01BC01CD012985B5
:1025D0003A854B855C850E941F02DC01CB01BC0162
:1025E000CD010E944900DC01CB018D839E83AF8326
:1025F000B8878D899E89AF89B88D28EE33E040E099
:1026000050E0BC01CD010E94E116DC01CB012D811F
:102610003E814F815885BC01CD010E940017DA012F
:10262000C9018093B6019093B701A093B801B0930C
:10263000B9018D899E89AF89B88D28EE33E040E0DD
:1026400050E0BC01CD010E94E116DC01CB012D81DF
:102650003E814F815885BC01CD010E940017DC01ED
:10266000CB01BC01CD010E94A9047B018C016D81CD
:102670007E818F8198850E94A9049B01AC01C801CD
:10268000B7010E941903DC01CB0189839A83AB83D4
:10269000BC8360E070E080E89FE329813A814B8150
:1026A0005C810E94C101DC01CB017C018D01698943
:1026B0007A898B899C890E94A9049B01AC01C8017D
:1026C000B7010E941F02DC01CB01BC01CD010E94B9
:1026D0004900DC01CB018093BE019093BF01A09320
:1026E000C001B093C1018091BE019091BF01A09142
:1026F000C001B091C1010E94831268960FB6F89490
:10270000DEBF0FBECDBFCF91DF911F910F91FF9024
:10271000EF900895DF93CF9300D0CDB7DEB79A83C3
:10272000898389819A819093A9018093A8010F9050
:102730000F90CF91DF910895DF93CF9300D0CDB765
:10274000DEB79A83898389819A819093A5018093CA
:10275000A4010F900F90CF91DF910895DF93CF9355
:1027600000D0CDB7DEB79A83898389819A8190930F
:10277000A7018093A6010F900F90CF91DF9108954C
:10278000DF93CF9300D0CDB7DEB79A838983898159
:102790009A819093A3018093A2010F900F90CF9103
:1027A000DF9108951F920F920FB60F9211242F936D
:1027B0003F934F935F936F937F938F939F93AF93C9
:1027C000BF93EF93FF93DF93CF93CDB7DEB78091A5
:1027D000A8019091A901009729F0E091A801F0913A
:1027E000A9010995CF91DF91FF91EF91BF91AF9131
:1027F0009F918F917F916F915F914F913F912F9119
:102800000F900FBE0F901F9018951F920F920FB64A
:102810000F9211242F933F934F935F936F937F9366
:102820008F939F93AF93BF93EF93FF93DF93CF93D8
:10283000CDB7DEB78091B6019091B701A091B801F4
:10284000B091B9019C01AD012F5F3F4F4F4F5F4FDA
:102850008091AA019091AB01A091AC01B091AD0122
:10286000281739074A075B07F1F48091A40190917A
:10287000A501009729F0E091A401F091A501099527
:102880001092AA011092AB011092AC011092AD010E
:102890008091BE019091BF01A091C001B091C10192
:1028A0000E94831213C08091AA019091AB01A09164
:1028B000AC01B091AD010196A11DB11D8093AA019B
:1028C0009093AB01A093AC01B093AD01CF91DF9198
:1028D000FF91EF91BF91AF919F918F917F916F91F8
:1028E0005F914F913F912F910F900FBE0F901F90CE
:1028F00018951F920F920FB60F9211242F933F93AA
:102900004F935F936F937F938F939F93AF93BF93F7
:10291000EF93FF93DF93CF93CDB7DEB78091B601EE
:102920009091B701A091B801B091B9019C01AD019E
:102930002F5F3F4F4F4F5F4F8091AE019091AF019E
:10294000A091B001B091B101281739074A075B0780
:10295000F1F48091A6019091A701009729F0E091F0
:10296000A601F091A70109951092AE011092AF0156
:102970001092B0011092B1018091BE019091BF01FF
:10298000A091C001B091C1010E94831213C0809137
:10299000AE019091AF01A091B001B091B10101964B
:1029A000A11DB11D8093AE019093AF01A093B00122
:1029B000B093B101CF91DF91FF91EF91BF91AF91B2
:1029C0009F918F917F916F915F914F913F912F9147
:1029D0000F900FBE0F901F9018951F920F920FB679
:1029E0000F9211242F933F934F935F936F937F9395
:1029F0008F939F93AF93BF93EF93FF93DF93CF9307
:102A0000CDB7DEB78091B6019091B701A091B80122
:102A1000B091B9019C01AD012F5F3F4F4F4F5F4F08
:102A20008091B2019091B301A091B401B091B50130
:102A3000281739074A075B07F1F48091A2019091AA
:102A4000A301009729F0E091A201F091A30109955B
:102A50001092B2011092B3011092B4011092B5011C
:102A60008091BE019091BF01A091C001B091C101C0
:102A70000E94831213C08091B2019091B301A09182
:102A8000B401B091B5010196A11DB11D8093B201B1
:102A90009093B301A093B401B093B501CF91DF91AE
:102AA000FF91EF91BF91AF919F918F917F916F9126
:102AB0005F914F913F912F910F900FBE0F901F90FC
:102AC0001895EF92FF920F931F93DF93CF93CDB79B
:102AD000DEB7E5970FB6F894DEBF0FBECDBF0E94FC
:102AE0009F0BE2E3F0E08FEF8083EFE4F0E01082F1
:102AF000ECE4F0E011821082E8E5F0E080E280830F
:102B0000EEE4F0E081E48083E8E5F0E08081882F66
:102B100090E0807290700097B9F3E6E4F0E0808175
:102B2000918198A38F8FE8E5F0E080E28083EEE466
:102B3000F0E081E08083E8E5F0E08081882F90E09C
:102B4000807290700097B9F3E6E4F0E080819181A3
:102B50009E8F8D8FE8E5F0E080E28083EEE4F0E088
:102B600081E48083E8E5F0E08081882F90E0807246
:102B700090700097B9F3E6E4F0E0808191819C8F3A
:102B80008B8FE8E5F0E080E28083EEE4F0E01082F5
:102B90002F8D38A18D8D9E8D2817390708F098C08C
:102BA0002D8D3E8D8B8D9C8D2817390708F090C098
:102BB0002D8D3E8D8F8D98A1A901481B590BCA01FF
:102BC0009A8F898F2B8D3C8D8F8D98A1A901481BE1
:102BD000590BCA01988F8F8B8F89988D9C0140E08B
:102BE00050E080E092E1AAE7B0E0BC01CD010E9494
:102BF0000017DA01C9018B8B9C8BAD8BBE8B898D45
:102C00009A8DCC01A0E0B0E0BC01CD010E94A904E6
:102C10007B018C018F89988DCC01A0E0B0E0BC01D4
:102C2000CD010E94A9049B01AC01C801B7010E941B
:102C30001903DC01CB01BC01CD0120E030E048EC00
:102C400052E40E941F02DC01CB018F87988BA98B75
:102C5000BA8B8B899C89AD89BE899E012F5D3F4FC0
:102C6000BC01CD01A9012AE030E00E947A176F85EE
:102C7000788989899A890E945504DC01CB019E01DB
:102C8000215D3F4FB9014AE050E00E94591780E0B2
:102C900060E00E945F0E80E690E00E94860ECE010A
:102CA00081960E94860E87E690E00E94860E81E063
:102CB00060E00E945F0E8FE690E00E94860ECE01DB
:102CC0008F960E94860E86E790E00E94860E06C0D0
:102CD0000E945F0F8FE790E00E94860E80E090E0F8
:102CE000A8E4B2E48B879C87AD87BE876B857C8523
:102CF0008D859E8520E030E04AEF54E40E941F025B
:102D0000DC01CB018F839887A987BA876F8178858B
:102D100089859A8520E030E040E85FE30E94250441
:102D200088232CF481E090E09E838D833FC06F81E7
:102D3000788589859A8520E03FEF4FE757E40E9428
:102D4000C50318164CF56B857C858D859E8520E026
:102D500030E040E251E40E941F02DC01CB01BC01E3
:102D6000CD010E944900DC01CB019E838D830FC001
:102D700088EC90E09C838B838B819C810197F1F799
:102D80009C838B838D819E8101979E838D838D8112
:102D90009E81009769F7A9CE6F81788589859A858C
:102DA0000E944900DC01CB019E838D838D819E8131
:102DB0009A83898389819A810197F1F79A8389831C
:102DC00094CE629FD001739FF001829FE00DF11DB0
:102DD000649FE00DF11D929FF00D839FF00D749F95
:102DE000F00D659FF00D9927729FB00DE11DF91F41
:102DF000639FB00DE11DF91FBD01CF01112408959E
:102E0000A1E21A2EAA1BBB1BFD010DC0AA1FBB1FEE
:102E1000EE1FFF1FA217B307E407F50720F0A21B60
:102E2000B30BE40BF50B661F771F881F991F1A94CD
:102E300069F760957095809590959B01AC01BD01F7
:102E4000CF0108952F923F924F925F926F927F929F
:102E50008F929F92AF92BF92CF92DF92EF92FF92AA
:102E60000F931F93CF93DF93CDB7DEB7CA1BDB0B56
:102E70000FB6F894DEBF0FBECDBF09942A883988FB
:102E800048885F846E847D848C849B84AA84B98402
:102E9000C884DF80EE80FD800C811B81AA81B9810E
:102EA000CE0FD11D0FB6F894DEBF0FBECDBFED0122
:102EB0000895FB019F01E8944230C4F04532B4F418
:102EC0004A3029F497FB1EF4909581959F4F642F0B
:102ED00077270E94BE17805D8A330CF0895D81934D
:102EE000CB010097A1F716F45DE251931082C9015E
:102EF0000C94AE17FA01CF93FF93EF93223044F175
:102F0000253234F5C22FE894CA3049F497FB3EF4D9
:102F100090958095709561957F4F8F4F9F4F2C2F87
:102F2000332744275527FF93EF930E940017EF9113
:102F3000FF91605D6A330CF0695D6193B901CA016C
:102F4000605070408040904051F716F4CDE2C1933C
:102F500010828F919F91CF910C94AE17DC01FC01F0
:102F6000672F71917723E1F7329704C07C916D93BD
:102F700070836291AE17BF07C8F30895AA1BBB1BED
:102F800051E107C0AA1FBB1FA617B70710F0A61B69
:102F9000B70B881F991F5A95A9F780959095BC018A
:082FA000CD010895F894FFCF64
:102FA800467265713A200020487A2020202000448B
:102FB8007574793A20002025202020202020004FF9
:102FC8005554204F462052414E47452121000000CC
:102FD80000000000000000010202030303030404D0
:102FE800040404040404050505050505050505058F
:102FF800050505050505060606060606060606066F
:103008000606060606060606060606060606060658
:10301800060606060606070707070707070707073E
:103028000707070707070707070707070707070728
:103038000707070707070707070707070707070718
:103048000707070707070707070707070707070708
:1030580007070707070708080808080808080808EE
:1030680008080808080808080808080808080808D8
:1030780008080808080808080808080808080808C8
:1030880008080808080808080808080808080808B8
:1030980008080808080808080808080808080808A8
:1030A8000808080808080808080808080808080898
:1030B8000808080808080808080808080808080888
:1030C8000808080808080808080808080808080878
:0630D800080808080808C2
:00000001FF
