:100000000C942A000C9447000C9447000C94470071
:100010000C9447000C9447000C94BC130C94EF1301
:100020000C9463140C94D7140C9447000C94470060
:100030000C9447000C9447000C9447000C94470024
:100040000C9447000C9447000C9447000C94470014
:100050000C94470011241FBECFE5D8E0DEBFCDBF12
:1000600011E0A8E6B1E001C01D92A838B107E1F7A0
:1000700011E0A0E6B0E0E6E0FCE202C005900D92DF
:10008000A836B107D9F70E944B150C9401160C94B1
:100090000000EF92FF920F931F937B018C0120E0F1
:1000A00030E040E05FE40E94F50388238CF0C80153
:1000B000B70120E030E040E05FE40E94C1010E940F
:1000C000B3049B01AC01205030404040504806C072
:1000D000C801B7010E94B3049B01AC01B901CA0178
:1000E0001F910F91FF90EF900895A0E0B0E0EBE733
:1000F000F0E00C94CA15DC012B01FA019C919230BE
:1001000008F439C1EB018881823008F433C194309E
:1001100069F4843009F02FC111969C91119789815F
:10012000981709F428C1A0E6B0E025C1843009F48D
:1001300021C18230A9F4923009F01DC19A01AD01AC
:1001400088E0EA010990AE01E90109929E0181501F
:10015000C1F7E201898111969C918923818308C1AD
:10016000923009F407C112962D903C901397EB0141
:100170008A819B811496AD90BD90CD90DC901797AD
:10018000EC80FD800E811F819101281B390BB90184
:1001900037FF04C066277727621B730B6032710537
:1001A0000CF061C0121613066CF537014801062EDB
:1001B00004C096948794779467940A94D2F721E0C8
:1001C00030E040E050E004C0220F331F441F551FB1
:1001D0006A95D2F721503040404050402E213F21B7
:1001E00040235123211531054105510521F021E01E
:1001F00030E040E050E079018A01E628F72808293C
:1002000019293CC0232BD1F1260E371E350146019A
:10021000062E04C096948794779467940A94D2F734
:1002200021E030E040E050E004C0220F331F441FC3
:10023000551F6A95D2F721503040404050402A2146
:100240003B214C215D21211531054105510521F04E
:1002500021E030E040E050E059016A01A628B728CB
:10026000C828D9280BC0821593052CF01C01AA249C
:10027000BB24650103C0EE24FF24870111969C91E5
:10028000D20111968C91981709F445C0992339F041
:10029000A80197012A193B094C095D0906C0A6016E
:1002A00095012E193F09400B510B57FD08C01182D3
:1002B0003382228224833583468357831DC081E0A5
:1002C00081833382228288279927DC01821B930B4A
:1002D000A40BB50B84839583A683B7830DC0220F2F
:1002E000331F441F551F24833583468357838281E0
:1002F000938101979383828324813581468157813D
:10030000DA01C9010197A109B1098F5F9F4FAF4F72
:10031000BF4328F30BC0918333822282EA0CFB1C7B
:100320000C1D1D1DE482F5820683178383E0808304
:10033000248135814681578157FF1AC0C901AA27F8
:1003400097FDA095BA2F81709070A070B0705695EF
:10035000479537952795822B932BA42BB52B848318
:100360009583A683B7838281938101969383828349
:10037000DF0101C0D201CD01CDB7DEB7E2E10C94BF
:10038000E615A0E2B0E0E7ECF1E00C94D615698345
:100390007A838B839C832D833E834F835887E9E048
:1003A000EE2EF12CEC0EFD1ECE010196B7010E943F
:1003B000A4068E010F5E1F4FCE010596B8010E9464
:1003C000A4068A8991E089278A8BC701B801AE010A
:1003D000475E5F4F0E9475000E94CF05A096E6E041
:1003E0000C94F215A0E2B0E0E8EFF1E00C94D61521
:1003F00069837A838B839C832D833E834F835887C5
:10040000F9E0EF2EF12CEC0EFD1ECE010196B701A6
:100410000E94A4068E010F5E1F4FCE010596B80103
:100420000E94A406C701B801AE01475E5F4F0E945B
:1004300075000E94CF05A096E6E00C94F215A0E2AC
:10044000B0E0E5E2F2E00C94CA1569837A838B830D
:100450009C832D833E834F835887CE010196BE0136
:10046000675F7F4F0E94A406CE010596BE016F5EB6
:100470007F4F0E94A4069985923088F08989823046
:10048000C8F0943019F4823051F404C0843029F457
:10049000923081F480E690E0C6C0923049F420E0CA
:1004A0009A858A89981321E02A87CE010996BBC0D4
:1004B000823049F420E09A858A89981321E02A8BBA
:1004C000CE014196B0C02D843E844F8458886D88FB
:1004D0007E888F88988CEE24FF248701AA24BB2471
:1004E000650140E050E060E070E0E0E0F0E0C10174
:1004F00081709070892BE9F0E60CF71C081D191D1E
:100500009A01AB012A0D3B1D4C1D5D1D80E090E062
:10051000A0E0B0E0E614F7040805190520F481E036
:1005200090E0A0E0B0E0BA01A901480F591F6A1F8E
:100530007B1FAA0CBB1CCC1CDD1C97FE08C081E0F5
:1005400090E0A0E0B0E0A82AB92ACA2ADB2A3196B6
:10055000E032F10549F0660C771C881C991C569412
:10056000479437942794C3CFFA85EA892B893C892D
:100570008B859C85280F391F2E5F3F4F17C0CA01FE
:1005800081709070892B61F016950795F794E79428
:1005900080E090E0A0E0B0E8E82AF92A0A2B1B2BC3
:1005A00076956795579547952F5F3F4F77FDE7CF36
:1005B0000CC0440F551F661F771F17FD4160EE0CDE
:1005C000FF1C001F111F21503040403090E05907A0
:1005D00090E0690790E4790760F32B8F3C8FDB0193
:1005E000CA018F779070A070B07080349105A1051A
:1005F000B10561F447FD0AC0E114F10401051105DC
:1006000029F0405C5F4F6F4F7F4F40781A8EFE1786
:1006100011F081E08A8F4D8F5E8F6F8F78A383E01A
:10062000898FCE0149960E94CF05A096E2E10C94F5
:10063000E615A8E1B0E0EFE1F3E00C94D215698390
:100640007A838B839C832D833E834F835887B9E0C5
:10065000EB2EF12CEC0EFD1ECE010196B7010E948F
:10066000A4068E010F5E1F4FCE010596B8010E94B1
:10067000A4062985223008F47EC03989323010F46E
:10068000B8017CC08A859A8989278A87243011F02D
:10069000223031F4231709F06EC060E670E06EC0BE
:1006A000343039F41D861E861F86188A1C861B86E8
:1006B00004C0323021F484E08987B7015FC02B8504
:1006C0003C858B899C89281B390B3C872B87ED84C3
:1006D000FE840F851889AD88BE88CF88D88CEA142F
:1006E000FB040C051D0540F4EE0CFF1C001F111F40
:1006F000215030403C872B8720E030E040E050E044
:1007000080E090E0A0E0B0E460E070E0EA14FB0478
:100710000C051D0540F0282B392B4A2B5B2BEA18C2
:10072000FB080C091D09B695A79597958795EE0CC2
:10073000FF1C001F111F6F5F7F4F6F31710531F775
:10074000DA01C9018F779070A070B0708034910584
:10075000A105B10561F427FD0AC0E114F10401050A
:10076000110529F0205C3F4F4F4F5F4F20782D87B8
:100770003E874F87588BBE01675F7F4FCB010E943A
:10078000CF056896EAE00C94EE15A8E1B0E0EBEC3A
:10079000F3E00C94D61569837A838B839C832D8335
:1007A0003E834F83588789E0E82EF12CEC0EFD1E26
:1007B000CE010196B7010E94A4068E010F5E1F4F65
:1007C000CE010596B8010E94A4068985823040F0CA
:1007D0008989823028F0C701B8010E941C0701C036
:1007E0008FEF6896E6E00C94F215A8E1B0E0EBEF2D
:1007F000F3E00C94D61569837A838B839C832D83D5
:100800003E834F83588789E0E82EF12CEC0EFD1EC5
:10081000CE010196B7010E94A4068E010F5E1F4F04
:10082000CE010596B8010E94A4068985823040F069
:100830008989823028F0C701B8010E941C0701C0D5
:100840008FEF6896E6E00C94F215A8E1B0E0EBE2D9
:10085000F4E00C94D61569837A838B839C832D8373
:100860003E834F83588789E0E82EF12CEC0EFD1E65
:10087000CE010196B7010E94A4068E010F5E1F4FA4
:10088000CE010596B8010E94A4068985823040F009
:100890008989823028F0C701B8010E941C0701C075
:1008A00081E06896E6E00C94F215A8E0B0E0EBE594
:1008B000F4E00C94D3159B01AC0183E08983DA0149
:1008C000C9018827B7FD83959927AA27BB27B82E8A
:1008D000211531054105510519F482E089833AC09B
:1008E0008823A9F0203080E0380780E0480780E8BE
:1008F000580729F460E070E080E09FEC30C0EE24FF
:10090000FF248701E21AF30A040B150B02C07901D8
:100910008A018EE1C82ED12CDC82CB82ED82FE8250
:100920000F831887C801B7010E9480050197181628
:10093000190684F4082E04C0EE0CFF1C001F111FC2
:100940000A94D2F7ED82FE820F831887C81AD90A5B
:10095000DC82CB82BA82CE0101960E94CF05289616
:10096000E9E00C94EF15ACE0B0E0E9EBF4E00C94B6
:10097000DA1569837A838B839C83CE010196BE014D
:100980006B5F7F4F0E94A4068D81823061F18230BF
:1009900050F1843021F48E81882351F12EC02F81B3
:1009A000388537FD20C06E812F3131051CF066235C
:1009B000F9F023C08EE190E0821B930B29853A85E4
:1009C0004B855C8504C056954795379527958A9544
:1009D000D2F76623B1F050954095309521953F4F61
:1009E0004F4F5F4F0EC020E030E040E050E009C0C4
:1009F0002FEF3FEF4FEF5FE704C020E030E040E033
:100A000050E8B901CA012C96E2E00C94F615A8E072
:100A1000B0E0EDE0F5E00C94D2157B018C0161159E
:100A200071058105910519F482E0898360C083E036
:100A300089838EE1C82ED12CDC82CB82ED82FE82AE
:100A40000F831887C801B7010E948005FC01319708
:100A5000F7FF3BC0222733272E1B3F0B57016801AE
:100A6000022E04C0D694C794B794A7940A94D2F7E0
:100A700040E050E060E070E081E090E0A0E0B0E0B5
:100A800004C0880F991FAA1FBB1F2A95D2F7019790
:100A9000A109B1098E219F21A023B1230097A105AF
:100AA000B10521F041E050E060E070E04A295B29A7
:100AB0006C297D294D835E836F8378878EE190E07A
:100AC0008E1B9F0B9C838B8312C0309781F00E2E60
:100AD00004C0EE0CFF1C001F111F0A94D2F7ED8218
:100AE000FE820F831887CE1ADF0ADC82CB821A823D
:100AF000CE0101960E94CF052896EAE00C94EE15EF
:100B0000EF92FF920F931F937B018C0180E0E81618
:100B100080E0F80681E0080780E0180788F48FEF8E
:100B2000E816F1040105110531F028F088E090E0A5
:100B3000A0E0B0E017C080E090E0A0E0B0E012C01C
:100B400080E0E81680E0F80680E0080781E01807FA
:100B500028F088E190E0A0E0B0E004C080E190E0FF
:100B6000A0E0B0E020E230E040E050E0281B390B8C
:100B70004A0B5B0B04C016950795F794E7948A958A
:100B8000D2F7F701E859FF4F8081281B310941094D
:100B90005109C9011F910F91FF90EF900895DF92C5
:100BA000EF92FF920F931F93FC01E480F580068182
:100BB0001781D1808081823048F480E090E0A0E10C
:100BC000B0E0E82AF92A0A2B1B2BA5C0843009F4CF
:100BD0009FC0823021F4EE24FF24870105C0E11478
:100BE000F1040105110519F4E0E0F0E096C062811E
:100BF00073819FEF623879070CF05BC022E83FEF0A
:100C0000261B370B2A3131052CF020E030E040E084
:100C100050E02AC0B801A701022E04C0769567955E
:100C2000579547950A94D2F781E090E0A0E0B0E0B4
:100C300004C0880F991FAA1FBB1F2A95D2F70197DE
:100C4000A109B1098E219F21A023B1230097A105FD
:100C5000B10521F081E090E0A0E0B0E09A01AB01A5
:100C6000282B392B4A2B5B2BDA01C9018F77907027
:100C7000A070B07080349105A105B10539F427FF4B
:100C800009C0205C3F4F4F4F5F4F04C0215C3F4F76
:100C90004F4F5F4FE0E0F0E02030A0E03A07A0E0E7
:100CA0004A07A0E45A0710F0E1E0F0E079018A0178
:100CB00027C06038710564F5FB01E158FF4FD8018A
:100CC000C7018F779070A070B07080349105A10536
:100CD000B10539F4E7FE0DC080E490E0A0E0B0E09B
:100CE00004C08FE390E0A0E0B0E0E80EF91E0A1F18
:100CF0001B1F17FF05C016950795F794E7943196CB
:100D000087E016950795F794E7948A95D1F705C083
:100D1000EE24FF248701EFEFF0E06E2F6795662742
:100D20006795902F9F77D794DD24D7948E2F869543
:100D3000492F462B582F5D29B701CA011F910F91EA
:100D4000FF90EF90DF900895FC01DB01408151811D
:100D50002281622F6F7770E0221F2227221F93814A
:100D6000892F880F822B282F30E0991F9927991FF0
:100D700011969C93119721153105A9F5411551053F
:100D80006105710511F482E037C082E89FEF139688
:100D90009C938E9312979A01AB0167E0220F331F49
:100DA000441F551F6A95D1F783E08C930DC0220F25
:100DB000331F441F551F12968D919C9113970197D5
:100DC00013969C938E931297203080E0380780E032
:100DD000480780E4580758F314962D933D934D939C
:100DE0005C93179708952F3F310579F4411551050C
:100DF0006105710519F484E08C93089564FF03C0C4
:100E000081E08C9312C01C9210C02F573040139673
:100E10003C932E93129783E08C9387E0440F551FE9
:100E2000661F771F8A95D1F7706414964D935D9372
:100E30006D937C93179708951F93DC01FB019C91A0
:100E4000923008F447C08081823008F443C0943067
:100E500051F411961C91843099F58181682F70E0CE
:100E6000611B71093FC0843021F0923031F482302F
:100E7000B9F18181882389F12DC011961C911197B8
:100E80008230F1F081811817D9F412962D913C919E
:100E90001397828193818217930794F0281739075B
:100EA000BCF014968D919D910D90BC91A02D248144
:100EB000358146815781281739074A075B0718F49F
:100EC000112341F00AC082179307A407B50740F425
:100ED000112319F061E070E005C06FEF7FEF02C0F1
:100EE00060E070E0CB011F910895DF93CF9300D0B5
:100EF0000F92CDB7DEB78983A7E2B0E0E7E2F0E07A
:100F000080818F778C93A7E2B0E0E7E2F0E0808108
:100F100080648C93A7E2B0E0E7E2F0E080818F7D0F
:100F20008C938981282F30E03B832A838A819B819F
:100F30008330910509F49BC02A813B81243031051F
:100F40008CF48A819B818130910509F448C02A8103
:100F50003B81223031050CF066C08A819B8100976D
:100F6000D1F038C12A813B812530310509F4C7C051
:100F70008A819B81853091050CF49DC02A813B813B
:100F80002630310509F4DFC08A819B8187309105C5
:100F900009F4FDC01FC1A7E2B0E0E7E2F0E0808104
:100FA0008F7E8C93A7E2B0E0E7E2F0E08081877F5C
:100FB0008C93A7E2B0E0E7E2F0E080818B7F8C9336
:100FC000A7E2B0E0E7E2F0E080818D7F8C93A7E2BA
:100FD000B0E0E7E2F0E080818E7F8C93FBC0A7E277
:100FE000B0E0E7E2F0E080818F7E8C93A7E2B0E092
:100FF000E7E2F0E08081877F8C93A7E2B0E0E7E250
:10100000F0E080818B7F8C93A7E2B0E0E7E2F0E034
:1010100080818D7F8C93A7E2B0E0E7E2F0E08081F1
:1010200081608C93D7C0A7E2B0E0E7E2F0E0808176
:101030008F7E8C93A7E2B0E0E7E2F0E08081877FCB
:101040008C93A7E2B0E0E7E2F0E080818B7F8C93A5
:10105000A7E2B0E0E7E2F0E0808182608C93A7E253
:10106000B0E0E7E2F0E080818E7F8C93B3C0A7E22E
:10107000B0E0E7E2F0E080818F7E8C93A7E2B0E001
:10108000E7E2F0E08081877F8C93A7E2B0E0E7E2BF
:10109000F0E080818B7F8C93A7E2B0E0E7E2F0E0A4
:1010A000808182608C93A7E2B0E0E7E2F0E080818B
:1010B00081608C938FC0A7E2B0E0E7E2F0E080812E
:1010C0008F7E8C93A7E2B0E0E7E2F0E08081877F3B
:1010D0008C93A7E2B0E0E7E2F0E0808184608C933B
:1010E000A7E2B0E0E7E2F0E080818D7F8C93A7E299
:1010F000B0E0E7E2F0E080818E7F8C936BC0A7E2E6
:10110000B0E0E7E2F0E080818F7E8C93A7E2B0E070
:10111000E7E2F0E08081877F8C93A7E2B0E0E7E22E
:10112000F0E0808184608C93A7E2B0E0E7E2F0E039
:1011300080818D7F8C93A7E2B0E0E7E2F0E08081D0
:1011400081608C9347C0A7E2B0E0E7E2F0E08081E5
:101150008F7E8C93A7E2B0E0E7E2F0E08081877FAA
:101160008C93A7E2B0E0E7E2F0E0808184608C93AA
:10117000A7E2B0E0E7E2F0E0808182608C93A7E232
:10118000B0E0E7E2F0E080818E7F8C9323C0A7E29D
:10119000B0E0E7E2F0E080818F7E8C93A7E2B0E0E0
:1011A000E7E2F0E08081877F8C93A7E2B0E0E7E29E
:1011B000F0E0808184608C93A7E2B0E0E7E2F0E0A9
:1011C000808182608C93A7E2B0E0E7E2F0E080816A
:1011D00081608C93A6E2B0E0E6E2F0E080818E7F51
:1011E0008C93A6E2B0E0E6E2F0E0808182608C932E
:1011F000A6E2B0E0E6E2F0E0808184608C93A6E2B3
:10120000B0E0E6E2F0E0808180688C93A6E2B0E096
:10121000E6E2F0E0808180648C930F900F900F9055
:10122000CF91DF910895DF93CF93CDB7DEB7A6E2DC
:10123000B0E0E6E2F0E0808180648C93E4E2F0E0EC
:1012400080819181CF91DF910895DF93CF93CDB7C6
:10125000DEB727970FB6F894DEBF0FBECDBF8983E8
:101260006A834B838B81813009F06FC08981282F7D
:1012700030E03F832E838E819F818130910549F13B
:101280002E813F81223031052CF48E819F81009781
:1012900061F0D2C02E813F812230310571F18E8103
:1012A0009F8183309105E9F1C7C0AAE3B0E0EAE38A
:1012B000F0E08081482F8A81282F30E081E090E0A3
:1012C000022E02C0880F991F0A94E2F7842B8C9398
:1012D000B3C0A7E3B0E0E7E3F0E08081482F8A8164
:1012E000282F30E081E090E0022E02C0880F991F85
:1012F0000A94E2F7842B8C939FC0A4E3B0E0E4E36C
:10130000F0E08081482F8A81282F30E081E090E052
:10131000022E02C0880F991F0A94E2F7842B8C9347
:101320008BC0A1E3B0E0E1E3F0E08081482F8A8147
:10133000282F30E081E090E0022E02C0880F991F34
:101340000A94E2F7842B8C9377C08B81882309F071
:1013500073C08981282F30E03D832C838C819D814F
:101360008130910559F12C813D81223031052CF4D9
:101370008C819D81009769F05FC02C813D81223076
:10138000310589F18C819D818330910509F440C03C
:1013900053C0AAE3B0E0EAE3F0E08081482F8A81FD
:1013A000282F30E081E090E0022E02C0880F991FC4
:1013B0000A94E2F7809584238C933EC0A7E3B0E0C3
:1013C000E7E3F0E08081482F8A81282F30E081E038
:1013D00090E0022E02C0880F991F0A94E2F78095D0
:1013E00084238C9329C0A4E3B0E0E4E3F0E080819F
:1013F000482F8A81282F30E081E090E0022E02C041
:10140000880F991F0A94E2F7809584238C9314C067
:10141000A1E3B0E0E1E3F0E08081482F8A81282F4A
:1014200030E081E090E0022E02C0880F991F0A94FC
:10143000E2F7809584238C9327960FB6F894DEBF4D
:101440000FBECDBFCF91DF910895DF93CF93CDB77E
:10145000DEB727970FB6F894DEBF0FBECDBF8983E6
:101460006A834B838B81813009F06FC08981282F7B
:1014700030E03F832E838E819F818130910549F139
:101480002E813F81223031052CF48E819F8100977F
:1014900061F0D2C02E813F812230310571F18E8101
:1014A0009F8183309105E9F1C7C0ABE3B0E0EBE386
:1014B000F0E08081482F8A81282F30E081E090E0A1
:1014C000022E02C0880F991F0A94E2F7842B8C9396
:1014D000B3C0A8E3B0E0E8E3F0E08081482F8A8160
:1014E000282F30E081E090E0022E02C0880F991F83
:1014F0000A94E2F7842B8C939FC0A5E3B0E0E5E368
:10150000F0E08081482F8A81282F30E081E090E050
:10151000022E02C0880F991F0A94E2F7842B8C9345
:101520008BC0A2E3B0E0E2E3F0E08081482F8A8143
:10153000282F30E081E090E0022E02C0880F991F32
:101540000A94E2F7842B8C9377C08B81882309F06F
:1015500073C08981282F30E03D832C838C819D814D
:101560008130910559F12C813D81223031052CF4D7
:101570008C819D81009769F05FC02C813D81223074
:10158000310589F18C819D818330910509F440C03A
:1015900053C0ABE3B0E0EBE3F0E08081482F8A81F9
:1015A000282F30E081E090E0022E02C0880F991FC2
:1015B0000A94E2F7809584238C933EC0A8E3B0E0C0
:1015C000E8E3F0E08081482F8A81282F30E081E035
:1015D00090E0022E02C0880F991F0A94E2F78095CE
:1015E00084238C9329C0A5E3B0E0E5E3F0E080819B
:1015F000482F8A81282F30E081E090E0022E02C03F
:10160000880F991F0A94E2F7809584238C9314C065
:10161000A2E3B0E0E2E3F0E08081482F8A81282F46
:1016200030E081E090E0022E02C0880F991F0A94FA
:10163000E2F7809584238C9327960FB6F894DEBF4B
:101640000FBECDBFCF91DF910895DF93CF9300D030
:1016500000D0CDB7DEB789836A838981282F30E037
:101660003C832B838B819C8181309105D1F02B8130
:101670003C81223031052CF48B819C81009761F0F4
:101680001EC02B813C812230310581F08B819C81F1
:101690008330910581F013C0EAE3F0E08A81808312
:1016A0000EC0E7E3F0E08A81808309C0E4E3F0E064
:1016B0008A81808304C0E1E3F0E08A8180830F9017
:1016C0000F900F900F90CF91DF910895DF93CF93FC
:1016D00000D00F92CDB7DEB789838981282F30E003
:1016E0003B832A838A819B8181309105C9F02A81BD
:1016F0003B81223031052CF48A819B81009761F077
:101700001AC02A813B812230310571F08A819B8188
:101710008330910569F00FC0EAE3F0E010820BC05E
:10172000E7E3F0E0108207C0E4E3F0E0108203C0DA
:10173000E1E3F0E010820F900F900F90CF91DF91D6
:101740000895DF93CF9300D00F92CDB7DEB7898392
:101750008981282F30E03B832A838A819B818130D5
:101760009105D1F02A813B81223031052CF48A8108
:101770009B81009761F01EC02A813B812230310598
:1017800081F08A819B818330910581F013C0EAE367
:10179000F0E08FEF80830EC0E7E3F0E08FEF80830F
:1017A00009C0E4E3F0E08FEF808304C0E1E3F0E000
:1017B0008FEF80830F900F900F90CF91DF9108955E
:1017C000DF93CF9300D000D0CDB7DEB789836A8393
:1017D0008981282F30E03C832B838B819C81813051
:1017E0009105D1F02B813C81223031052CF48B8185
:1017F0009C81009761F01EC02B813C812230310515
:1018000081F08B819C818330910581F013C0EBE3E3
:10181000F0E08A8180830EC0E8E3F0E08A81808373
:1018200009C0E5E3F0E08A81808304C0E2E3F0E0F0
:101830008A8180830F900F900F900F90CF91DF914E
:101840000895DF93CF9300D00F92CDB7DEB7898391
:101850008981282F30E03B832A838A819B818130D4
:101860009105C9F02A813B81223031052CF48A810F
:101870009B81009761F01AC02A813B81223031059B
:1018800071F08A819B818330910569F00FC0EBE391
:10189000F0E010820BC0E8E3F0E0108207C0E5E35F
:1018A000F0E0108203C0E2E3F0E010820F900F90AE
:1018B0000F90CF91DF910895DF93CF9300D00F92D7
:1018C000CDB7DEB789838981282F30E03B832A8317
:1018D0008A819B8181309105D1F02A813B81223020
:1018E00031052CF48A819B81009761F01EC02A810A
:1018F0003B812230310581F08A819B8183309105C3
:1019000081F013C0EBE3F0E08FEF80830EC0E8E3DB
:10191000F0E08FEF808309C0E5E3F0E08FEF808394
:1019200004C0E2E3F0E08FEF80830F900F900F9000
:10193000CF91DF910895DF93CF9300D000D00F9225
:10194000CDB7DEB78A836B838A81282F30E03D8351
:101950002C834C815D814130510541F18C819D8109
:101960008230910534F42C813D812115310561F0DF
:1019700052C04C815D814230510551F18C819D8175
:1019800083309105B9F147C0E9E3F0E08081282F69
:1019900030E08B81882F90E0A90102C055954795D2
:1019A0008A95E2F7CA018170898335C0E6E3F0E0E9
:1019B0008081282F30E08B81882F90E0A90102C020
:1019C000559547958A95E2F7CA018170898323C0AE
:1019D000E3E3F0E08081282F30E08B81882F90E0D6
:1019E000A90102C0559547958A95E2F7CA01817011
:1019F000898311C0E0E3F0E08081282F30E08B8103
:101A0000882F90E0A90102C0559547958A95E2F785
:101A1000CA018170898389810F900F900F900F9078
:101A20000F90CF91DF910895DF93CF9300D000D036
:101A3000CDB7DEB789836A838981282F30E03C8364
:101A40002B838B819C818130910549F12B813C81D5
:101A5000223031052CF48B819C81009761F05AC0B3
:101A60002B813C812230310571F18B819C81833047
:101A70009105E9F14FC0ABE3B0E0EBE3F0E080812A
:101A8000482F8A81282F30E081E090E0022E02C0AA
:101A9000880F991F0A94E2F784278C933BC0A8E330
:101AA000B0E0E8E3F0E08081482F8A81282F30E021
:101AB00081E090E0022E02C0880F991F0A94E2F79D
:101AC00084278C9327C0A5E3B0E0E5E3F0E08081B4
:101AD000482F8A81282F30E081E090E0022E02C05A
:101AE000880F991F0A94E2F784278C9313C0A2E30E
:101AF000B0E0E2E3F0E08081482F8A81282F30E0D7
:101B000081E090E0022E02C0880F991F0A94E2F74C
:101B100084278C930F900F900F900F90CF91DF91AF
:101B20000895DF93CF93CDB7DEB7AA970FB6F89499
:101B3000DEBF0FBECDBF80E00E94A10B81E060E060
:101B400041E00E94250981E061E041E00E94250911
:101B500081E062E041E00E94250980E090E0A0EF92
:101B6000B1E48FA398A7A9A7BAA76FA178A589A563
:101B70009AA520E030E04AEF54E40E941F02DC0105
:101B8000CB018BA39CA3ADA3BEA36BA17CA18DA114
:101B90009EA120E030E040E85FE30E942504882316
:101BA0002CF481E090E09AA389A33FC06BA17CA1B3
:101BB0008DA19EA120E03FEF4FE757E40E94C503AF
:101BC00018164CF56FA178A589A59AA520E030E0FC
:101BD00040E251E40E941F02DC01CB01BC01CD01B7
:101BE0000E944900DC01CB019AA389A30FC088ECB5
:101BF00090E098A38F8F8F8D98A10197F1F798A30C
:101C00008F8F89A19AA101979AA389A389A19AA1EB
:101C1000009769F714C06BA17CA18DA19EA10E94C1
:101C20004900DC01CB019AA389A389A19AA19E8FC7
:101C30008D8F8D8D9E8D0197F1F79E8F8D8F88E30F
:101C40000E94150F80E090E0A0E0B0E4898F9A8FA9
:101C5000AB8FBC8F698D7A8D8B8D9C8D20E030E0B1
:101C60004AEF54E40E941F02DC01CB018D8B9E8B56
:101C7000AF8BB88F6D897E898F89988D20E030E099
:101C800040E85FE30E94250488232CF481E090E083
:101C90009C8B8B8B3FC06D897E898F89988D20E0CE
:101CA0003FEF4FE757E40E94C50318164CF5698DC6
:101CB0007A8D8B8D9C8D20E030E040E251E40E94D3
:101CC0001F02DC01CB01BC01CD010E944900DC01F7
:101CD000CB019C8B8B8B0FC088EC90E09A8B898B0F
:101CE00089899A890197F1F79A8B898B8B899C89CD
:101CF00001979C8B8B8B8B899C89009769F714C00B
:101D00006D897E898F89988D0E944900DC01CB0105
:101D10009C8B8B8B8B899C89988B8F878F859889DF
:101D20000197F1F7988B8F878CE00E94150F80E068
:101D300090E0A0E0B0E48B879C87AD87BE876B8581
:101D40007C858D859E8520E030E04AEF54E40E943A
:101D50001F02DC01CB018F839887A987BA876F8127
:101D6000788589859A8520E030E040E85FE30E942D
:101D7000250488232CF481E090E09E838D833FC06E
:101D80006F81788589859A8520E03FEF4FE757E49A
:101D90000E94C50318164CF56B857C858D859E8544
:101DA00020E030E040E251E40E941F02DC01CB0160
:101DB000BC01CD010E944900DC01CB019E838D83D3
:101DC0000FC088EC90E09C838B838B819C81019772
:101DD000F1F79C838B838D819E8101979E838D83F8
:101DE0008D819E81009769F714C06F817885898500
:101DF0009A850E944900DC01CB019E838D838D81F1
:101E00009E819A83898389819A810197F1F79A83C8
:101E1000898381E00E94150FAA960FB6F894DEBF61
:101E20000FBECDBFCF91DF910895DF93CF93CDB794
:101E3000DEB72F970FB6F894DEBF0FBECDBF8F87EA
:101E400081E060E040E00E94250A81E061E040E03E
:101E50000E94250A80E06F850E94E00B81E062E02D
:101E600041E00E94250A80E090E0A0E0B0E48B878A
:101E70009C87AD87BE876B857C858D859E8520E0A0
:101E800030E04AEF54E40E941F02DC01CB018F8353
:101E90009887A987BA876F81788589859A8520E098
:101EA00030E040E85FE30E94250488232CF481E0C1
:101EB00090E09E838D833FC06F81788589859A8568
:101EC00020E03FEF4FE757E40E94C50318164CF59A
:101ED0006B857C858D859E8520E030E040E251E475
:101EE0000E941F02DC01CB01BC01CD010E94490010
:101EF000DC01CB019E838D830FC088EC90E09C8336
:101F00008B838B819C810197F1F79C838B838D81DF
:101F10009E8101979E838D838D819E81009769F7B5
:101F200014C06F81788589859A850E944900DC01FB
:101F3000CB019E838D838D819E819A838983898144
:101F40009A810197F1F79A83898381E062E040E00A
:101F50000E94250A2F960FB6F894DEBF0FBECDBFA4
:101F6000CF91DF910895DF93CF93CDB7DEB72F9751
:101F70000FB6F894DEBF0FBECDBF8F8781E060E063
:101F800041E00E94250A81E061E040E00E94250ACC
:101F900080E06F850E94E00B81E062E041E00E94FA
:101FA000250A80E090E0A0E0B0E48B879C87AD87B5
:101FB000BE876B857C858D859E8520E030E04AEF6D
:101FC00054E40E941F02DC01CB018F839887A9870C
:101FD000BA876F81788589859A8520E030E040E86E
:101FE0005FE30E94250488232CF481E090E09E8327
:101FF0008D833FC06F81788589859A8520E03FEF8A
:102000004FE757E40E94C50318164CF56B857C8595
:102010008D859E8520E030E040E251E40E941F0261
:10202000DC01CB01BC01CD010E944900DC01CB01E8
:102030009E838D830FC088EC90E09C838B838B8183
:102040009C810197F1F79C838B838D819E81019701
:102050009E838D838D819E81009769F714C06F8167
:10206000788589859A850E944900DC01CB019E8391
:102070008D838D819E819A83898389819A8101973D
:10208000F1F79A83898381E062E040E00E94250AAB
:102090002F960FB6F894DEBF0FBECDBFCF91DF9164
:1020A0000895DF93CF9300D000D0CDB7DEB78983FA
:1020B0006A838981282F30E03C832B838B819C812C
:1020C000009731F02B813C812130310531F009C07E
:1020D0008A8180580E94150F04C08A8180540E9412
:1020E000150F0F900F900F900F90CF91DF910895E3
:1020F000DF93CF9300D00F92CDB7DEB79B838A8357
:1021000019820EC08981282F30E08A819B81FC01D1
:10211000E20FF31F80810E94B30F89818F5F898353
:102120008981282F30E08A819B81FC01E20FF31F17
:102130008081882339F70F900F900F90CF91DF9116
:1021400008950F931F93DF93CF93CDB7DEB76097BA
:102150000FB6F894DEBF0FBECDBF6D877E878F8729
:10216000988B1A828D859E85AF85B8890097A105C9
:10217000B10589F580E30E94B30F4DC08A81082F15
:1021800010E08D859E85AF85B8892AE030E040E07B
:1021900050E0BC01CD010E94A815DC01CB01282F25
:1021A000CE010396FC01E00FF11F20838D859E85F3
:1021B000AF85B8892AE030E040E050E0BC01CD01B5
:1021C0000E94A815DA01C9018D879E87AF87B88B59
:1021D0008A818F5F8A838D859E85AF85B8890097B8
:1021E000A105B10559F68A81898312C08981882F9A
:1021F00090E09C0121503040CE010396FC01E20F9B
:10220000F31F8081805D0E94B30F89818150898393
:102210008981882359F760960FB6F894DEBF0FBE08
:10222000CDBFCF91DF911F910F910895DF93CF9391
:1022300000D000D000D0CDB7DEB79B838A836C83FB
:102240004D832E838C81882F90E00896880F991FEC
:10225000880F991F880F991F0E94150F19820EC0B1
:102260008981282F30E08A819B81FC01E20FF31FD6
:1022700080810E94B30F89818F5F89838981883033
:1022800078F38D816E810E9451108C810E94B30F72
:1022900026960FB6F894DEBF0FBECDBFCF91DF916B
:1022A0000895DF93CF93CDB7DEB781E00E94150F7D
:1022B000CF91DF910895DF93CF93CDB7DEB7299704
:1022C0000FB6F894DEBF0FBECDBF89870E94AC1158
:1022D00080E29EE40E9450128CE197ECA1EBB0E406
:1022E00089839A83AB83BC838985882F90E0AA2752
:1022F00097FDA095BA2FBC01CD010E945504DC01C9
:10230000CB01BC01CD0129813A814B815C810E94C6
:102310001F02DC01CB01BC01CD0120E030EC49E71C
:1023200054E40E94F201DC01CB01BC01CD010E940A
:102330004900DC01CB018D839E83AF83B8878D81FB
:102340009E810E943E1229960FB6F894DEBF0FBE02
:10235000CDBFCF91DF910895DF93CF93CDB7DEB797
:10236000AEE4B0E0EEE4F0E080818E7F8C93AEE4EA
:10237000B0E0EEE4F0E0808182608C93AEE4B0E007
:10238000EEE4F0E080818B7F8C9388E090E0A0E029
:10239000B0E08093800190938101A0938201B0937B
:1023A0008301AFE4B0E0EFE4F0E080818F7B8C93B9
:1023B000AFE4B0E0EFE4F0E080818F778C93AFE49E
:1023C000B0E0EFE4F0E080818E7F8C93AFE4B0E08A
:1023D000EFE4F0E080818D7F8C93AEE4B0E0EEE43A
:1023E000F0E08081877F8C93AEE4B0E0EEE4F0E033
:1023F00080818F7E8C93A9E5B0E0E9E5F0E08081F3
:1024000084608C93CF91DF910895DF93CF93CDB704
:10241000DEB7A9E5B0E0E9E5F0E0808180628C9369
:10242000CF91DF910895DF93CF9300D00F92CDB776
:10243000DEB789838981282F30E03B832A838A8114
:102440009B81009731F02A813B812130310549F091
:102450000FC0AEE4B0E0EEE4F0E0808180648C93E5
:1024600007C0AEE4B0E0EEE4F0E080818F7B8C93B7
:102470000F900F900F90CF91DF910895DF93CF933E
:1024800000D0CDB7DEB79A838983EAE4F0E0898192
:102490009A81918380830F900F90CF91DF9108955F
:1024A000DF93CF9300D0CDB7DEB79A838983E6E47C
:1024B000F0E089819A81918380830F900F90CF9172
:1024C000DF910895DF93CF93CDB7DEB7E6E4F0E078
:1024D00080819181CF91DF910895DF93CF9300D0D8
:1024E000CDB7DEB79A838983ECE4F0E089819A81E5
:1024F000918380830F900F90CF91DF910895EF9299
:10250000FF920F931F93DF93CF93CDB7DEB76897FA
:102510000FB6F894DEBF0FBECDBF6D8B7E8B8F8B59
:10252000988F8FEF9FEFA0E0B0E0898B9A8BAB8BF9
:10253000BC8B2091800130918101409182015091AA
:10254000830180E092E1AAE7B0E0BC01CD010E94E6
:10255000A815DA01C9018D879E87AF87B88B80E403
:1025600092E4AFE0B0E02D853E854F855889BC01EF
:10257000CD010E94A815DA01C901BC01CD010E945C
:102580000705DC01CB0189879A87AB87BC876989FE
:102590007A898B899C890E940705DC01CB01BC01EB
:1025A000CD0129853A854B855C850E941F02DC019F
:1025B000CB01BC01CD010E944900DC01CB018D8320
:1025C0009E83AF83B8878D899E89AF89B88D28EEA9
:1025D00033E040E050E0BC01CD010E948915DC01F0
:1025E000CB012D813E814F815885BC01CD010E94D8
:1025F000A815DA01C90180937C0190937D01A09315
:102600007E01B0937F018D899E89AF89B88D28EEB8
:1026100033E040E050E0BC01CD010E948915DC01AF
:10262000CB012D813E814F815885BC01CD010E9497
:10263000A815DC01CB01BC01CD010E9407057B017F
:102640008C016D817E818F8198850E9407059B0199
:10265000AC01C801B7010E941903DC01CB018983D9
:102660009A83AB83BC8360E070E080E89FE32981BC
:102670003A814B815C810E94C101DC01CB017C016C
:102680008D0169897A898B899C890E9407059B0144
:10269000AC01C801B7010E941F02DC01CB01BC01E3
:1026A000CD010E944900DC01CB018093840190930D
:1026B0008501A0938601B093870180918401909158
:1026C0008501A0918601B09187010E946D126896E4
:1026D0000FB6F894DEBF0FBECDBFCF91DF911F9133
:1026E0000F91FF90EF900895DF93CF9300D0CDB777
:1026F000DEB79A83898389819A8190936F01809351
:102700006E010F900F90CF91DF910895DF93CF93DB
:1027100000D0CDB7DEB79A83898389819A8190935F
:102720006B0180936A010F900F90CF91DF91089514
:10273000DF93CF9300D0CDB7DEB79A8389838981A9
:102740009A8190936D0180936C010F900F90CF91BF
:10275000DF910895DF93CF9300D0CDB7DEB79A8392
:10276000898389819A8190936901809368010F9090
:102770000F90CF91DF9108951F920F920FB60F9295
:1027800011242F933F934F935F936F937F938F9376
:102790009F93AF93BF93EF93FF93DF93CF93CDB707
:1027A000DEB780916E0190916F01009729F0E09162
:1027B0006E01F0916F010995CF91DF91FF91EF913B
:1027C000BF91AF919F918F917F916F915F914F9149
:1027D0003F912F910F900FBE0F901F9018951F9251
:1027E0000F920FB60F9211242F933F934F935F9345
:1027F0006F937F938F939F93AF93BF93EF93FF93C9
:10280000DF93CF93CDB7DEB780917C0190917D01AE
:10281000A0917E01B0917F019C01AD012F5F3F4FE0
:102820004F4F5F4F8091700190917101A0917201A3
:10283000B0917301281739074A075B07F1F48091BB
:102840006A0190916B01009729F0E0916A01F09183
:102850006B01099510927001109271011092720132
:10286000109273018091840190918501A09186015D
:10287000B09187010E946D1213C0809170019091F8
:102880007101A0917201B09173010196A11DB11D5A
:102890008093700190937101A0937201B0937301C2
:1028A000CF91DF91FF91EF91BF91AF919F918F9168
:1028B0007F916F915F914F913F912F910F900FBE3C
:1028C0000F901F9018951F920F920FB60F92112420
:1028D0002F933F934F935F936F937F938F939F9328
:1028E000AF93BF93EF93FF93DF93CF93CDB7DEB753
:1028F00080917C0190917D01A0917E01B0917F013A
:102900009C01AD012F5F3F4F4F4F5F4F809174018E
:1029100090917501A0917601B09177012817390740
:102920004A075B07F1F480916C0190916D0100976B
:1029300029F0E0916C01F0916D01099510927401FC
:1029400010927501109276011092770180918401A6
:1029500090918501A0918601B09187010E946D122E
:1029600013C08091740190917501A0917601B0918E
:1029700077010196A11DB11D80937401909375019B
:10298000A0937601B0937701CF91DF91FF91EF9102
:10299000BF91AF919F918F917F916F915F914F9177
:1029A0003F912F910F900FBE0F901F9018951F927F
:1029B0000F920FB60F9211242F933F934F935F9373
:1029C0006F937F938F939F93AF93BF93EF93FF93F7
:1029D000DF93CF93CDB7DEB780917C0190917D01DD
:1029E000A0917E01B0917F019C01AD012F5F3F4F0F
:1029F0004F4F5F4F8091780190917901A0917A01BA
:102A0000B0917B01281739074A075B07F1F48091E1
:102A1000680190916901009729F0E0916801F091B7
:102A200069010995109278011092790110927A014A
:102A300010927B018091840190918501A091860183
:102A4000B09187010E946D1213C08091780190911E
:102A50007901A0917A01B0917B010196A11DB11D70
:102A60008093780190937901A0937A01B0937B01D0
:102A7000CF91DF91FF91EF91BF91AF919F918F9196
:102A80007F916F915F914F913F912F910F900FBE6A
:102A90000F901F901895DF93CF93CDB7DEB7279790
:102AA0000FB6F894DEBF0FBECDBF83E065E041E016
:102AB0000E94250980E00E9475078BE09DE2A4E357
:102AC000BEE389839A83AB83BC830E9413099F83EF
:102AD0008E838E819F81CC01A0E0B0E0BC01CD014E
:102AE0000E940705DC01CB01BC01CD0129813A819F
:102AF0004B815C810E941F02DC01CB01BC01CD0136
:102B00000E944900DC01CB018D838D810E945B1105
:102B1000DCCF629FD001739FF001829FE00DF11D19
:102B2000649FE00DF11D929FF00D839FF00D749F47
:102B3000F00D659FF00D9927729FB00DE11DF91FF3
:102B4000639FB00DE11DF91FBD01CF011124089550
:102B5000A1E21A2EAA1BBB1BFD010DC0AA1FBB1FA1
:102B6000EE1FFF1FA217B307E407F50720F0A21B13
:102B7000B30BE40BF50B661F771F881F991F1A9480
:102B800069F760957095809590959B01AC01BD01AA
:102B9000CF0108952F923F924F925F926F927F9252
:102BA0008F929F92AF92BF92CF92DF92EF92FF925D
:102BB0000F931F93CF93DF93CDB7DEB7CA1BDB0B09
:102BC0000FB6F894DEBF0FBECDBF09942A883988AE
:102BD00048885F846E847D848C849B84AA84B984B5
:102BE000C884DF80EE80FD800C811B81AA81B981C1
:102BF000CE0FD11D0FB6F894DEBF0FBECDBFED01D5
:062C00000895F894FFCFD7
:102C060000000000000000000001020203030303AD
:102C16000404040404040404050505050505050566
:102C26000505050505050505060606060606060646
:102C3600060606060606060606060606060606062E
:102C46000606060606060606070707070707070716
:102C560007070707070707070707070707070707FE
:102C660007070707070707070707070707070707EE
:102C760007070707070707070707070707070707DE
:102C860007070707070707070808080808080808C6
:102C960008080808080808080808080808080808AE
:102CA600080808080808080808080808080808089E
:102CB600080808080808080808080808080808088E
:102CC600080808080808080808080808080808087E
:102CD600080808080808080808080808080808086E
:102CE600080808080808080808080808080808085E
:102CF600080808080808080808080808080808084E
:082D0600080808080808080885
:00000001FF
