:100000000C942A000C9447000C9447000C94470071
:100010000C94C3160C9437170C94C3130C94F6135A
:100020000C946A140C94DE140C9447000C94470052
:100030000C9447000C9447000C9447000C94470024
:100040000C9447000C9447000C9447000C94470014
:100050000C94470011241FBECFE5D8E0DEBFCDBF12
:1000600011E0A0E6B0E0E0E7FBE302C005900D92EE
:10007000A63FB107D9F712E0A6EFB1E001C01D928B
:10008000A733B107E1F70E9401190C94B61D0C9437
:100090000000EF92FF920F931F937B018C0120E0F1
:1000A00030E040E05FE40E94F50388238CF0C80153
:1000B000B70120E030E040E05FE40E94C1010E940F
:1000C000B3049B01AC01205030404040504806C072
:1000D000C801B7010E94B3049B01AC01B901CA0178
:1000E0001F910F91FF90EF900895A0E0B0E0EBE733
:1000F000F0E00C947F1DDC012B01FA019C91923001
:1001000008F439C1EB018881823008F433C194309E
:1001100069F4843009F02FC111969C91119789815F
:10012000981709F428C1A9EDB0E025C1843009F47D
:1001300021C18230A9F4923009F01DC19A01AD01AC
:1001400088E0EA010990AE01E90109929E0181501F
:10015000C1F7E201898111969C918923818308C1AD
:10016000923009F407C112962D903C901397EB0141
:100170008A819B811496AD90BD90CD90DC901797AD
:10018000EC80FD800E811F819101281B390BB90184
:1001900037FF04C066277727621B730B6032710537
:1001A0000CF061C0121613066CF537014801062EDB
:1001B00004C096948794779467940A94D2F721E0C8
:1001C00030E040E050E004C0220F331F441F551FB1
:1001D0006A95D2F721503040404050402E213F21B7
:1001E00040235123211531054105510521F021E01E
:1001F00030E040E050E079018A01E628F72808293C
:1002000019293CC0232BD1F1260E371E350146019A
:10021000062E04C096948794779467940A94D2F734
:1002200021E030E040E050E004C0220F331F441FC3
:10023000551F6A95D2F721503040404050402A2146
:100240003B214C215D21211531054105510521F04E
:1002500021E030E040E050E059016A01A628B728CB
:10026000C828D9280BC0821593052CF01C01AA249C
:10027000BB24650103C0EE24FF24870111969C91E5
:10028000D20111968C91981709F445C0992339F041
:10029000A80197012A193B094C095D0906C0A6016E
:1002A00095012E193F09400B510B57FD08C01182D3
:1002B0003382228224833583468357831DC081E0A5
:1002C00081833382228288279927DC01821B930B4A
:1002D000A40BB50B84839583A683B7830DC0220F2F
:1002E000331F441F551F24833583468357838281E0
:1002F000938101979383828324813581468157813D
:10030000DA01C9010197A109B1098F5F9F4FAF4F72
:10031000BF4328F30BC0918333822282EA0CFB1C7B
:100320000C1D1D1DE482F5820683178383E0808304
:10033000248135814681578157FF1AC0C901AA27F8
:1003400097FDA095BA2F81709070A070B0705695EF
:10035000479537952795822B932BA42BB52B848318
:100360009583A683B7838281938101969383828349
:10037000DF0101C0D201CD01CDB7DEB7E2E10C94BF
:100380009B1DA0E2B0E0E7ECF1E00C948B1D6983CB
:100390007A838B839C832D833E834F835887E9E048
:1003A000EE2EF12CEC0EFD1ECE010196B7010E943F
:1003B000A4068E010F5E1F4FCE010596B8010E9464
:1003C000A4068A8991E089278A8BC701B801AE010A
:1003D000475E5F4F0E9475000E94CF05A096E6E041
:1003E0000C94A71DA0E2B0E0E8EFF1E00C948B1DA7
:1003F00069837A838B839C832D833E834F835887C5
:10040000F9E0EF2EF12CEC0EFD1ECE010196B701A6
:100410000E94A4068E010F5E1F4FCE010596B80103
:100420000E94A406C701B801AE01475E5F4F0E945B
:1004300075000E94CF05A096E6E00C94A71DA0E2EF
:10044000B0E0E5E2F2E00C947F1D69837A838B8350
:100450009C832D833E834F835887CE010196BE0136
:10046000675F7F4F0E94A406CE010596BE016F5EB6
:100470007F4F0E94A4069985923088F08989823046
:10048000C8F0943019F4823051F404C0843029F457
:10049000923081F489ED90E0C6C0923049F420E0BA
:1004A0009A858A89981321E02A87CE010996BBC0D4
:1004B000823049F420E09A858A89981321E02A8BBA
:1004C000CE014196B0C02D843E844F8458886D88FB
:1004D0007E888F88988CEE24FF248701AA24BB2471
:1004E000650140E050E060E070E0E0E0F0E0C10174
:1004F00081709070892BE9F0E60CF71C081D191D1E
:100500009A01AB012A0D3B1D4C1D5D1D80E090E062
:10051000A0E0B0E0E614F7040805190520F481E036
:1005200090E0A0E0B0E0BA01A901480F591F6A1F8E
:100530007B1FAA0CBB1CCC1CDD1C97FE08C081E0F5
:1005400090E0A0E0B0E0A82AB92ACA2ADB2A3196B6
:10055000E032F10549F0660C771C881C991C569412
:10056000479437942794C3CFFA85EA892B893C892D
:100570008B859C85280F391F2E5F3F4F17C0CA01FE
:1005800081709070892B61F016950795F794E79428
:1005900080E090E0A0E0B0E8E82AF92A0A2B1B2BC3
:1005A00076956795579547952F5F3F4F77FDE7CF36
:1005B0000CC0440F551F661F771F17FD4160EE0CDE
:1005C000FF1C001F111F21503040403090E05907A0
:1005D00090E0690790E4790760F32B8F3C8FDB0193
:1005E000CA018F779070A070B07080349105A1051A
:1005F000B10561F447FD0AC0E114F10401051105DC
:1006000029F0405C5F4F6F4F7F4F40781A8EFE1786
:1006100011F081E08A8F4D8F5E8F6F8F78A383E01A
:10062000898FCE0149960E94CF05A096E2E10C94F5
:100630009B1DA8E1B0E0EFE1F3E00C94871D698316
:100640007A838B839C832D833E834F835887B9E0C5
:10065000EB2EF12CEC0EFD1ECE010196B7010E948F
:10066000A4068E010F5E1F4FCE010596B8010E94B1
:10067000A4062985223008F47EC03989323010F46E
:10068000B8017CC08A859A8989278A87243011F02D
:10069000223031F4231709F06EC069ED70E06EC0AE
:1006A000343039F41D861E861F86188A1C861B86E8
:1006B00004C0323021F484E08987B7015FC02B8504
:1006C0003C858B899C89281B390B3C872B87ED84C3
:1006D000FE840F851889AD88BE88CF88D88CEA142F
:1006E000FB040C051D0540F4EE0CFF1C001F111F40
:1006F000215030403C872B8720E030E040E050E044
:1007000080E090E0A0E0B0E460E070E0EA14FB0478
:100710000C051D0540F0282B392B4A2B5B2BEA18C2
:10072000FB080C091D09B695A79597958795EE0CC2
:10073000FF1C001F111F6F5F7F4F6F31710531F775
:10074000DA01C9018F779070A070B0708034910584
:10075000A105B10561F427FD0AC0E114F10401050A
:10076000110529F0205C3F4F4F4F5F4F20782D87B8
:100770003E874F87588BBE01675F7F4FCB010E943A
:10078000CF056896EAE00C94A31DA8E1B0E0EBEC7D
:10079000F3E00C948B1D69837A838B839C832D8378
:1007A0003E834F83588789E0E82EF12CEC0EFD1E26
:1007B000CE010196B7010E94A4068E010F5E1F4F65
:1007C000CE010596B8010E94A4068985823040F0CA
:1007D0008989823028F0C701B8010E941C0701C036
:1007E0008FEF6896E6E00C94A71DA8E1B0E0EBEF70
:1007F000F3E00C948B1D69837A838B839C832D8318
:100800003E834F83588789E0E82EF12CEC0EFD1EC5
:10081000CE010196B7010E94A4068E010F5E1F4F04
:10082000CE010596B8010E94A4068985823040F069
:100830008989823028F0C701B8010E941C0701C0D5
:100840008FEF6896E6E00C94A71DA8E1B0E0EBE21C
:10085000F4E00C948B1D69837A838B839C832D83B6
:100860003E834F83588789E0E82EF12CEC0EFD1E65
:10087000CE010196B7010E94A4068E010F5E1F4FA4
:10088000CE010596B8010E94A4068985823040F009
:100890008989823028F0C701B8010E941C0701C075
:1008A00081E06896E6E00C94A71DA8E0B0E0EBE5D7
:1008B000F4E00C94881D9B01AC0183E08983DA018C
:1008C000C9018827B7FD83959927AA27BB27B82E8A
:1008D000211531054105510519F482E089833AC09B
:1008E0008823A9F0203080E0380780E0480780E8BE
:1008F000580729F460E070E080E09FEC30C0EE24FF
:10090000FF248701E21AF30A040B150B02C07901D8
:100910008A018EE1C82ED12CDC82CB82ED82FE8250
:100920000F831887C801B7010E9480050197181628
:10093000190684F4082E04C0EE0CFF1C001F111FC2
:100940000A94D2F7ED82FE820F831887C81AD90A5B
:10095000DC82CB82BA82CE0101960E94CF05289616
:10096000E9E00C94A41DACE0B0E0E9EBF4E00C94F9
:100970008F1D69837A838B839C83CE010196BE0190
:100980006B5F7F4F0E94A4068D81823061F18230BF
:1009900050F1843021F48E81882351F12EC02F81B3
:1009A000388537FD20C06E812F3131051CF066235C
:1009B000F9F023C08EE190E0821B930B29853A85E4
:1009C0004B855C8504C056954795379527958A9544
:1009D000D2F76623B1F050954095309521953F4F61
:1009E0004F4F5F4F0EC020E030E040E050E009C0C4
:1009F0002FEF3FEF4FEF5FE704C020E030E040E033
:100A000050E8B901CA012C96E2E00C94AB1DA8E0B5
:100A1000B0E0EDE0F5E00C94871D7B018C016115E1
:100A200071058105910519F482E0898360C083E036
:100A300089838EE1C82ED12CDC82CB82ED82FE82AE
:100A40000F831887C801B7010E948005FC01319708
:100A5000F7FF3BC0222733272E1B3F0B57016801AE
:100A6000022E04C0D694C794B794A7940A94D2F7E0
:100A700040E050E060E070E081E090E0A0E0B0E0B5
:100A800004C0880F991FAA1FBB1F2A95D2F7019790
:100A9000A109B1098E219F21A023B1230097A105AF
:100AA000B10521F041E050E060E070E04A295B29A7
:100AB0006C297D294D835E836F8378878EE190E07A
:100AC0008E1B9F0B9C838B8312C0309781F00E2E60
:100AD00004C0EE0CFF1C001F111F0A94D2F7ED8218
:100AE000FE820F831887CE1ADF0ADC82CB821A823D
:100AF000CE0101960E94CF052896EAE00C94A31D32
:100B0000EF92FF920F931F937B018C0180E0E81618
:100B100080E0F80681E0080780E0180788F48FEF8E
:100B2000E816F1040105110531F028F088E090E0A5
:100B3000A0E0B0E017C080E090E0A0E0B0E012C01C
:100B400080E0E81680E0F80680E0080781E01807FA
:100B500028F088E190E0A0E0B0E004C080E190E0FF
:100B6000A0E0B0E020E230E040E050E0281B390B8C
:100B70004A0B5B0B04C016950795F794E7948A958A
:100B8000D2F7F701EF51FF4F8081281B310941094E
:100B90005109C9011F910F91FF90EF900895DF92C5
:100BA000EF92FF920F931F93FC01E480F580068182
:100BB0001781D1808081823048F480E090E0A0E10C
:100BC000B0E0E82AF92A0A2B1B2BA5C0843009F4CF
:100BD0009FC0823021F4EE24FF24870105C0E11478
:100BE000F1040105110519F4E0E0F0E096C062811E
:100BF00073819FEF623879070CF05BC022E83FEF0A
:100C0000261B370B2A3131052CF020E030E040E084
:100C100050E02AC0B801A701022E04C0769567955E
:100C2000579547950A94D2F781E090E0A0E0B0E0B4
:100C300004C0880F991FAA1FBB1F2A95D2F70197DE
:100C4000A109B1098E219F21A023B1230097A105FD
:100C5000B10521F081E090E0A0E0B0E09A01AB01A5
:100C6000282B392B4A2B5B2BDA01C9018F77907027
:100C7000A070B07080349105A105B10539F427FF4B
:100C800009C0205C3F4F4F4F5F4F04C0215C3F4F76
:100C90004F4F5F4FE0E0F0E02030A0E03A07A0E0E7
:100CA0004A07A0E45A0710F0E1E0F0E079018A0178
:100CB00027C06038710564F5FB01E158FF4FD8018A
:100CC000C7018F779070A070B07080349105A10536
:100CD000B10539F4E7FE0DC080E490E0A0E0B0E09B
:100CE00004C08FE390E0A0E0B0E0E80EF91E0A1F18
:100CF0001B1F17FF05C016950795F794E7943196CB
:100D000087E016950795F794E7948A95D1F705C083
:100D1000EE24FF248701EFEFF0E06E2F6795662742
:100D20006795902F9F77D794DD24D7948E2F869543
:100D3000492F462B582F5D29B701CA011F910F91EA
:100D4000FF90EF90DF900895FC01DB01408151811D
:100D50002281622F6F7770E0221F2227221F93814A
:100D6000892F880F822B282F30E0991F9927991FF0
:100D700011969C93119721153105A9F5411551053F
:100D80006105710511F482E037C082E89FEF139688
:100D90009C938E9312979A01AB0167E0220F331F49
:100DA000441F551F6A95D1F783E08C930DC0220F25
:100DB000331F441F551F12968D919C9113970197D5
:100DC00013969C938E931297203080E0380780E032
:100DD000480780E4580758F314962D933D934D939C
:100DE0005C93179708952F3F310579F4411551050C
:100DF0006105710519F484E08C93089564FF03C0C4
:100E000081E08C9312C01C9210C02F573040139673
:100E10003C932E93129783E08C9387E0440F551FE9
:100E2000661F771F8A95D1F7706414964D935D9372
:100E30006D937C93179708951F93DC01FB019C91A0
:100E4000923008F447C08081823008F443C0943067
:100E500051F411961C91843099F58181682F70E0CE
:100E6000611B71093FC0843021F0923031F482302F
:100E7000B9F18181882389F12DC011961C911197B8
:100E80008230F1F081811817D9F412962D913C919E
:100E90001397828193818217930794F0281739075B
:100EA000BCF014968D919D910D90BC91A02D248144
:100EB000358146815781281739074A075B0718F49F
:100EC000112341F00AC082179307A407B50740F425
:100ED000112319F061E070E005C06FEF7FEF02C0F1
:100EE00060E070E0CB011F910895DF93CF9300D0B5
:100EF0000F92CDB7DEB78983A7E2B0E0E7E2F0E07A
:100F000080818F778C93A7E2B0E0E7E2F0E0808108
:100F100080648C93A7E2B0E0E7E2F0E080818F7D0F
:100F20008C938981282F30E03B832A838A819B819F
:100F30008330910509F49BC02A813B81243031051F
:100F40008CF48A819B818130910509F448C02A8103
:100F50003B81223031050CF066C08A819B8100976D
:100F6000D1F038C12A813B812530310509F4C7C051
:100F70008A819B81853091050CF49DC02A813B813B
:100F80002630310509F4DFC08A819B8187309105C5
:100F900009F4FDC01FC1A7E2B0E0E7E2F0E0808104
:100FA0008F7E8C93A7E2B0E0E7E2F0E08081877F5C
:100FB0008C93A7E2B0E0E7E2F0E080818B7F8C9336
:100FC000A7E2B0E0E7E2F0E080818D7F8C93A7E2BA
:100FD000B0E0E7E2F0E080818E7F8C93FBC0A7E277
:100FE000B0E0E7E2F0E080818F7E8C93A7E2B0E092
:100FF000E7E2F0E08081877F8C93A7E2B0E0E7E250
:10100000F0E080818B7F8C93A7E2B0E0E7E2F0E034
:1010100080818D7F8C93A7E2B0E0E7E2F0E08081F1
:1010200081608C93D7C0A7E2B0E0E7E2F0E0808176
:101030008F7E8C93A7E2B0E0E7E2F0E08081877FCB
:101040008C93A7E2B0E0E7E2F0E080818B7F8C93A5
:10105000A7E2B0E0E7E2F0E0808182608C93A7E253
:10106000B0E0E7E2F0E080818E7F8C93B3C0A7E22E
:10107000B0E0E7E2F0E080818F7E8C93A7E2B0E001
:10108000E7E2F0E08081877F8C93A7E2B0E0E7E2BF
:10109000F0E080818B7F8C93A7E2B0E0E7E2F0E0A4
:1010A000808182608C93A7E2B0E0E7E2F0E080818B
:1010B00081608C938FC0A7E2B0E0E7E2F0E080812E
:1010C0008F7E8C93A7E2B0E0E7E2F0E08081877F3B
:1010D0008C93A7E2B0E0E7E2F0E0808184608C933B
:1010E000A7E2B0E0E7E2F0E080818D7F8C93A7E299
:1010F000B0E0E7E2F0E080818E7F8C936BC0A7E2E6
:10110000B0E0E7E2F0E080818F7E8C93A7E2B0E070
:10111000E7E2F0E08081877F8C93A7E2B0E0E7E22E
:10112000F0E0808184608C93A7E2B0E0E7E2F0E039
:1011300080818D7F8C93A7E2B0E0E7E2F0E08081D0
:1011400081608C9347C0A7E2B0E0E7E2F0E08081E5
:101150008F7E8C93A7E2B0E0E7E2F0E08081877FAA
:101160008C93A7E2B0E0E7E2F0E0808184608C93AA
:10117000A7E2B0E0E7E2F0E0808182608C93A7E232
:10118000B0E0E7E2F0E080818E7F8C9323C0A7E29D
:10119000B0E0E7E2F0E080818F7E8C93A7E2B0E0E0
:1011A000E7E2F0E08081877F8C93A7E2B0E0E7E29E
:1011B000F0E0808184608C93A7E2B0E0E7E2F0E0A9
:1011C000808182608C93A7E2B0E0E7E2F0E080816A
:1011D00081608C93A6E2B0E0E6E2F0E080818E7F51
:1011E0008C93A6E2B0E0E6E2F0E0808182608C932E
:1011F000A6E2B0E0E6E2F0E0808184608C93A6E2B3
:10120000B0E0E6E2F0E0808180688C93A6E2B0E096
:10121000E6E2F0E0808180648C93E6E2F0E0808199
:1012200082958F70882F90E0817090700097A9F35D
:101230000F900F900F90CF91DF910895DF93CF9390
:10124000CDB7DEB7A6E2B0E0E6E2F0E080818064F0
:101250008C93E6E2F0E0808182958F70882F90E099
:10126000817090700097A9F3E4E2F0E080819181B1
:10127000CF91DF910895DF93CF93CDB7DEB7279756
:101280000FB6F894DEBF0FBECDBF89836A834B8350
:101290008B81813009F06FC08981282F30E03F8336
:1012A0002E838E819F818130910549F12E813F816E
:1012B000223031052CF48E819F81009761F0D2C0DD
:1012C0002E813F812230310571F18E819F818330E3
:1012D0009105E9F1C7C0AAE3B0E0EAE3F0E080815C
:1012E000482F8A81282F30E081E090E0022E02C052
:1012F000880F991F0A94E2F7842B8C93B3C0A7E35D
:10130000B0E0E7E3F0E08081482F8A81282F30E0C9
:1013100081E090E0022E02C0880F991F0A94E2F744
:10132000842B8C939FC0A4E3B0E0E4E3F0E08081E1
:10133000482F8A81282F30E081E090E0022E02C001
:10134000880F991F0A94E2F7842B8C938BC0A1E33A
:10135000B0E0E1E3F0E08081482F8A81282F30E07F
:1013600081E090E0022E02C0880F991F0A94E2F7F4
:10137000842B8C9377C08B81882309F073C089817B
:10138000282F30E03D832C838C819D818130910515
:1013900059F12C813D81223031052CF48C819D81C5
:1013A000009769F05FC02C813D812230310589F1C1
:1013B0008C819D818330910509F440C053C0AAE31C
:1013C000B0E0EAE3F0E08081482F8A81282F30E006
:1013D00081E090E0022E02C0880F991F0A94E2F784
:1013E000809584238C933EC0A7E3B0E0E7E3F0E070
:1013F0008081482F8A81282F30E081E090E0022E02
:1014000002C0880F991F0A94E2F7809584238C9379
:1014100029C0A4E3B0E0E4E3F0E08081482F8A81B2
:10142000282F30E081E090E0022E02C0880F991F43
:101430000A94E2F7809584238C9314C0A1E3B0E072
:10144000E1E3F0E08081482F8A81282F30E081E0BD
:1014500090E0022E02C0880F991F0A94E2F780954F
:1014600084238C9327960FB6F894DEBF0FBECDBFB2
:10147000CF91DF910895DF93CF93CDB7DEB7279754
:101480000FB6F894DEBF0FBECDBF89836A834B834E
:101490008B81813009F06FC08981282F30E03F8334
:1014A0002E838E819F818130910549F12E813F816C
:1014B000223031052CF48E819F81009761F0D2C0DB
:1014C0002E813F812230310571F18E819F818330E1
:1014D0009105E9F1C7C0ABE3B0E0EBE3F0E0808158
:1014E000482F8A81282F30E081E090E0022E02C050
:1014F000880F991F0A94E2F7842B8C93B3C0A8E35A
:10150000B0E0E8E3F0E08081482F8A81282F30E0C6
:1015100081E090E0022E02C0880F991F0A94E2F742
:10152000842B8C939FC0A5E3B0E0E5E3F0E08081DD
:10153000482F8A81282F30E081E090E0022E02C0FF
:10154000880F991F0A94E2F7842B8C938BC0A2E337
:10155000B0E0E2E3F0E08081482F8A81282F30E07C
:1015600081E090E0022E02C0880F991F0A94E2F7F2
:10157000842B8C9377C08B81882309F073C0898179
:10158000282F30E03D832C838C819D818130910513
:1015900059F12C813D81223031052CF48C819D81C3
:1015A000009769F05FC02C813D812230310589F1BF
:1015B0008C819D818330910509F440C053C0ABE319
:1015C000B0E0EBE3F0E08081482F8A81282F30E003
:1015D00081E090E0022E02C0880F991F0A94E2F782
:1015E000809584238C933EC0A8E3B0E0E8E3F0E06C
:1015F0008081482F8A81282F30E081E090E0022E00
:1016000002C0880F991F0A94E2F7809584238C9377
:1016100029C0A5E3B0E0E5E3F0E08081482F8A81AE
:10162000282F30E081E090E0022E02C0880F991F41
:101630000A94E2F7809584238C9314C0A2E3B0E06F
:10164000E2E3F0E08081482F8A81282F30E081E0BA
:1016500090E0022E02C0880F991F0A94E2F780954D
:1016600084238C9327960FB6F894DEBF0FBECDBFB0
:10167000CF91DF910895DF93CF9300D000D0CDB705
:10168000DEB789836A838981282F30E03C832B83EE
:101690008B819C8181309105D1F02B813C8122305E
:1016A00031052CF48B819C81009761F01EC02B8149
:1016B0003C812230310581F08B819C818330910502
:1016C00081F013C0EAE3F0E08A8180830EC0E7E393
:1016D000F0E08A81808309C0E4E3F0E08A818083BE
:1016E00004C0E1E3F0E08A8180830F900F900F90B7
:1016F0000F90CF91DF910895DF93CF9300D00F9299
:10170000CDB7DEB789838981282F30E03B832A83D8
:101710008A819B8181309105C9F02A813B812230E9
:1017200031052CF48A819B81009761F01AC02A81CF
:101730003B812230310571F08A819B818330910594
:1017400069F00FC0EAE3F0E010820BC0E7E3F0E0DD
:10175000108207C0E4E3F0E0108203C0E1E3F0E0B0
:1017600010820F900F900F90CF91DF910895DF932B
:10177000CF9300D00F92CDB7DEB789838981282F10
:1017800030E03B832A838A819B8181309105D1F0AF
:101790002A813B81223031052CF48A819B8100977C
:1017A00061F01EC02A813B812230310581F08A819F
:1017B0009B818330910581F013C0EAE3F0E08FEF65
:1017C00080830EC0E7E3F0E08FEF808309C0E4E39D
:1017D000F0E08FEF808304C0E1E3F0E08FEF8083DF
:1017E0000F900F900F90CF91DF910895DF93CF93DB
:1017F00000D000D0CDB7DEB789836A838981282FD6
:1018000030E03C832B838B819C8181309105D1F02A
:101810002B813C81223031052CF48B819C810097F7
:1018200061F01EC02B813C812230310581F08B811B
:101830009C818330910581F013C0EBE3F0E08A8155
:1018400080830EC0E8E3F0E08A81808309C0E5E38D
:10185000F0E08A81808304C0E2E3F0E08A81808343
:101860000F900F900F900F90CF91DF910895DF931D
:10187000CF9300D00F92CDB7DEB789838981282F0F
:1018800030E03B832A838A819B8181309105C9F0B6
:101890002A813B81223031052CF48A819B8100977B
:1018A00061F01AC02A813B812230310571F08A81B2
:1018B0009B818330910569F00FC0EBE3F0E010826B
:1018C0000BC0E8E3F0E0108207C0E5E3F0E010822F
:1018D00003C0E2E3F0E010820F900F900F90CF91E1
:1018E000DF910895DF93CF9300D00F92CDB7DEB78D
:1018F00089838981282F30E03B832A838A819B81D9
:1019000081309105D1F02A813B81223031052CF4C0
:101910008A819B81009761F01EC02A813B81223021
:10192000310581F08A819B818330910581F013C05C
:10193000EBE3F0E08FEF80830EC0E8E3F0E08FEFA1
:10194000808309C0E5E3F0E08FEF808304C0E2E329
:10195000F0E08FEF80830F900F900F90CF91DF9189
:101960000895DF93CF9300D000D00F92CDB7DEB7AC
:101970008A836B838A81282F30E03D832C834C81BE
:101980005D814130510541F18C819D81823091050D
:1019900034F42C813D812115310561F052C04C8118
:1019A0005D814230510551F18C819D8183309105DB
:1019B000B9F147C0E9E3F0E08081282F30E08B8166
:1019C000882F90E0A90102C0559547958A95E2F7C6
:1019D000CA018170898335C0E6E3F0E08081282F59
:1019E00030E08B81882F90E0A90102C05595479582
:1019F0008A95E2F7CA018170898323C0E3E3F0E0AE
:101A00008081282F30E08B81882F90E0A90102C0CF
:101A1000559547958A95E2F7CA018170898311C06F
:101A2000E0E3F0E08081282F30E08B81882F90E088
:101A3000A90102C0559547958A95E2F7CA018170C0
:101A4000898389810F900F900F900F900F90CF9105
:101A5000DF910895DF93CF9300D000D0CDB7DEB7EC
:101A600089836A838981282F30E03C832B838B8193
:101A70009C818130910549F12B813C8122303105D7
:101A80002CF48B819C81009761F05AC02B813C81A2
:101A90002230310571F18B819C8183309105E9F110
:101AA0004FC0ABE3B0E0EBE3F0E08081482F8A81E8
:101AB000282F30E081E090E0022E02C0880F991FAD
:101AC0000A94E2F784278C933BC0A8E3B0E0E8E3F4
:101AD000F0E08081482F8A81282F30E081E090E07B
:101AE000022E02C0880F991F0A94E2F784278C9374
:101AF00027C0A5E3B0E0E5E3F0E08081482F8A81CC
:101B0000282F30E081E090E0022E02C0880F991F5C
:101B10000A94E2F784278C9313C0A2E3B0E0E2E3D7
:101B2000F0E08081482F8A81282F30E081E090E02A
:101B3000022E02C0880F991F0A94E2F784278C9323
:101B40000F900F900F900F90CF91DF910895DF933A
:101B5000CF93CDB7DEB7AA970FB6F894DEBF0FBE0E
:101B6000CDBF82E00E94B70B83E062E041E00E94BB
:101B70003B0983E063E041E00E943B0983E064E0CD
:101B800041E00E943B0980E090E0A0EFB1E48FA328
:101B900098A7A9A7BAA76FA178A589A59AA520E0BB
:101BA00030E04AEF54E40E941F02DC01CB018BA31A
:101BB0009CA3ADA3BEA36BA17CA18DA19EA120E09F
:101BC00030E040E85FE30E94250488232CF481E0A4
:101BD00090E09AA389A33FC06BA17CA18DA19EA197
:101BE00020E03FEF4FE757E40E94C50318164CF57D
:101BF0006FA178A589A59AA520E030E040E251E4E4
:101C00000E941F02DC01CB01BC01CD010E944900F2
:101C1000DC01CB019AA389A30FC088EC90E098A3C4
:101C20008F8F8F8D98A10197F1F798A38F8F89A13E
:101C30009AA101979AA389A389A19AA1009769F70C
:101C400014C06BA17CA18DA19EA10E944900DC0162
:101C5000CB019AA389A389A19AA19E8F8D8F8D8D87
:101C60009E8D0197F1F79E8F8D8F88E30E942B0F39
:101C700080E090E0A0E0B0E4898F9A8FAB8FBC8FBA
:101C8000698D7A8D8B8D9C8D20E030E04AEF54E495
:101C90000E941F02DC01CB018D8B9E8BAF8BB88F16
:101CA0006D897E898F89988D20E030E040E85FE380
:101CB0000E94250488232CF481E090E09C8B8B8B80
:101CC0003FC06D897E898F89988D20E03FEF4FE777
:101CD00057E40E94C50318164CF5698D7A8D8B8DDB
:101CE0009C8D20E030E040E251E40E941F02DC01C4
:101CF000CB01BC01CD010E944900DC01CB019C8BD2
:101D00008B8B0FC088EC90E09A8B898B89899A899C
:101D10000197F1F79A8B898B8B899C8901979C8B12
:101D20008B8B8B899C89009769F714C06D897E899C
:101D30008F89988D0E944900DC01CB019C8B8B8B95
:101D40008B899C89988B8F878F8598890197F1F76C
:101D5000988B8F878CE00E942B0F80E090E0A0E0B2
:101D6000B0E48B879C87AD87BE876B857C858D852E
:101D70009E8520E030E04AEF54E40E941F02DC011F
:101D8000CB018F839887A987BA876F8178858985EA
:101D90009A8520E030E040E85FE30E942504882334
:101DA0002CF481E090E09E838D833FC06F81788525
:101DB00089859A8520E03FEF4FE757E40E94C503ED
:101DC00018164CF56B857C858D859E8520E030E06E
:101DD00040E251E40E941F02DC01CB01BC01CD01B5
:101DE0000E944900DC01CB019E838D830FC088ECEB
:101DF00090E09C838B838B819C810197F1F79C837E
:101E00008B838D819E8101979E838D838D819E81A1
:101E1000009769F714C06F81788589859A850E943B
:101E20004900DC01CB019E838D838D819E819A8345
:101E3000898389819A810197F1F79A83898381E067
:101E40000E942B0FAA960FB6F894DEBF0FBECDBF2F
:101E5000CF91DF910895DF93CF93CDB7DEB72F9762
:101E60000FB6F894DEBF0FBECDBF8F8783E062E070
:101E700040E00E943B0A83E063E040E00E943B0AAE
:101E800082E06F850E94F60B83E064E041E00E94EF
:101E90003B0A80E090E0A0E0B0E48B879C87AD87B0
:101EA000BE876B857C858D859E8520E030E04AEF7E
:101EB00054E40E941F02DC01CB018F839887A9871D
:101EC000BA876F81788589859A8520E030E040E87F
:101ED0005FE30E94250488232CF481E090E09E8338
:101EE0008D833FC06F81788589859A8520E03FEF9B
:101EF0004FE757E40E94C50318164CF56B857C85A7
:101F00008D859E8520E030E040E251E40E941F0272
:101F1000DC01CB01BC01CD010E944900DC01CB01F9
:101F20009E838D830FC088EC90E09C838B838B8194
:101F30009C810197F1F79C838B838D819E81019712
:101F40009E838D838D819E81009769F714C06F8178
:101F5000788589859A850E944900DC01CB019E83A2
:101F60008D838D819E819A83898389819A8101974E
:101F7000F1F79A83898383E064E040E00E943B0AA2
:101F80002F960FB6F894DEBF0FBECDBFCF91DF9175
:101F90000895DF93CF93CDB7DEB72F970FB6F894A0
:101FA000DEBF0FBECDBF8F8783E062E041E00E94BD
:101FB0003B0A83E063E040E00E943B0A82E06F85D9
:101FC0000E94F60B83E064E041E00E943B0A80E05F
:101FD00090E0A0E0B0E48B879C87AD87BE876B85DF
:101FE0007C858D859E8520E030E04AEF54E40E9498
:101FF0001F02DC01CB018F839887A987BA876F8185
:10200000788589859A8520E030E040E85FE30E948A
:10201000250488232CF481E090E09E838D833FC0CB
:102020006F81788589859A8520E03FEF4FE757E4F7
:102030000E94C50318164CF56B857C858D859E85A1
:1020400020E030E040E251E40E941F02DC01CB01BD
:10205000BC01CD010E944900DC01CB019E838D8330
:102060000FC088EC90E09C838B838B819C810197CF
:10207000F1F79C838B838D819E8101979E838D8355
:102080008D819E81009769F714C06F81788589855D
:102090009A850E944900DC01CB019E838D838D814E
:1020A0009E819A83898389819A810197F1F79A8326
:1020B000898383E064E040E00E943B0A2F960FB6DC
:1020C000F894DEBF0FBECDBFCF91DF910895DF93AF
:1020D000CF9300D000D0CDB7DEB789836A838981E2
:1020E000282F30E03C832B838B819C81009731F03B
:1020F0002B813C812130310531F009C08A81805823
:102100000E942B0F04C08A8180540E942B0F0F90D5
:102110000F900F900F90CF91DF910895DF93CF93A1
:1021200000D00F92CDB7DEB79B838A8319820EC091
:102130008981282F30E08A819B81FC01E20FF31F07
:1021400080810E94C90F89818F5F89838981282FAF
:1021500030E08A819B81FC01E20FF31F808188239C
:1021600039F70F900F900F90CF91DF9108950F9353
:102170001F93DF93CF93CDB7DEB760970FB6F89478
:10218000DEBF0FBECDBF6D877E878F87988B1A828B
:102190008D859E85AF85B8890097A105B10589F524
:1021A00080E30E94C90F4DC08A81082F10E08D8501
:1021B0009E85AF85B8892AE030E040E050E0BC0160
:1021C000CD010E945D1DDC01CB01282FCE010396BD
:1021D000FC01E00FF11F20838D859E85AF85B889B6
:1021E0002AE030E040E050E0BC01CD010E945D1DDE
:1021F000DA01C9018D879E87AF87B88B8A818F5F8F
:102200008A838D859E85AF85B8890097A105B10524
:1022100059F68A81898312C08981882F90E09C01B8
:1022200021503040CE010396FC01E20FF31F808164
:10223000805D0E94C90F89818150898389818823AB
:1022400059F760960FB6F894DEBF0FBECDBFCF91A1
:10225000DF911F910F910895DF93CF9300D000D0AD
:1022600000D0CDB7DEB79B838A836C834D832E83EA
:102270008C81882F90E00896880F991F880F991FEE
:10228000880F991F0E942B0F19820EC08981282F59
:1022900030E08A819B81FC01E20FF31F80810E9464
:1022A000C90F89818F5F89838981883078F38D8117
:1022B0006E810E9467108C810E94C90F26960FB60E
:1022C000F894DEBF0FBECDBFCF91DF910895DF93AD
:1022D000CF93CDB7DEB781E00E942B0FCF91DF9176
:1022E0000895DF93CF93CDB7DEB729970FB6F89453
:1022F000DEBF0FBECDBF89870E94C21180E29EE47F
:102300000E945F128CE197ECA1EBB0E489839A8381
:10231000AB83BC838985882F90E0AA2797FDA09581
:10232000BA2FBC01CD010E945504DC01CB01BC01D8
:10233000CD0129813A814B815C810E941F02DC0121
:10234000CB01BC01CD0120E030EC49E754E40E9410
:10235000F201DC01CB01BC01CD010E944900DC018E
:10236000CB018D839E83AF83B8878D819E810E9430
:102370004D1229960FB6F894DEBF0FBECDBFCF9198
:10238000DF910895DF93CF93CDB7DEB7AEE4B0E031
:10239000EEE4F0E080818E7F8C93AEE4B0E0EEE47A
:1023A000F0E0808182608C93AEE4B0E0EEE4F0E097
:1023B00080818B7F8C9388E090E0A0E0B0E08093F8
:1023C0002E0290932F02A0933002B0933102AFE41B
:1023D000B0E0EFE4F0E080818F7B8C93AFE4B0E07D
:1023E000EFE4F0E0808180688C93AFE4B0E0EFE44C
:1023F000F0E080818E7F8C93AFE4B0E0EFE4F0E01A
:10240000808182608C93AEE4B0E0EEE4F0E0808105
:1024100088608C93AEE4B0E0EEE4F0E0808180610F
:102420008C93CF91DF910895DF93CF93CDB7DEB733
:10243000A9E5B0E0E9E5F0E0808180628C93CF917E
:10244000DF910895DF93CF9300D00F92CDB7DEB721
:1024500089838981282F30E03B832A838A819B816D
:10246000009731F02A813B812130310549F00FC0BE
:10247000AEE4B0E0EEE4F0E0808180648C9307C0CD
:10248000AEE4B0E0EEE4F0E080818F7B8C930F90BF
:102490000F900F90CF91DF910895DF93CF9300D0ED
:1024A000CDB7DEB79A838983EAE4F0E089819A8127
:1024B000918380830F900F90CF91DF910895DF93E8
:1024C000CF9300D0CDB7DEB79A838983E6E4F0E0FE
:1024D00089819A81918380830F900F90CF91DF91B2
:1024E0000895DF93CF93CDB7DEB7E6E4F0E08081C7
:1024F0009181CF91DF910895DF93CF9300D0CDB735
:10250000DEB79A838983ECE4F0E089819A81918334
:1025100080830F900F90CF91DF910895EF92FF92FB
:102520000F931F93DF93CF93CDB7DEB768970FB6A6
:10253000F894DEBF0FBECDBF6D8B7E8B8F8B988FD7
:1025400020912E0230912F024091300250913102A1
:1025500080E092E1AAE7B0E0BC01CD010E945D1DE0
:10256000DA01C9018D879E87AF87B88B80E492E43A
:10257000AFE0B0E02D853E854F855889BC01CD0187
:102580000E945D1DDA01C901BC01CD010E94070551
:10259000DC01CB0189879A87AB87BC8769897A89F7
:1025A0008B899C890E940705DC01CB01BC01CD0110
:1025B00029853A854B855C850E941F02DC01CB0191
:1025C000BC01CD010E944900DC01CB018D839E83BB
:1025D000AF83B8878D899E89AF89B88D28EE33E0A7
:1025E00040E050E0BC01CD010E943E1DDC01CB016A
:1025F0002D813E814F815885BC01CD010E945D1D1A
:10260000DA01C90180932A0290932B02A0932C0235
:10261000B0932D028D899E89AF89B88D28EE33E065
:1026200040E050E0BC01CD010E943E1DDC01CB0129
:102630002D813E814F815885BC01CD010E945D1DD9
:10264000DC01CB01BC01CD010E9407057B018C019F
:102650006D817E818F8198850E9407059B01AC0169
:10266000C801B7010E941903DC01CB0189839A8359
:10267000AB83BC8360E070E080E89FE329813A810E
:102680004B815C810E94C101DC01CB017C018D0189
:1026900069897A898B899C890E9407059B01AC0115
:1026A000C801B7010E941F02DC01CB01BC01CD01B2
:1026B0000E944900DC01CB018093320290933302E7
:1026C000A0933402B093350280913202909133028C
:1026D000A0913402B09135020E947C1268960FB628
:1026E000F894DEBF0FBECDBFCF91DF911F910F9148
:1026F000FF90EF900895DF93CF9300D0CDB7DEB772
:102700009A83898389819A819093FD018093FC014A
:102710000F900F90CF91DF910895DF93CF9300D06A
:10272000CDB7DEB79A83898389819A819093F90125
:102730008093F8010F900F90CF91DF910895DF9370
:10274000CF9300D0CDB7DEB79A83898389819A81F0
:102750009093FB018093FA010F900F90CF91DF913E
:102760000895DF93CF9300D0CDB7DEB79A838983E6
:1027700089819A819093F7018093F6010F900F90D1
:10278000CF91DF9108951F920F920FB60F921124EF
:102790002F933F934F935F936F937F938F939F9369
:1027A000AF93BF93EF93FF93DF93CF93CDB7DEB794
:1027B0008091FC019091FD01009729F0E091FC01CE
:1027C000F091FD010995CF91DF91FF91EF91BF91BC
:1027D000AF919F918F917F916F915F914F913F91B9
:1027E0002F910F900FBE0F901F9018951F920F9270
:1027F0000FB60F9211242F933F934F935F936F93D4
:102800007F938F939F93AF93BF93EF93FF93DF9348
:10281000CF93CDB7DEB780912A0290912B02A09181
:102820002C02B0912D029C01AD012F5F3F4F4F4F05
:102830005F4F8091FE019091FF01A0910002B09145
:102840000102281739074A075B07F1F48091F80164
:102850009091F901009729F0E091F801F091F901C8
:1028600009951092FE011092FF0110920002109241
:1028700001028091320290913302A0913402B09112
:1028800035020E947C1213C08091FE019091FF01DD
:10289000A0910002B09101020196A11DB11D80938B
:1028A000FE019093FF01A0930002B0930102CF912B
:1028B000DF91FF91EF91BF91AF919F918F917F91A8
:1028C0006F915F914F913F912F910F900FBE0F909D
:1028D0001F9018951F920F920FB60F9211242F93ED
:1028E0003F934F935F936F937F938F939F93AF9398
:1028F000BF93EF93FF93DF93CF93CDB7DEB7809174
:102900002A0290912B02A0912C02B0912D029C01E1
:10291000AD012F5F3F4F4F4F5F4F8091020290916B
:102920000302A0910402B0910502281739074A0753
:102930005B07F1F48091FA019091FB01009729F077
:10294000E091FA01F091FB010995109202021092B8
:1029500003021092040210920502809132029091BB
:102960003302A0913402B09135020E947C1213C050
:102970008091020290910302A0910402B09105029D
:102980000196A11DB11D8093020290930302A093B2
:102990000402B0930502CF91DF91FF91EF91BF91B7
:1029A000AF919F918F917F916F915F914F913F91E7
:1029B0002F910F900FBE0F901F9018951F920F929E
:1029C0000FB60F9211242F933F934F935F936F9302
:1029D0007F938F939F93AF93BF93EF93FF93DF9377
:1029E000CF93CDB7DEB780912A0290912B02A091B0
:1029F0002C02B0912D029C01AD012F5F3F4F4F4F34
:102A00005F4F8091060290910702A0910802B09159
:102A10000902281739074A075B07F1F48091F6018C
:102A20009091F701009729F0E091F601F091F701FC
:102A30000995109206021092070210920802109255
:102A400009028091320290913302A0913402B09138
:102A500035020E947C1213C08091060290910702F9
:102A6000A0910802B09109020196A11DB11D8093A9
:102A7000060290930702A0930802B0930902CF9137
:102A8000DF91FF91EF91BF91AF919F918F917F91D6
:102A90006F915F914F913F912F910F900FBE0F90CB
:102AA0001F901895DF93CF93CDB7DEB7A5E4B0E0C4
:102AB000E5E4F0E080818E7F8C93A5E4B0E0E5E46E
:102AC000F0E0808182608C93A5E4B0E0E5E4F0E082
:102AD00080818B7F8C9388E090E0A0E0B0E08093D1
:102AE0002E0290932F02A0933002B0933102A5E4FE
:102AF000B0E0E5E4F0E080818F7E8C93A5E4B0E067
:102B0000E5E4F0E0808180628C93A5E4B0E0E5E448
:102B1000F0E0808188608C93A5E4B0E0E5E4F0E02B
:102B2000808180648C93CF91DF910895DF93CF9360
:102B30000F92CDB7DEB78983E4E4F0E0898180832A
:102B40000F90CF91DF910895DF93CF930F92CDB780
:102B5000DEB78983E3E4F0E0898180830F90CF9131
:102B6000DF910895EF92FF920F931F93DF93CF931E
:102B7000CDB7DEB768970FB6F894DEBF0FBECDBFF6
:102B80006D8B7E8B8F8B988F20912E0230912F0230
:102B9000409130025091310280E092E1AAE7B0E02A
:102BA000BC01CD010E945D1DDA01C9018D879E87A0
:102BB000AF87B88B80E492E4AFE0B0E02D853E852E
:102BC0004F855889BC01CD010E945D1DDA01C90104
:102BD000BC01CD010E940705DC01CB0189879A87E2
:102BE000AB87BC8769897A898B899C890E94070594
:102BF000DC01CB01BC01CD0129853A854B855C8583
:102C00000E941F02DC01CB01BC01CD010E944900E2
:102C1000DC01CB018D839E83AF83B8878D899E892C
:102C2000AF89B88D28EE33E040E050E0BC01CD0123
:102C30000E943E1DDC01CB012D813E814F815885D4
:102C4000BC01CD010E945D1DDA01C90180932A02F9
:102C500090932B02A0932C02B0932D028D899E8914
:102C6000AF89B88D28EE33E040E050E0BC01CD01E3
:102C70000E943E1DDC01CB012D813E814F81588594
:102C8000BC01CD010E945D1DDC01CB01BC01CD0169
:102C90000E9407057B018C016D817E818F81988563
:102CA0000E9407059B01AC01C801B7010E941903EE
:102CB000DC01CB0189839A83AB83BC8360E070E045
:102CC00080E89FE329813A814B815C810E94C101A8
:102CD000DC01CB017C018D0169897A898B899C8912
:102CE0000E9407059B01AC01C801B7010E941F02A9
:102CF000DC01CB01BC01CD010E944900DC01CB010C
:102D00008093320290933302A0933402B093350241
:102D10008091320290913302A0913402B091350239
:102D20000E94961568960FB6F894DEBF0FBECDBF11
:102D3000CF91DF911F910F91FF90EF900895DF9356
:102D4000CF9300D0CDB7DEB79A83898389819A81EA
:102D500090930B0280930A020F900F90CF91DF9116
:102D60000895DF93CF9300D0CDB7DEB79A838983E0
:102D700089819A8190930D0280930C020F900F909D
:102D8000CF91DF9108951F920F920FB60F921124E9
:102D90002F933F934F935F936F937F938F939F9363
:102DA000AF93BF93EF93FF93DF93CF93CDB7DEB78E
:102DB00080912A0290912B02A0912C02B0912D02B9
:102DC0009C01AD012F5F3F4F4F4F5F4F80910E022F
:102DD00090910F02A0911002B091110228173907AB
:102DE0004A075B07F1F480910C0290910D02009765
:102DF00029F0E0910C02F0910D02099510920E025B
:102E000010920F0210921002109211028091320261
:102E100090913302A0913402B09135020E94961530
:102E200013C080910E0290910F02A0911002B091F8
:102E300011020196A11DB11D80930E0290930F0205
:102E4000A0931002B0931102CF91DF91FF91EF9107
:102E5000BF91AF919F918F917F916F915F914F91B2
:102E60003F912F910F900FBE0F901F9018951F92BA
:102E70000F920FB60F9211242F933F934F935F93AE
:102E80006F937F938F939F93AF93BF93EF93FF9332
:102E9000DF93CF93CDB7DEB780912A0290912B02BA
:102EA000A0912C02B0912D029C01AD012F5F3F4FEC
:102EB0004F4F5F4F8091120290911302A091140224
:102EC000B0911502281739074A075B07F1F4809182
:102ED0000A0290910B02009729F0E0910A02F0910A
:102EE0000B02099510921202109213021092140212
:102EF000109215028091320290913302A091340217
:102F0000B09135020E94961513C0809112029091E3
:102F10001302A0911402B09115020196A11DB11DDA
:102F20008093120290931302A0931402B09315029F
:102F3000CF91DF91FF91EF91BF91AF919F918F91D1
:102F40007F916F915F914F913F912F910F900FBEA5
:102F50000F901F901895DF93CF93CDB7DEB7AAE2FD
:102F6000B0E0EAE2F0E0808180618C93AAE2B0E018
:102F7000EAE2F0E0808188608C938091360280687C
:102F800080933602809136028F7B80933602809147
:102F900036028F7D80933602809136028F7E809339
:102FA000360280913602877F809336028091360206
:102FB000846080933602809136028260809336026C
:102FC000E0E4F0E0809136028083E0E4F0E01082FB
:102FD000E9E2F0E083E38083CF91DF910895DF930E
:102FE000CF930F92CDB7DEB78983ECE2F0E0898111
:102FF0008083EBE2F0E080818295869586958370F0
:10300000882F90E081709070009799F3ABE2B0E068
:10301000EBE2F0E0808180648C930F90CF91DF91A0
:103020000895DF93CF93CDB7DEB7EBE2F0E0808178
:103030008823DCF7ECE2F0E08081CF91DF91089506
:10304000DF93CF9300D00F92CDB7DEB79B838A83F7
:10305000198223C0ACE2B0E08981282F30E08A8158
:103060009B81FC01E20FF31F80818C93EBE2F0E087
:1030700080818295869586958370882F90E08170F7
:103080009070009799F3ABE2B0E0EBE2F0E0808162
:1030900080648C9389818F5F89838981282F30E0B8
:1030A0008A819B81FC01E20FF31F8081882391F6C6
:1030B0000F900F900F90CF91DF9108950F931F9372
:1030C000DF93CF930F92CDB7DEB719828981082F96
:1030D00010E00E941118F801EA5EFD4F808389819B
:1030E0008F5F89838981882F90E00197FC01EA5ED8
:1030F000FD4F8081813251F78981882F90E00197BF
:10310000FC01EA5EFD4F108286E192E00F90CF91C4
:10311000DF911F910F9108950F931F93DF93CF932A
:10312000CDB7DEB760970FB6F894DEBF0FBECDBF48
:103130006D877E878F87988B1A828D859E85AF8558
:10314000B8890097A105B10589F580E30E94EF17C2
:103150004DC08A81082F10E08D859E85AF85B88986
:103160002AE030E040E050E0BC01CD010E945D1D4E
:10317000DC01CB01282FCE010396FC01E00FF11FEB
:1031800020838D859E85AF85B8892AE030E040E0B8
:1031900050E0BC01CD010E945D1DDA01C9018D879F
:1031A0009E87AF87B88B8A818F5F8A838D859E8546
:1031B000AF85B8890097A105B10559F68A81898341
:1031C00012C08981882F90E09C0121503040CE01AF
:1031D0000396FC01E20FF31F8081805D0E94EF17D0
:1031E0008981815089838981882359F760960FB638
:1031F000F894DEBF0FBECDBFCF91DF911F910F912D
:103200000895DF93CF9300D000D00F92CDB7DEB7F3
:103210000E94AB170E9452150E94A70D81E00E94E8
:10322000B70B83E065E041E00E943B0983E066E084
:1032300041E00E943B0983E067E041E00E943B09D6
:1032400080E060E040E00E943B0980E061E040E017
:103250000E943B0980E062E041E00E943B0980E07F
:1032600062E040E00E943B0A0E94571A0E94111837
:103270008D838D810E9454190E94A11C9C838B8395
:103280000E94D21C9A8389838B819C8129813A81F7
:10329000B9010E94031D8B819C810E94ED198981D7
:1032A0009A810E943A1AE2CFDF93CF930F92CDB763
:1032B000DEB789838981813631F481E060E041E0C5
:1032C0000E943B0A86C08981823631F481E060E049
:1032D00040E00E943B0A7DC08981833631F481E061
:1032E00061E041E00E943B0A74C08981843631F478
:1032F00081E061E040E00E943B0A6BC08981853635
:1033000031F481E062E041E00E943B0A62C08981C1
:10331000863631F481E062E040E00E943B0A59C009
:103320008981873631F481E063E041E00E943B0A05
:1033300050C08981883631F481E063E040E00E942A
:103340003B0A47C08981893631F481E064E041E07D
:103350000E943B0A3EC089818A3631F481E064E0F4
:1033600040E00E943B0A35C089818B3631F481E010
:1033700065E041E00E943B0A2CC089818C3631F423
:1033800081E065E040E00E943B0A23C089818D36E0
:1033900031F481E066E041E00E943B0A1AC0898175
:1033A0008E3631F481E066E040E00E943B0A11C0B5
:1033B00089818F3631F481E067E041E00E943B0A69
:1033C00008C08981803729F481E067E040E00E94ED
:1033D0003B0A0F90CF91DF910895DF93CF9300D0F8
:1033E0000F92CDB7DEB79B838A838A819B818B3016
:1033F0009105B0F481E064E040E00E943B0A81E086
:1034000065E040E00E943B0A81E066E040E00E9407
:103410003B0A81E067E040E00E943B0A198221C03C
:103420008A819B818B30910540F08A819B81853117
:10343000910518F489E1898314C08A819B818531C3
:10344000910540F08A819B818432910518F484EBC8
:10345000898307C08A819B818432910510F08FEFA8
:10346000898389810E94A4150F900F900F90CF91AE
:10347000DF910895DF93CF9300D0CDB7DEB79A8365
:10348000898389819A8123E0883E920730F483E022
:1034900066E041E00E943B0A05C083E066E040E050
:1034A0000E943B0A0F900F90CF91DF910895DF9318
:1034B000CF93CDB7DEB7C254D0400FB6F894DEBF7D
:1034C0000FBECDBF1EA61BA680E690E00E948E1008
:1034D00081E060E00E9467100E94D21C0E943A1AAC
:1034E0000E9411188CA78CA58D3309F0ECC11DA684
:1034F000B1C08DA5282F30E0CE018F96FC01E20FE0
:10350000F31F20818DA5882F90E0FC01EF51FE4F25
:103510008081281731F49091F5018EA5891709F45F
:1035200096C00E94671180E060E00E94671080E70B
:1035300090E00E948E1080E090E0A8ECB2E48FA3AF
:1035400098A7A9A7BAA76FA178A589A59AA520E0F1
:1035500030E04AEF54E40E941F02DC01CB018BA350
:103560009CA3ADA3BEA36BA17CA18DA19EA120E0D5
:1035700030E040E85FE30E94250488232CF481E0DA
:1035800090E09AA389A33FC06BA17CA18DA19EA1CD
:1035900020E03FEF4FE757E40E94C50318164CF5B3
:1035A0006FA178A589A59AA520E030E040E251E41A
:1035B0000E941F02DC01CB01BC01CD010E94490029
:1035C000DC01CB019AA389A30FC088EC90E098A3FB
:1035D0008F8F8F8D98A10197F1F798A38F8F89A175
:1035E0009AA101979AA389A389A19AA1009769F743
:1035F00014C06BA17CA18DA19EA10E944900DC0199
:10360000CB019AA389A389A19AA19E8F8D8F8D8DBD
:103610009E8D0197F1F79E8F8D8F0E94671180E03C
:1036200060E00E94671081E890E00E948E1081E0C7
:1036300060E00E9467108BA58F5F8BA78BA58330FE
:1036400070F080E062E041E00E943B0A08C08DA576
:103650008F5F8DA79DA58EA5981708F44ACF8EA5DC
:10366000882309F09CC08091F501882309F497C054
:103670000E94671180E060E00E94671080E790E0A0
:103680000E948E1080E090E0A8ECB2E4898F9A8FBF
:10369000AB8FBC8F698D7A8D8B8D9C8D20E030E057
:1036A0004AEF54E40E941F02DC01CB018D8B9E8BFC
:1036B000AF8BB88F6D897E898F89988D20E030E03F
:1036C00040E85FE30E94250488232CF481E090E029
:1036D0009C8B8B8B3FC06D897E898F89988D20E074
:1036E0003FEF4FE757E40E94C50318164CF5698D6C
:1036F0007A8D8B8D9C8D20E030E040E251E40E9479
:103700001F02DC01CB01BC01CD010E944900DC019C
:10371000CB019C8B8B8B0FC088EC90E09A8B898BB4
:1037200089899A890197F1F79A8B898B8B899C8972
:1037300001979C8B8B8B8B899C89009769F714C0B0
:103740006D897E898F89988D0E944900DC01CB01AB
:103750009C8B8B8B8B899C89988B8F878F85988985
:103760000197F1F7988B8F870E94671180E060E0E6
:103770000E94671081E890E00E948E1081E060E076
:103780000E9467108BA58F5F8BA78BA5833008F4F1
:10379000A3CE80E062E041E00E943B0A9DCE9DA561
:1037A0008EA5981709F08DC00E94671180E060E037
:1037B0000E94671080E990E00E948E1081E060E036
:1037C0000E9467108AE990E00E948E1084EB0E94AC
:1037D000711180E062E040E00E943B0A80E090E0EE
:1037E000A8ECB2E48B879C87AD87BE876B857C8510
:1037F0008D859E8520E030E04AEF54E40E941F0250
:10380000DC01CB018F839887A987BA876F81788580
:1038100089859A8520E030E040E85FE30E94250436
:1038200088232CF481E090E09E838D833FC06F81DC
:10383000788589859A8520E03FEF4FE757E40E941D
:10384000C50318164CF56B857C858D859E8520E01B
:1038500030E040E251E40E941F02DC01CB01BC01D8
:10386000CD010E944900DC01CB019E838D830FC0F6
:1038700088EC90E09C838B838B819C810197F1F78E
:103880009C838B838D819E8101979E838D838D8107
:103890009E81009769F74BC06F81788589859A85ED
:1038A0000E944900DC01CB019E838D838D819E8126
:1038B0009A83898389819A810197F1F79A83898311
:1038C00036C01EA609CE8CA58A3781F40E946711E6
:1038D00080E060E00E94671081E890E00E948E1016
:1038E00081E060E00E9467101EA6F6CD8CA58033B3
:1038F00018F08CA58A3350F08CA58A3218F08CA56C
:10390000803320F08CA58D3309F0E6CD8EA5282FCD
:1039100030E0CE018F96FC01E20FF31F8CA580836F
:103920008EA58F5F8EA78CA50E94C90FD5CDCE5BCB
:10393000DF4F0FB6F894DEBF0FBECDBFCF91DF9142
:103940000895DF93CF9300D000D0CDB7DEB780E0ED
:103950000E9475070E941E099C838B838B819C812A
:10396000CC01A0E0B0E028E833E140E050E0BC0149
:10397000CD010E943E1DDC01CB0126EF37E240E085
:1039800050E0BC01CD010E945D1DDA01C9019A839E
:10399000898389819A810F900F900F900F90CF911A
:1039A000DF910895DF93CF9300D000D0CDB7DEB77D
:1039B00081E00E9475070E941E099C838B838B8186
:1039C0009C81CC01A0E0B0E020E137E240E050E093
:1039D000BC01CD010E943E1DDC01CB012FEF33E085
:1039E00040E050E0BC01CD010E945D1DDA01C9013B
:1039F0009A83898389819A810F900F900F900F90FD
:103A0000CF91DF910895DF93CF9300D000D0CDB751
:103A1000DEB79A8389837C836B8380E060E00E94B9
:103A200067108AEA90E00E948E1089819A81CC0109
:103A3000A0E0B0E0BC01CD010E94B71080EB90E0A7
:103A40000E948E1081E060E00E94671080EC90E0A0
:103A50000E948E108B819C81CC01A0E0B0E0BC0163
:103A6000CD010E94B71087EC90E00E948E100F905D
:103A70000F900F900F90CF91DF910895629FD0012A
:103A8000739FF001829FE00DF11D649FE00DF11D19
:103A9000929FF00D839FF00D749FF00D659FF00DC8
:103AA0009927729FB00DE11DF91F639FB00DE11DB5
:103AB000F91FBD01CF0111240895A1E21A2EAA1BFE
:103AC000BB1BFD010DC0AA1FBB1FEE1FFF1FA217CE
:103AD000B307E407F50720F0A21BB30BE40BF50BCB
:103AE000661F771F881F991F1A9469F76095709554
:103AF000809590959B01AC01BD01CF0108952F9257
:103B00003F924F925F926F927F928F929F92AF926D
:103B1000BF92CF92DF92EF92FF920F931F93CF93BA
:103B2000DF93CDB7DEB7CA1BDB0B0FB6F894DEBF51
:103B30000FBECDBF09942A88398848885F846E8477
:103B40007D848C849B84AA84B984C884DF80EE80C1
:103B5000FD800C811B81AA81B981CE0FD11D0FB6CA
:103B6000F894DEBF0FBECDBFED010895F894FFCFEE
:103B7000454E5445522050415353574F5244210013
:103B800057524F4E472050415353574F52442E2EB9
:103B900000454E5445522050415353574F52440014
:103BA00057454C434F4D452E2E004F50454E4E49E4
:103BB0004E4720444F4F522E2E0054454D503D004D
:103BC00043202020202020202020202020202000F2
:103BD0004C494748543D004C555820202020202077
:103BE00020202020202020200000000000000000D5
:103BF0000000010202030303030404040404040498
:103C00000405050505050505050505050505050565
:103C10000506060606060606060606060606060645
:103C20000606060606060606060606060606060634
:103C30000607070707070707070707070707070715
:103C40000707070707070707070707070707070704
:103C500007070707070707070707070707070707F4
:103C600007070707070707070707070707070707E4
:103C700007080808080808080808080808080808C5
:103C800008080808080808080808080808080808B4
:103C900008080808080808080808080808080808A4
:103CA0000808080808080808080808080808080894
:103CB0000808080808080808080808080808080884
:103CC0000808080808080808080808080808080874
:103CD0000808080808080808080808080808080864
:103CE0000808080808080808080808080808080854
:103CF0000831323300000000000000000000000026
:063D0000000000000003BA
:00000001FF
