:100000000C942A000C9447000C9447000C94470071
:100010000C9447000C9447000C9447000C94470044
:100020000C9447000C9447000C9447000C94470034
:100030000C9447000C9447000C9447000C94470024
:100040000C9447000C9447000C9447000C94470014
:100050000C94470011241FBECFE5D8E0DEBFCDBF12
:1000600010E0A0E6B0E0E0E8F0E102C005900D92FB
:10007000A836B107D9F710E0A8E6B0E001C01D929C
:10008000AD37B107E1F70E94BB070C943E080C9412
:100090000000DF93CF9300D00F92CDB7DEB78983F6
:1000A000A7E2B0E0E7E2F0E080818F778C93A7E2EF
:1000B000B0E0E7E2F0E0808180648C93A7E2B0E0FA
:1000C000E7E2F0E080818F7D8C938981282F30E0FA
:1000D0003B832A838A819B818330910509F49BC0ED
:1000E0002A813B81243031058CF48A819B818130C7
:1000F000910509F448C02A813B81223031050CF07A
:1001000066C08A819B810097D1F038C12A813B81EA
:100110002530310509F4C7C08A819B81853091055E
:100120000CF49DC02A813B812630310509F4DFC0E3
:100130008A819B818730910509F4FDC01FC1A7E228
:10014000B0E0E7E2F0E080818F7E8C93A7E2B0E040
:10015000E7E2F0E08081877F8C93A7E2B0E0E7E2FE
:10016000F0E080818B7F8C93A7E2B0E0E7E2F0E0E3
:1001700080818D7F8C93A7E2B0E0E7E2F0E08081A0
:100180008E7F8C93FBC0A7E2B0E0E7E2F0E08081D5
:100190008F7E8C93A7E2B0E0E7E2F0E08081877F7A
:1001A0008C93A7E2B0E0E7E2F0E080818B7F8C9354
:1001B000A7E2B0E0E7E2F0E080818D7F8C93A7E2D8
:1001C000B0E0E7E2F0E0808181608C93D7C0A7E2E5
:1001D000B0E0E7E2F0E080818F7E8C93A7E2B0E0B0
:1001E000E7E2F0E08081877F8C93A7E2B0E0E7E26E
:1001F000F0E080818B7F8C93A7E2B0E0E7E2F0E053
:10020000808182608C93A7E2B0E0E7E2F0E0808139
:100210008E7F8C93B3C0A7E2B0E0E7E2F0E080818C
:100220008F7E8C93A7E2B0E0E7E2F0E08081877FE9
:100230008C93A7E2B0E0E7E2F0E080818B7F8C93C3
:10024000A7E2B0E0E7E2F0E0808182608C93A7E271
:10025000B0E0E7E2F0E0808181608C938FC0A7E29C
:10026000B0E0E7E2F0E080818F7E8C93A7E2B0E01F
:10027000E7E2F0E08081877F8C93A7E2B0E0E7E2DD
:10028000F0E0808184608C93A7E2B0E0E7E2F0E0E8
:1002900080818D7F8C93A7E2B0E0E7E2F0E080817F
:1002A0008E7F8C936BC0A7E2B0E0E7E2F0E0808144
:1002B0008F7E8C93A7E2B0E0E7E2F0E08081877F59
:1002C0008C93A7E2B0E0E7E2F0E0808184608C9359
:1002D000A7E2B0E0E7E2F0E080818D7F8C93A7E2B7
:1002E000B0E0E7E2F0E0808181608C9347C0A7E254
:1002F000B0E0E7E2F0E080818F7E8C93A7E2B0E08F
:10030000E7E2F0E08081877F8C93A7E2B0E0E7E24C
:10031000F0E0808184608C93A7E2B0E0E7E2F0E057
:10032000808182608C93A7E2B0E0E7E2F0E0808118
:100330008E7F8C9323C0A7E2B0E0E7E2F0E08081FB
:100340008F7E8C93A7E2B0E0E7E2F0E08081877FC8
:100350008C93A7E2B0E0E7E2F0E0808184608C93C8
:10036000A7E2B0E0E7E2F0E0808182608C93A7E250
:10037000B0E0E7E2F0E0808181608C93A6E2B0E03B
:10038000E6E2F0E080818E7F8C93A6E2B0E0E6E2C8
:10039000F0E0808182608C93A6E2B0E0E6E2F0E0DB
:1003A000808184608C93A6E2B0E0E6E2F0E0808198
:1003B00080688C93A6E2B0E0E6E2F0E080818064A1
:1003C0008C930F900F900F90CF91DF910895DF9352
:1003D000CF93CDB7DEB7A6E2B0E0E6E2F0E08081F1
:1003E00080648C93E4E2F0E080819181CF91DF9191
:1003F0000895DF93CF93CDB7DEB727970FB6F89464
:10040000DEBF0FBECDBF89836A834B838B81813072
:1004100009F06FC08981282F30E03F832E838E81C1
:100420009F818130910549F12E813F812230310534
:100430002CF48E819F81009761F0D2C02E813F8184
:100440002230310571F18E819F8183309105E9F170
:10045000C7C0AAE3B0E0EAE3F0E08081482F8A81D8
:10046000282F30E081E090E0022E02C0880F991F13
:100470000A94E2F7842B8C93B3C0A7E3B0E0E7E3E0
:10048000F0E08081482F8A81282F30E081E090E0E1
:10049000022E02C0880F991F0A94E2F7842B8C93D6
:1004A0009FC0A4E3B0E0E4E3F0E08081482F8A81BC
:1004B000282F30E081E090E0022E02C0880F991FC3
:1004C0000A94E2F7842B8C938BC0A1E3B0E0E1E3C4
:1004D000F0E08081482F8A81282F30E081E090E091
:1004E000022E02C0880F991F0A94E2F7842B8C9386
:1004F00077C08B81882309F073C08981282F30E071
:100500003D832C838C819D818130910559F12C8113
:100510003D81223031052CF48C819D81009769F05A
:100520005FC02C813D812230310589F18C819D8114
:100530008330910509F440C053C0AAE3B0E0EAE378
:10054000F0E08081482F8A81282F30E081E090E020
:10055000022E02C0880F991F0A94E2F78095842327
:100560008C933EC0A7E3B0E0E7E3F0E08081482F42
:100570008A81282F30E081E090E0022E02C0880FAF
:10058000991F0A94E2F7809584238C9329C0A4E3F1
:10059000B0E0E4E3F0E08081482F8A81282F30E04A
:1005A00081E090E0022E02C0880F991F0A94E2F7C2
:1005B000809584238C9314C0A1E3B0E0E1E3F0E0E4
:1005C0008081482F8A81282F30E081E090E0022E40
:1005D00002C0880F991F0A94E2F7809584238C93B8
:1005E00027960FB6F894DEBF0FBECDBFCF91DF9137
:1005F0000895DF93CF93CDB7DEB727970FB6F89462
:10060000DEBF0FBECDBF89836A834B838B81813070
:1006100009F06FC08981282F30E03F832E838E81BF
:100620009F818130910549F12E813F812230310532
:100630002CF48E819F81009761F0D2C02E813F8182
:100640002230310571F18E819F8183309105E9F16E
:10065000C7C0ABE3B0E0EBE3F0E08081482F8A81D4
:10066000282F30E081E090E0022E02C0880F991F11
:100670000A94E2F7842B8C93B3C0A8E3B0E0E8E3DC
:10068000F0E08081482F8A81282F30E081E090E0DF
:10069000022E02C0880F991F0A94E2F7842B8C93D4
:1006A0009FC0A5E3B0E0E5E3F0E08081482F8A81B8
:1006B000282F30E081E090E0022E02C0880F991FC1
:1006C0000A94E2F7842B8C938BC0A2E3B0E0E2E3C0
:1006D000F0E08081482F8A81282F30E081E090E08F
:1006E000022E02C0880F991F0A94E2F7842B8C9384
:1006F00077C08B81882309F073C08981282F30E06F
:100700003D832C838C819D818130910559F12C8111
:100710003D81223031052CF48C819D81009769F058
:100720005FC02C813D812230310589F18C819D8112
:100730008330910509F440C053C0ABE3B0E0EBE374
:10074000F0E08081482F8A81282F30E081E090E01E
:10075000022E02C0880F991F0A94E2F78095842325
:100760008C933EC0A8E3B0E0E8E3F0E08081482F3E
:100770008A81282F30E081E090E0022E02C0880FAD
:10078000991F0A94E2F7809584238C9329C0A5E3EE
:10079000B0E0E5E3F0E08081482F8A81282F30E047
:1007A00081E090E0022E02C0880F991F0A94E2F7C0
:1007B000809584238C9314C0A2E3B0E0E2E3F0E0E0
:1007C0008081482F8A81282F30E081E090E0022E3E
:1007D00002C0880F991F0A94E2F7809584238C93B6
:1007E00027960FB6F894DEBF0FBECDBFCF91DF9135
:1007F0000895DF93CF9300D000D0CDB7DEB78983C3
:100800006A838981282F30E03C832B838B819C81F4
:1008100081309105D1F02B813C81223031052CF4BF
:100820008B819C81009761F01EC02B813C8122301E
:10083000310581F08B819C818330910581F013C05B
:10084000EAE3F0E08A8180830EC0E7E3F0E08A818A
:10085000808309C0E4E3F0E08A81808304C0E1E39F
:10086000F0E08A8180830F900F900F900F90CF91CE
:10087000DF910895DF93CF9300D00F92CDB7DEB70D
:1008800089838981282F30E03B832A838A819B8159
:1008900081309105C9F02A813B81223031052CF449
:1008A0008A819B81009761F01AC02A813B812230A6
:1008B000310571F08A819B818330910569F00FC009
:1008C000EAE3F0E010820BC0E7E3F0E0108207C03B
:1008D000E4E3F0E0108203C0E1E3F0E010820F9067
:1008E0000F900F90CF91DF910895DF93CF9300D0B9
:1008F0000F92CDB7DEB789838981282F30E03B8303
:100900002A838A819B8181309105D1F02A813B81A4
:10091000223031052CF48A819B81009761F01EC042
:100920002A813B812230310581F08A819B8183308D
:10093000910581F013C0EAE3F0E08FEF80830EC0F1
:10094000E7E3F0E08FEF808309C0E4E3F0E08FEFAE
:10095000808304C0E1E3F0E08FEF80830F900F907D
:100960000F90CF91DF910895DF93CF9300D000D007
:10097000CDB7DEB789836A838981282F30E03C8335
:100980002B838B819C8181309105D1F02B813C811F
:10099000223031052CF48B819C81009761F01EC0C0
:1009A0002B813C812230310581F08B819C81833009
:1009B000910581F013C0EBE3F0E08A8180830EC0E3
:1009C000E8E3F0E08A81808309C0E5E3F0E08A8112
:1009D000808304C0E2E3F0E08A8180830F900F906F
:1009E0000F900F90CF91DF910895DF93CF9300D0B8
:1009F0000F92CDB7DEB789838981282F30E03B8302
:100A00002A838A819B8181309105C9F02A813B81AB
:100A1000223031052CF48A819B81009761F01AC045
:100A20002A813B812230310571F08A819B8183309C
:100A3000910569F00FC0EBE3F0E010820BC0E8E332
:100A4000F0E0108207C0E5E3F0E0108203C0E2E3CB
:100A5000F0E010820F900F900F90CF91DF910895EA
:100A6000DF93CF9300D00F92CDB7DEB78983898112
:100A7000282F30E03B832A838A819B818130910536
:100A8000D1F02A813B81223031052CF48A819B816F
:100A9000009761F01EC02A813B812230310581F030
:100AA0008A819B818330910581F013C0EBE3F0E0F4
:100AB0008FEF80830EC0E8E3F0E08FEF808309C002
:100AC000E5E3F0E08FEF808304C0E2E3F0E08FEF36
:100AD00080830F900F900F90CF91DF910895DF9357
:100AE000CF9300D000D00F92CDB7DEB78A836B834F
:100AF0008A81282F30E03D832C834C815D814130F9
:100B0000510541F18C819D818230910534F42C8115
:100B10003D812115310561F052C04C815D8142302B
:100B2000510551F18C819D8183309105B9F147C008
:100B3000E9E3F0E08081282F30E08B81882F90E07E
:100B4000A90102C0559547958A95E2F7CA018170BF
:100B5000898335C0E6E3F0E08081282F30E08B8187
:100B6000882F90E0A90102C0559547958A95E2F734
:100B7000CA018170898323C0E3E3F0E08081282FDC
:100B800030E08B81882F90E0A90102C055954795F0
:100B90008A95E2F7CA018170898311C0E0E3F0E031
:100BA0008081282F30E08B81882F90E0A90102C03E
:100BB000559547958A95E2F7CA01817089838981A5
:100BC0000F900F900F900F900F90CF91DF9108959D
:100BD000DF93CF9300D000D0CDB7DEB789836A838F
:100BE0008981282F30E03C832B838B819C8181304D
:100BF000910549F12B813C81223031052CF48B8108
:100C00009C81009761F05AC02B813C8122303105D4
:100C100071F18B819C8183309105E9F14FC0ABE389
:100C2000B0E0EBE3F0E08081482F8A81282F30E0AC
:100C300081E090E0022E02C0880F991F0A94E2F72B
:100C400084278C933BC0A8E3B0E0E8E3F0E0808128
:100C5000482F8A81282F30E081E090E0022E02C0E8
:100C6000880F991F0A94E2F784278C9327C0A5E385
:100C7000B0E0E5E3F0E08081482F8A81282F30E062
:100C800081E090E0022E02C0880F991F0A94E2F7DB
:100C900084278C9313C0A2E3B0E0E2E3F0E080810C
:100CA000482F8A81282F30E081E090E0022E02C098
:100CB000880F991F0A94E2F784278C930F900F9066
:100CC0000F900F90CF91DF910895DF93CF93CDB721
:100CD000DEB7AAE2B0E0EAE2F0E0808180618C93C6
:100CE000AAE2B0E0EAE2F0E0808188608C93809133
:100CF0007C00806880937C0080917C008F7B809357
:100D00007C0080917C008F7D80937C0080917C00B2
:100D10008F7E80937C0080917C00877F80937C0015
:100D200080917C00846080937C0080917C00826054
:100D300080937C00E0E4F0E080917C008083E0E43C
:100D4000F0E01082E9E2F0E083E38083CF91DF916D
:100D50000895DF93CF930F92CDB7DEB78983ECE28E
:100D6000F0E089818083EBE2F0E0808182958695D6
:100D700086958370882F90E081709070009799F32A
:100D8000ABE2B0E0EBE2F0E0808180648C930F9006
:100D9000CF91DF910895DF93CF93CDB7DEB7EBE22C
:100DA000F0E080818823DCF7ECE2F0E08081CF91F5
:100DB000DF910895DF93CF9300D00F92CDB7DEB7C8
:100DC0009B838A83198223C0ACE2B0E08981282FFB
:100DD00030E08A819B81FC01E20FF31F80818C93BC
:100DE000EBE2F0E080818295869586958370882F6E
:100DF00090E081709070009799F3ABE2B0E0EBE285
:100E0000F0E0808180648C9389818F5F8983898100
:100E1000282F30E08A819B81FC01E20FF31F808143
:100E2000882391F60F900F900F90CF91DF91089546
:100E30000F931F93DF93CF930F92CDB7DEB7198235
:100E40008981082F10E00E94CB06F801E859FF4F76
:100E5000808389818F5F89838981882F90E00197C2
:100E6000FC01E859FF4F8081813251F78981882F39
:100E700090E00197FC01E859FF4F108288E690E06E
:100E80000F90CF91DF911F910F9108950F931F93B2
:100E9000DF93CF93CDB7DEB760970FB6F894DEBF80
:100EA0000FBECDBF6D877E878F87988B1A828D8509
:100EB0009E85AF85B8890097A105B10589F580E3C6
:100EC0000E94A9064DC08A81082F10E08D859E855D
:100ED000AF85B8892AE030E040E050E0BC01CD01A8
:100EE0000E941C08DC01CB01282FCE010396FC01D7
:100EF000E00FF11F20838D859E85AF85B8892AE09C
:100F000030E040E050E0BC01CD010E941C08DA0155
:100F1000C9018D879E87AF87B88B8A818F5F8A834F
:100F20008D859E85AF85B8890097A105B10559F6D5
:100F30008A81898312C08981882F90E09C01215089
:100F40003040CE010396FC01E20FF31F8081805DEB
:100F50000E94A9068981815089838981882359F754
:100F600060960FB6F894DEBF0FBECDBFCF91DF9174
:100F70001F910F910895DF93CF9300D000D0CDB78C
:100F8000DEB71C821B8280E00E9449000E94650639
:100F90000E94E7019C018B819C8128173907C1F3CE
:100FA0000E94E7019C838B838B819C81CC01A0E014
:100FB000B0E028E833E140E050E0BC01CD010E9400
:100FC000FD07DC01CB0126EF37E240E050E0BC0139
:100FD000CD010E941C08DA01C9019A8389838981A5
:100FE0009A81CC01A0E0B0E0BC01CD010E9446078F
:100FF00080E690E00E94DA06CBCF629FD001739F1B
:10100000F001829FE00DF11D649FE00DF11D929FA4
:10101000F00D839FF00D749FF00D659FF00D9927E3
:10102000729FB00DE11DF91F639FB00DE11DF91F07
:10103000BD01CF0111240895A1E21A2EAA1BBB1BEA
:10104000FD010DC0AA1FBB1FEE1FFF1FA217B30794
:10105000E407F50720F0A21BB30BE40BF50B661FAA
:10106000771F881F991F1A9469F76095709580956E
:1010700090959B01AC01BD01CF010895F894FFCF7D
:08108000432020202020000085
:00000001FF
