:100000000C942A000C9498050C94CB050C94FE05D6
:100010000C943C000C943C000C943C000C943C0070
:100020000C943C000C943C000C943C000C943C0060
:100030000C943C000C943C000C943C000C943C0050
:100040000C943C000C943C000C943C000C943C0040
:100050000C943C0011241FBECFE5D8E0DEBFCDBF1D
:1000600010E0A0E6B0E001C01D92A636B107E1F7AE
:100070000E94F3060C9449070C940000DF93CF9381
:10008000CDB7DEB727970FB6F894DEBF0FBECDBF52
:1000900089836A834B838B81813009F06FC08981AA
:1000A000282F30E03F832E838E819F818130910500
:1000B00049F12E813F81223031052CF48E819F81C0
:1000C000009761F0D2C02E813F812230310571F15D
:1000D0008E819F8183309105E9F1C7C0AAE3B0E02A
:1000E000EAE3F0E08081482F8A81282F30E081E028
:1000F00090E0022E02C0880F991F0A94E2F7842B29
:100100008C93B3C0A7E3B0E0E7E3F0E08081482F31
:100110008A81282F30E081E090E0022E02C0880F13
:10012000991F0A94E2F7842B8C939FC0A4E3B0E05C
:10013000E4E3F0E08081482F8A81282F30E081E0DD
:1001400090E0022E02C0880F991F0A94E2F7842BD8
:100150008C938BC0A1E3B0E0E1E3F0E08081482F15
:100160008A81282F30E081E090E0022E02C0880FC3
:10017000991F0A94E2F7842B8C9377C08B81882394
:1001800009F073C08981282F30E03D832C838C8156
:100190009D818130910559F12C813D8122303105BD
:1001A0002CF48C819D81009769F05FC02C813D818A
:1001B0002230310589F18C819D818330910509F4CC
:1001C00040C053C0AAE3B0E0EAE3F0E08081482FEA
:1001D0008A81282F30E081E090E0022E02C0880F53
:1001E000991F0A94E2F7809584238C933EC0A7E37D
:1001F000B0E0E7E3F0E08081482F8A81282F30E0EB
:1002000081E090E0022E02C0880F991F0A94E2F765
:10021000809584238C9329C0A4E3B0E0E4E3F0E06C
:100220008081482F8A81282F30E081E090E0022EE3
:1002300002C0880F991F0A94E2F7809584238C935B
:1002400014C0A1E3B0E0E1E3F0E08081482F8A81AF
:10025000282F30E081E090E0022E02C0880F991F25
:100260000A94E2F7809584238C9327960FB6F8942E
:10027000DEBF0FBECDBFCF91DF910895DF93CF9347
:10028000CDB7DEB727970FB6F894DEBF0FBECDBF50
:1002900089836A834B838B81813009F06FC08981A8
:1002A000282F30E03F832E838E819F8181309105FE
:1002B00049F12E813F81223031052CF48E819F81BE
:1002C000009761F0D2C02E813F812230310571F15B
:1002D0008E819F8183309105E9F1C7C0ABE3B0E027
:1002E000EBE3F0E08081482F8A81282F30E081E025
:1002F00090E0022E02C0880F991F0A94E2F7842B27
:100300008C93B3C0A8E3B0E0E8E3F0E08081482F2D
:100310008A81282F30E081E090E0022E02C0880F11
:10032000991F0A94E2F7842B8C939FC0A5E3B0E059
:10033000E5E3F0E08081482F8A81282F30E081E0DA
:1003400090E0022E02C0880F991F0A94E2F7842BD6
:100350008C938BC0A2E3B0E0E2E3F0E08081482F11
:100360008A81282F30E081E090E0022E02C0880FC1
:10037000991F0A94E2F7842B8C9377C08B81882392
:1003800009F073C08981282F30E03D832C838C8154
:100390009D818130910559F12C813D8122303105BB
:1003A0002CF48C819D81009769F05FC02C813D8188
:1003B0002230310589F18C819D818330910509F4CA
:1003C00040C053C0ABE3B0E0EBE3F0E08081482FE6
:1003D0008A81282F30E081E090E0022E02C0880F51
:1003E000991F0A94E2F7809584238C933EC0A8E37A
:1003F000B0E0E8E3F0E08081482F8A81282F30E0E8
:1004000081E090E0022E02C0880F991F0A94E2F763
:10041000809584238C9329C0A5E3B0E0E5E3F0E068
:100420008081482F8A81282F30E081E090E0022EE1
:1004300002C0880F991F0A94E2F7809584238C9359
:1004400014C0A2E3B0E0E2E3F0E08081482F8A81AB
:10045000282F30E081E090E0022E02C0880F991F23
:100460000A94E2F7809584238C9327960FB6F8942C
:10047000DEBF0FBECDBFCF91DF910895DF93CF9345
:1004800000D000D0CDB7DEB789836A838981282F59
:1004900030E03C832B838B819C8181309105D1F0AE
:1004A0002B813C81223031052CF48B819C8100977B
:1004B00061F01EC02B813C812230310581F08B819F
:1004C0009C818330910581F013C0EAE3F0E08A81DA
:1004D00080830EC0E7E3F0E08A81808309C0E4E313
:1004E000F0E08A81808304C0E1E3F0E08A818083C8
:1004F0000F900F900F900F90CF91DF910895DF93A1
:10050000CF9300D00F92CDB7DEB789838981282F92
:1005100030E03B832A838A819B8181309105C9F039
:100520002A813B81223031052CF48A819B810097FE
:1005300061F01AC02A813B812230310571F08A8135
:100540009B818330910569F00FC0EAE3F0E01082EF
:100550000BC0E7E3F0E0108207C0E4E3F0E01082B4
:1005600003C0E1E3F0E010820F900F900F90CF9165
:10057000DF910895DF93CF9300D00F92CDB7DEB710
:1005800089838981282F30E03B832A838A819B815C
:1005900081309105D1F02A813B81223031052CF444
:1005A0008A819B81009761F01EC02A813B812230A5
:1005B000310581F08A819B818330910581F013C0E0
:1005C000EAE3F0E08FEF80830EC0E7E3F0E08FEF27
:1005D000808309C0E4E3F0E08FEF808304C0E1E3AF
:1005E000F0E08FEF80830F900F900F90CF91DF910D
:1005F0000895DF93CF9300D000D0CDB7DEB78983C5
:100600006A838981282F30E03C832B838B819C81F6
:1006100081309105D1F02B813C81223031052CF4C1
:100620008B819C81009761F01EC02B813C81223020
:10063000310581F08B819C818330910581F013C05D
:10064000EBE3F0E08A8180830EC0E8E3F0E08A818A
:10065000808309C0E5E3F0E08A81808304C0E2E39F
:10066000F0E08A8180830F900F900F900F90CF91D0
:10067000DF910895DF93CF9300D00F92CDB7DEB70F
:1006800089838981282F30E03B832A838A819B815B
:1006900081309105C9F02A813B81223031052CF44B
:1006A0008A819B81009761F01AC02A813B812230A8
:1006B000310571F08A819B818330910569F00FC00B
:1006C000EBE3F0E010820BC0E8E3F0E0108207C03B
:1006D000E5E3F0E0108203C0E2E3F0E010820F9067
:1006E0000F900F90CF91DF910895DF93CF9300D0BB
:1006F0000F92CDB7DEB789838981282F30E03B8305
:100700002A838A819B8181309105D1F02A813B81A6
:10071000223031052CF48A819B81009761F01EC044
:100720002A813B812230310581F08A819B8183308F
:10073000910581F013C0EBE3F0E08FEF80830EC0F2
:10074000E8E3F0E08FEF808309C0E5E3F0E08FEFAE
:10075000808304C0E2E3F0E08FEF80830F900F907E
:100760000F90CF91DF910895DF93CF9300D000D009
:100770000F92CDB7DEB78A836B838A81282F30E052
:100780003D832C834C815D814130510541F18C8149
:100790009D818230910534F42C813D8121153105F4
:1007A00061F052C04C815D814230510551F18C8124
:1007B0009D8183309105B9F147C0E9E3F0E0808184
:1007C000282F30E08B81882F90E0A90102C0559539
:1007D00047958A95E2F7CA018170898335C0E6E3BF
:1007E000F0E08081282F30E08B81882F90E0A901F4
:1007F00002C0559547958A95E2F7CA0181708983B1
:1008000023C0E3E3F0E08081282F30E08B81882F44
:1008100090E0A90102C0559547958A95E2F7CA0173
:100820008170898311C0E0E3F0E08081282F30E0FF
:100830008B81882F90E0A90102C0559547958A9534
:10084000E2F7CA018170898389810F900F900F9020
:100850000F900F90CF91DF910895DF93CF9300D049
:1008600000D0CDB7DEB789836A838981282F30E035
:100870003C832B838B819C818130910549F12B81B5
:100880003C81223031052CF48B819C81009761F0F2
:100890005AC02B813C812230310571F18B819C81C2
:1008A00083309105E9F14FC0ABE3B0E0EBE3F0E05A
:1008B0008081482F8A81282F30E081E090E0022E4D
:1008C00002C0880F991F0A94E2F784278C933BC0DB
:1008D000A8E3B0E0E8E3F0E08081482F8A81282F88
:1008E00030E081E090E0022E02C0880F991F0A9448
:1008F000E2F784278C9327C0A5E3B0E0E5E3F0E0BE
:100900008081482F8A81282F30E081E090E0022EFC
:1009100002C0880F991F0A94E2F784278C9313C0B2
:10092000A2E3B0E0E2E3F0E08081482F8A81282F43
:1009300030E081E090E0022E02C0880F991F0A94F7
:10094000E2F784278C930F900F900F900F90CF9128
:10095000DF910895DF93CF93CDB7DEB72A970FB617
:10096000F894DEBF0FBECDBF89836A838981282FAB
:1009700030E03A87298789859A858130910509F485
:100980003FC029853A852230310509F46DC089853B
:100990009A85009709F08DC0ABE5B0E0EBE5F0E09B
:1009A000808180648C938A81282F30E038872F8360
:1009B0008F819885009731F02F813885213031055E
:1009C00081F077C0A5E5B0E0E5E5F0E080818160E9
:1009D0008C93A5E5B0E0E5E5F0E0808182608C9342
:1009E00068C0A5E5B0E0E5E5F0E080818E7F8C93FE
:1009F000A5E5B0E0E5E5F0E0808182608C9359C028
:100A0000ABE5B0E0EBE5F0E0808180688C938A8113
:100A1000282F30E03E832D838D819E81009731F019
:100A20002D813E812130310581F043C0A5E5B0E044
:100A3000E5E5F0E0808184608C93A5E5B0E0E5E534
:100A4000F0E0808188608C9334C0A5E5B0E0E5E5F6
:100A5000F0E080818B7F8C93A5E5B0E0E5E5F0E0E8
:100A6000808188608C9325C0ABE5B0E0EBE5F0E0D9
:100A7000808180628C938A81282F30E03C832B8395
:100A80008B819C81009731F02B813C812130310595
:100A900049F00FC0A4E5B0E0E4E5F0E080818064B7
:100AA0008C9307C0A4E5B0E0E4E5F0E080818F7BA3
:100AB0008C932A960FB6F894DEBF0FBECDBFCF91B0
:100AC000DF910895DF93CF9300D0CDB7DEB79A833F
:100AD000898389819A8190936100809360000F904F
:100AE0000F90CF91DF910895DF93CF9300D0CDB7D2
:100AF000DEB79A83898389819A819093630080937A
:100B000062000F900F90CF91DF910895DF93CF9304
:100B100000D0CDB7DEB79A83898389819A8190937B
:100B20006500809364000F900F90CF91DF9108953E
:100B30001F920F920FB60F9211242F933F934F9352
:100B40005F936F937F938F939F93AF93BF93EF9335
:100B5000FF93DF93CF93CDB7DEB780916000909184
:100B60006100009729F0E0916000F0916100099523
:100B7000CF91DF91FF91EF91BF91AF919F918F91B5
:100B80007F916F915F914F913F912F910F900FBE89
:100B90000F901F9018951F920F920FB60F9211246D
:100BA0002F933F934F935F936F937F938F939F9375
:100BB000AF93BF93EF93FF93DF93CF93CDB7DEB7A0
:100BC0008091620090916300009729F0E0916200AB
:100BD000F09163000995CF91DF91FF91EF91BF9163
:100BE000AF919F918F917F916F915F914F913F91C5
:100BF0002F910F900FBE0F901F9018951F920F927C
:100C00000FB60F9211242F933F934F935F936F93DF
:100C10007F938F939F93AF93BF93EF93FF93DF9354
:100C2000CF93CDB7DEB780916400909165000097B7
:100C300029F0E0916400F09165000995CF91DF9172
:100C4000FF91EF91BF91AF919F918F917F916F91A4
:100C50005F914F913F912F910F900FBE0F901F907A
:100C60001895DF93CF93CDB7DEB7AFE5B0E0EFE5F2
:100C7000F0E0808180688C93CF91DF910895DF93BD
:100C8000CF93CDB7DEB7AFE5B0E0EFE5F0E0808120
:100C90008F778C93CF91DF910895DF93CF9300D01E
:100CA0000F92CDB7DEB78983ADE2B0E0EDE2F0E0C0
:100CB00080818F778C93ADE2B0E0EDE2F0E080814F
:100CC00080648C93ADE2B0E0EDE2F0E080818F7D56
:100CD0008C938981282F30E03B832A838A819B81F2
:100CE000009731F02A813B812130310549F00FC056
:100CF000ADE2B0E0EDE2F0E0808180618C9307C06E
:100D0000ADE2B0E0EDE2F0E080818F7E8C93ADE269
:100D1000B0E0EDE2F0E08081877F8C93ADE2B0E05F
:100D2000EDE2F0E080818B7F8C93ADE2B0E0EDE20C
:100D3000F0E080818D7F8C93ADE2B0E0EDE2F0E0F9
:100D4000808181608C93AEE2B0E0EEE2F0E08081E1
:100D500081608C930F900F900F90CF91DF91089549
:100D6000DF93CF9300D0CDB7DEB78983EFE2F0E019
:100D700089818083EEE2F0E08081EFE2F0E0808123
:100D80000F900F90CF91DF910895DF93CF930F9243
:100D9000CDB7DEB781E060E040E00E943E0184E52F
:100DA0000E94B006898381E060E041E00E943E013C
:100DB0000F90CF91DF910895DF93CF930F92CDB72E
:100DC000DEB781E061E040E00E943E0181E60E94E2
:100DD000B006898381E061E041E00E943E010F900E
:100DE000CF91DF910895DF93CF93CDB7DEB70E9407
:100DF000310680E061E00E94AA0481E061E00E9487
:100E0000AA0480E00E944D0681E064E040E00E9478
:100E10003E0081E065E041E00E943E0081E066E046
:100E200040E00E943E0081E067E041E00E943E0019
:100E300081E060E041E00E943E0081E061E041E04D
:100E40000E943E0081E060E041E00E943E0181E0BE
:100E500061E041E00E943E0183E062E040E00E94E8
:100E60003E0083E063E040E00E943E0083E062E0F9
:100E700041E00E943E0183E063E041E00E943E01C8
:100E800085EC96E00E9462058CED96E00E94740568
:060E9000FFCFF894FFCF34
:00000001FF
